{
  "_format": "hh-sol-artifact-1",
  "contractName": "AuctionMultipleGuaranteed",
  "sourceName": "contracts/AuctionMultipleGuaranteed.sol",
  "abi": [
    {
      "inputs": [
        {
          "internalType": "uint256",
          "name": "_price",
          "type": "uint256"
        },
        {
          "internalType": "string",
          "name": "_description",
          "type": "string"
        },
        {
          "internalType": "uint256",
          "name": "_timestampEnd",
          "type": "uint256"
        },
        {
          "internalType": "address",
          "name": "_beneficiary",
          "type": "address"
        },
        {
          "internalType": "uint256",
          "name": "_howMany",
          "type": "uint256"
        },
        {
          "internalType": "uint256",
          "name": "_howManyGuaranteed",
          "type": "uint256"
        },
        {
          "internalType": "uint256",
          "name": "_priceGuaranteed",
          "type": "uint256"
        }
      ],
      "stateMutability": "nonpayable",
      "type": "constructor"
    },
    {
      "anonymous": false,
      "inputs": [
        {
          "indexed": true,
          "internalType": "address",
          "name": "winner",
          "type": "address"
        },
        {
          "indexed": true,
          "internalType": "uint256",
          "name": "price",
          "type": "uint256"
        },
        {
          "indexed": true,
          "internalType": "uint256",
          "name": "timestamp",
          "type": "uint256"
        }
      ],
      "name": "BidEvent",
      "type": "event"
    },
    {
      "anonymous": false,
      "inputs": [
        {
          "indexed": false,
          "internalType": "address",
          "name": "addr",
          "type": "address"
        },
        {
          "indexed": false,
          "internalType": "uint256",
          "name": "value",
          "type": "uint256"
        }
      ],
      "name": "GuaranteedBid",
      "type": "event"
    },
    {
      "anonymous": false,
      "inputs": [
        {
          "indexed": false,
          "internalType": "address",
          "name": "addr",
          "type": "address"
        }
      ],
      "name": "LogAddress",
      "type": "event"
    },
    {
      "anonymous": false,
      "inputs": [
        {
          "indexed": false,
          "internalType": "uint256",
          "name": "number",
          "type": "uint256"
        }
      ],
      "name": "LogNumber",
      "type": "event"
    },
    {
      "anonymous": false,
      "inputs": [
        {
          "indexed": false,
          "internalType": "string",
          "name": "text",
          "type": "string"
        }
      ],
      "name": "LogText",
      "type": "event"
    },
    {
      "anonymous": false,
      "inputs": [
        {
          "indexed": true,
          "internalType": "address",
          "name": "addr",
          "type": "address"
        },
        {
          "indexed": false,
          "internalType": "uint256",
          "name": "value",
          "type": "uint256"
        },
        {
          "indexed": false,
          "internalType": "uint256",
          "name": "timestamp",
          "type": "uint256"
        }
      ],
      "name": "Refund",
      "type": "event"
    },
    {
      "inputs": [],
      "name": "HEAD",
      "outputs": [
        {
          "internalType": "uint256",
          "name": "",
          "type": "uint256"
        }
      ],
      "stateMutability": "view",
      "type": "function"
    },
    {
      "inputs": [],
      "name": "LIMIT",
      "outputs": [
        {
          "internalType": "uint256",
          "name": "",
          "type": "uint256"
        }
      ],
      "stateMutability": "view",
      "type": "function"
    },
    {
      "inputs": [],
      "name": "TAIL",
      "outputs": [
        {
          "internalType": "uint256",
          "name": "",
          "type": "uint256"
        }
      ],
      "stateMutability": "view",
      "type": "function"
    },
    {
      "inputs": [],
      "name": "acceptedBids",
      "outputs": [
        {
          "internalType": "uint256",
          "name": "",
          "type": "uint256"
        }
      ],
      "stateMutability": "view",
      "type": "function"
    },
    {
      "inputs": [
        {
          "internalType": "uint256",
          "name": "",
          "type": "uint256"
        }
      ],
      "name": "accountsList",
      "outputs": [
        {
          "internalType": "address",
          "name": "",
          "type": "address"
        }
      ],
      "stateMutability": "view",
      "type": "function"
    },
    {
      "inputs": [],
      "name": "beneficiary",
      "outputs": [
        {
          "internalType": "address",
          "name": "",
          "type": "address"
        }
      ],
      "stateMutability": "view",
      "type": "function"
    },
    {
      "inputs": [],
      "name": "bid",
      "outputs": [],
      "stateMutability": "payable",
      "type": "function"
    },
    {
      "inputs": [
        {
          "internalType": "address",
          "name": "",
          "type": "address"
        }
      ],
      "name": "bids",
      "outputs": [
        {
          "internalType": "uint256",
          "name": "",
          "type": "uint256"
        }
      ],
      "stateMutability": "view",
      "type": "function"
    },
    {
      "inputs": [
        {
          "internalType": "address",
          "name": "",
          "type": "address"
        }
      ],
      "name": "contributors",
      "outputs": [
        {
          "internalType": "uint256",
          "name": "",
          "type": "uint256"
        }
      ],
      "stateMutability": "view",
      "type": "function"
    },
    {
      "inputs": [],
      "name": "description",
      "outputs": [
        {
          "internalType": "string",
          "name": "",
          "type": "string"
        }
      ],
      "stateMutability": "view",
      "type": "function"
    },
    {
      "inputs": [],
      "name": "finalize",
      "outputs": [],
      "stateMutability": "nonpayable",
      "type": "function"
    },
    {
      "inputs": [],
      "name": "finalized",
      "outputs": [
        {
          "internalType": "bool",
          "name": "",
          "type": "bool"
        }
      ],
      "stateMutability": "view",
      "type": "function"
    },
    {
      "inputs": [
        {
          "internalType": "address",
          "name": "addr",
          "type": "address"
        }
      ],
      "name": "getPosition",
      "outputs": [
        {
          "internalType": "uint256",
          "name": "",
          "type": "uint256"
        }
      ],
      "stateMutability": "view",
      "type": "function"
    },
    {
      "inputs": [],
      "name": "getPosition",
      "outputs": [
        {
          "internalType": "uint256",
          "name": "",
          "type": "uint256"
        }
      ],
      "stateMutability": "view",
      "type": "function"
    },
    {
      "inputs": [
        {
          "internalType": "address",
          "name": "",
          "type": "address"
        }
      ],
      "name": "guaranteedContributions",
      "outputs": [
        {
          "internalType": "uint256",
          "name": "",
          "type": "uint256"
        }
      ],
      "stateMutability": "view",
      "type": "function"
    },
    {
      "inputs": [
        {
          "internalType": "uint256",
          "name": "",
          "type": "uint256"
        }
      ],
      "name": "guaranteedContributors",
      "outputs": [
        {
          "internalType": "address",
          "name": "",
          "type": "address"
        }
      ],
      "stateMutability": "view",
      "type": "function"
    },
    {
      "inputs": [],
      "name": "howMany",
      "outputs": [
        {
          "internalType": "uint256",
          "name": "",
          "type": "uint256"
        }
      ],
      "stateMutability": "view",
      "type": "function"
    },
    {
      "inputs": [],
      "name": "howManyGuaranteed",
      "outputs": [
        {
          "internalType": "uint256",
          "name": "",
          "type": "uint256"
        }
      ],
      "stateMutability": "view",
      "type": "function"
    },
    {
      "inputs": [],
      "name": "increaseTimeBy",
      "outputs": [
        {
          "internalType": "uint256",
          "name": "",
          "type": "uint256"
        }
      ],
      "stateMutability": "view",
      "type": "function"
    },
    {
      "inputs": [],
      "name": "increaseTimeIfBidBeforeEnd",
      "outputs": [
        {
          "internalType": "uint256",
          "name": "",
          "type": "uint256"
        }
      ],
      "stateMutability": "view",
      "type": "function"
    },
    {
      "inputs": [],
      "name": "initialPrice",
      "outputs": [
        {
          "internalType": "bool",
          "name": "",
          "type": "bool"
        }
      ],
      "stateMutability": "view",
      "type": "function"
    },
    {
      "inputs": [],
      "name": "instructions",
      "outputs": [
        {
          "internalType": "string",
          "name": "",
          "type": "string"
        }
      ],
      "stateMutability": "view",
      "type": "function"
    },
    {
      "inputs": [],
      "name": "lastBidID",
      "outputs": [
        {
          "internalType": "uint256",
          "name": "",
          "type": "uint256"
        }
      ],
      "stateMutability": "view",
      "type": "function"
    },
    {
      "inputs": [
        {
          "internalType": "uint256",
          "name": "",
          "type": "uint256"
        }
      ],
      "name": "multipleBids",
      "outputs": [
        {
          "internalType": "uint256",
          "name": "prev",
          "type": "uint256"
        },
        {
          "internalType": "uint256",
          "name": "next",
          "type": "uint256"
        },
        {
          "internalType": "uint256",
          "name": "value",
          "type": "uint256"
        },
        {
          "internalType": "address",
          "name": "contributor",
          "type": "address"
        }
      ],
      "stateMutability": "view",
      "type": "function"
    },
    {
      "inputs": [],
      "name": "owner",
      "outputs": [
        {
          "internalType": "address",
          "name": "",
          "type": "address"
        }
      ],
      "stateMutability": "view",
      "type": "function"
    },
    {
      "inputs": [],
      "name": "price",
      "outputs": [
        {
          "internalType": "uint256",
          "name": "",
          "type": "uint256"
        }
      ],
      "stateMutability": "view",
      "type": "function"
    },
    {
      "inputs": [],
      "name": "priceGuaranteed",
      "outputs": [
        {
          "internalType": "uint256",
          "name": "",
          "type": "uint256"
        }
      ],
      "stateMutability": "view",
      "type": "function"
    },
    {
      "inputs": [],
      "name": "refund",
      "outputs": [],
      "stateMutability": "nonpayable",
      "type": "function"
    },
    {
      "inputs": [],
      "name": "refundContributors",
      "outputs": [],
      "stateMutability": "nonpayable",
      "type": "function"
    },
    {
      "inputs": [
        {
          "internalType": "address",
          "name": "addr",
          "type": "address"
        }
      ],
      "name": "refundOnBehalf",
      "outputs": [],
      "stateMutability": "nonpayable",
      "type": "function"
    },
    {
      "inputs": [
        {
          "internalType": "uint256",
          "name": "_contribution",
          "type": "uint256"
        },
        {
          "internalType": "uint256",
          "name": "_startSearch",
          "type": "uint256"
        }
      ],
      "name": "searchInsertionPoint",
      "outputs": [
        {
          "internalType": "uint256",
          "name": "insertionPoint",
          "type": "uint256"
        }
      ],
      "stateMutability": "view",
      "type": "function"
    },
    {
      "inputs": [
        {
          "internalType": "string",
          "name": "_description",
          "type": "string"
        }
      ],
      "name": "setDescription",
      "outputs": [],
      "stateMutability": "nonpayable",
      "type": "function"
    },
    {
      "inputs": [
        {
          "internalType": "string",
          "name": "_instructions",
          "type": "string"
        }
      ],
      "name": "setInstructions",
      "outputs": [],
      "stateMutability": "nonpayable",
      "type": "function"
    },
    {
      "inputs": [],
      "name": "timestampEnd",
      "outputs": [
        {
          "internalType": "uint256",
          "name": "",
          "type": "uint256"
        }
      ],
      "stateMutability": "view",
      "type": "function"
    },
    {
      "inputs": [],
      "name": "winner",
      "outputs": [
        {
          "internalType": "address",
          "name": "",
          "type": "address"
        }
      ],
      "stateMutability": "view",
      "type": "function"
    },
    {
      "stateMutability": "payable",
      "type": "receive"
    }
  ],
  "bytecode": "0x60806040526003805460ff191660011790556005805460ff60a01b1916905562015180600a819055600b556000600c819055600d553480156200004157600080fd5b506040516200222c3803806200222c8339810160408190526200006491620004fc565b868686868684848484428211620000d35760405162461bcd60e51b815260206004820152602860248201527f656e64206f66207468652061756374696f6e206d75737420626520696e207468604482015267652066757475726560c01b60648201526084015b60405180910390fd5b600680546001600160a01b0319163317905560028490556000620000f88482620006a4565b50600491909155600580546001600160a01b0319166001600160a01b03909216919091179055505060018111620001e45760405162461bcd60e51b815260206004820152607e60248201527f546869732061756374696f6e2069732073756974656420746f206d756c74697060448201527f6c65206974656d732e20576974682031206974656d206f6e6c79202d2075736560648201527f20646966666572656e7420636f64652e204f722072656d6f766520746869732060848201527f277265717569726527202d20796f75277665206265656e207761726e6564000060a482015260c401620000ca565b600e5550506040805160808082018352600080835260208084018281526a6342fd08f00f63780000008587018181526060808801868152838752600f80875298517f8b20bff2eaa7065819cba41ebdec523699868d5d2b138a6c09a990be3c9fb3155593517f8b20bff2eaa7065819cba41ebdec523699868d5d2b138a6c09a990be3c9fb3165590517f8b20bff2eaa7065819cba41ebdec523699868d5d2b138a6c09a990be3c9fb3175591517f8b20bff2eaa7065819cba41ebdec523699868d5d2b138a6c09a990be3c9fb31880546001600160a01b03199081166001600160a01b0393841617909155885196870189528287528685019283529786018581529286018581529480529590925292517ff4803e074bd026baaf6ed2e288c9515f68c72fb7216eebdd7cae1718a53ec37555517ff4803e074bd026baaf6ed2e288c9515f68c72fb7216eebdd7cae1718a53ec3765590517ff4803e074bd026baaf6ed2e288c9515f68c72fb7216eebdd7cae1718a53ec37755517ff4803e074bd026baaf6ed2e288c9515f68c72fb7216eebdd7cae1718a53ec378805490931691161790555050818310156200044f5760405162461bcd60e51b815260206004820152607860248201527f546865206e756d626572206f662067756172616e74656564206974656d73207360448201527f686f756c64206265206c657373206f7220657175616c207468616e20746f746160648201527f6c206974656d732e20496620657175616c203d2066697865642070726963652060848201527f73656c6c2c206b696e64206f66204f4b2077697468206d65000000000000000060a482015260c401620000ca565b60008111620004b45760405162461bcd60e51b815260206004820152602a60248201527f47756172616e74656564207072696365206d7573742062652067726561746572604482015269207468616e207a65726f60b01b6064820152608401620000ca565b60119190915560125550620007709350505050565b634e487b7160e01b600052604160045260246000fd5b80516001600160a01b0381168114620004f757600080fd5b919050565b600080600080600080600060e0888a0312156200051857600080fd5b87516020808a0151919850906001600160401b03808211156200053a57600080fd5b818b0191508b601f8301126200054f57600080fd5b815181811115620005645762000564620004c9565b604051601f8201601f19908116603f011681019083821181831017156200058f576200058f620004c9565b816040528281528e86848701011115620005a857600080fd5b600093505b82841015620005cc5784840186015181850187015292850192620005ad565b6000868483010152809b5050505050505060408801519450620005f260608901620004df565b93506080880151925060a0880151915060c0880151905092959891949750929550565b600181811c908216806200062a57607f821691505b6020821081036200064b57634e487b7160e01b600052602260045260246000fd5b50919050565b601f8211156200069f57600081815260208120601f850160051c810160208610156200067a5750805b601f850160051c820191505b818110156200069b5782815560010162000686565b5050505b505050565b81516001600160401b03811115620006c057620006c0620004c9565b620006d881620006d1845462000615565b8462000651565b602080601f831160018114620007105760008415620006f75750858301515b600019600386901b1c1916600185901b1785556200069b565b600085815260208120601f198616915b82811015620007415788860151825594840194600190910190840162000720565b5085821015620007605787850151600019600388901b60f8161c191681555b5050505050600190811b01905550565b611aac80620007806000396000f3fe6080604052600436106102085760003560e01c80636641da8011610118578063b3f05b97116100a0578063cb7438401161006f578063cb7438401461074e578063cf9b3c8d14610764578063dfbf53ae14610784578063ec6f6ea4146107a4578063f5738bcd146107d157600080fd5b8063b3f05b97146106ec578063b7dc5c111461070d578063c628ddc314610723578063c6eeeb041461073857600080fd5b80638da5cb5b116100e75780638da5cb5b1461066057806390c3f38f14610680578063a035b1fe146106a0578063a9d49f62146106b6578063af8214ef146106d657600080fd5b80636641da801461060057806366aef95b146106205780637284e416146106365780637398ab181461064b57600080fd5b806330bbb55e1161019b57806356c7f4611161016a57806356c7f4611461057d57806357f196fa14610592578063590e1ae3146105a857806362ab8cc1146105bd57806362ea82db146105d357600080fd5b806330bbb55e146104ee57806338af3eed146105105780634bb278f3146105485780635104cb5c1461055d57600080fd5b80631998aeef116101d75780631998aeef146103985780631a701609146104785780631d0806ae146104975780631f6d4942146104c157600080fd5b8063041abd9f146103a5578063114b4f1c146103ce57806314a4e4d6146103e457806316c197391461045857600080fd5b366103a0573460000361021f5761021d6107f1565b005b60045442106102495760405162461bcd60e51b8152600401610240906116b3565b60405180910390fd5b33600090815260146020526040902054156102cc5760405162461bcd60e51b815260206004820152603760248201527f616c726561647920612067756172616e7465656420636f6e7472696275746f7260448201527f2c2063616e6e6f74206d6f7265207468616e206f6e63650000000000000000006064820152608401610240565b60125434101580156102e057506000601154115b156103985760138054600181019091557f66de8ffda797e3de9c05e8fc57b3bf0ec28a930d40b0d285d93c06501cf6a0900180546001600160a01b03191633908117909155600090815260146020526040812034905560118054916103448361170a565b9091555050600e80549060006103598361170a565b9091555050604080513381523460208201527ff2d599bb8cbfb83f7aaefa6562a40c939d41ed0d64ba6e32a331fa174f9aa35f910160405180910390a1005b61021d6107fc565b600080fd5b3480156103b157600080fd5b506103bb60045481565b6040519081526020015b60405180910390f35b3480156103da57600080fd5b506103bb60115481565b3480156103f057600080fd5b5061042f6103ff366004611721565b600f602052600090815260409020805460018201546002830154600390930154919290916001600160a01b031684565b604080519485526020850193909352918301526001600160a01b031660608201526080016103c5565b34801561046457600080fd5b506103bb61047336600461173a565b610aba565b34801561048457600080fd5b506103bb6a6342fd08f00f637800000081565b3480156104a357600080fd5b506003546104b19060ff1681565b60405190151581526020016103c5565b3480156104cd57600080fd5b506103bb6104dc36600461173a565b60106020526000908152604090205481565b3480156104fa57600080fd5b50610503610c7c565b6040516103c5919061176a565b34801561051c57600080fd5b50600554610530906001600160a01b031681565b6040516001600160a01b0390911681526020016103c5565b34801561055457600080fd5b5061021d610d0a565b34801561056957600080fd5b5061021d61057836600461173a565b611023565b34801561058957600080fd5b5061021d611059565b34801561059e57600080fd5b506103bb600c5481565b3480156105b457600080fd5b5061021d6107f1565b3480156105c957600080fd5b506103bb600e5481565b3480156105df57600080fd5b506103bb6105ee36600461173a565b60086020526000908152604090205481565b34801561060c57600080fd5b5061053061061b366004611721565b6111f9565b34801561062c57600080fd5b506103bb600a5481565b34801561064257600080fd5b50610503611223565b34801561065757600080fd5b506103bb611230565b34801561066c57600080fd5b50600654610530906001600160a01b031681565b34801561068c57600080fd5b5061021d61069b3660046117ce565b611240565b3480156106ac57600080fd5b506103bb60025481565b3480156106c257600080fd5b506103bb6106d136600461187f565b611276565b3480156106e257600080fd5b506103bb6107d081565b3480156106f857600080fd5b506005546104b190600160a01b900460ff1681565b34801561071957600080fd5b506103bb60125481565b34801561072f57600080fd5b506103bb600081565b34801561074457600080fd5b506103bb600b5481565b34801561075a57600080fd5b506103bb600d5481565b34801561077057600080fd5b5061053061077f366004611721565b6113f2565b34801561079057600080fd5b50600754610530906001600160a01b031681565b3480156107b057600080fd5b506103bb6107bf36600461173a565b60146020526000908152604090205481565b3480156107dd57600080fd5b5061021d6107ec3660046117ce565b611402565b6107fa33611477565b565b600454421061081d5760405162461bcd60e51b8152600401610240906116b3565b336000908152601060205260408120549081156108e3576000828152600f60205260408120600281018054919234926108579084906118a1565b909155505060018101546000908152600f602052604090206002908101549082015411156108de5761089181600201548260010154611276565b6001808301805484546000908152600f6020526040808220850183905586549282528082209290925584865584815281812090930180549283905591835282208690559082905284905591505b505050565b60025434101561095b5760405162461bcd60e51b815260206004820152603b60248201527f4e6f74206d7563682073656e73652073656e64696e67206c657373207468616e60448201527f207468652070726963652c206c696b656c7920616e206572726f7200000000006064820152608401610240565b6107d0600c54106109e35760405162461bcd60e51b815260206004820152604660248201527f44756520746f20626c6f636b476173206c696d6974207765206c696d6974206e60448201527f756d626572206f662070656f706c6520696e207468652061756374696f6e207460648201526506f20323030360d41b608482015260a401610240565b600c80549060006109f3836118b4565b9091555050600d8054906000610a08836118b4565b9190505550610a18346000611276565b600c80543360008181526010602090815260408083208590558051608081018252878152878452600f808452828520600190810180548487019081523485870190815260608601998a529988529290955283862092518355905190820155945160028601559251600390940180546001600160a01b0319166001600160a01b0390951694909417909355925482548452908320819055918390525590505b5050565b6001600160a01b038116600090815260106020526040812054808203610b485760405162461bcd60e51b815260206004820152603960248201527f63616e6e6f742061736b20666f72206120706f736974696f6e206f662061206760448201527f75792077686f206973206e6f74206f6e20746865206c697374000000000000006064820152608401610240565b6a6342fd08f00f6378000000600052600f6020908152604080516080810182527f8b20bff2eaa7065819cba41ebdec523699868d5d2b138a6c09a990be3c9fb3155481527f8b20bff2eaa7065819cba41ebdec523699868d5d2b138a6c09a990be3c9fb31654928101929092527f8b20bff2eaa7065819cba41ebdec523699868d5d2b138a6c09a990be3c9fb31754908201527f8b20bff2eaa7065819cba41ebdec523699868d5d2b138a6c09a990be3c9fb318546001600160a01b031660608201526001905b80518314610c7457516000908152600f60209081526040918290208251608081018452815481526001820154928101929092526002810154928201929092526003909101546001600160a01b0316606082015281610c6c816118b4565b925050610c0f565b509392505050565b60018054610c89906118cd565b80601f0160208091040260200160405190810160405280929190818152602001828054610cb5906118cd565b8015610d025780601f10610cd757610100808354040283529160200191610d02565b820191906000526020600020905b815481529060010190602001808311610ce557829003601f168201915b505050505081565b6004544211610d2b5760405162461bcd60e51b815260040161024090611907565b6006546001600160a01b03163314610d555760405162461bcd60e51b81526004016102409061192e565b600554600160a01b900460ff1615610dc95760405162461bcd60e51b815260206004820152603160248201527f61756374696f6e20616c72656164792066696e616c697a65642c2063616e207760448201527069746864726177206f6e6c79206f6e636560781b6064820152608401610240565b6005805460ff60a01b1916600160a01b1790556a6342fd08f00f63780000006000908152600f6020908152604080516080810182527f8b20bff2eaa7065819cba41ebdec523699868d5d2b138a6c09a990be3c9fb3155481527f8b20bff2eaa7065819cba41ebdec523699868d5d2b138a6c09a990be3c9fb31654928101929092527f8b20bff2eaa7065819cba41ebdec523699868d5d2b138a6c09a990be3c9fb31754908201527f8b20bff2eaa7065819cba41ebdec523699868d5d2b138a6c09a990be3c9fb318546001600160a01b0316606082015281905b600e5482610eb1816118b4565b9350108015610ec05750805115155b15610f1f57516000908152600f60209081526040918290208251608081018452815481526001820154928101929092526002810154928201839052600301546001600160a01b0316606082015290610f1890846118a1565b9250610ea4565b60005b601354811015610f86576014600060138381548110610f4357610f43611952565b60009182526020808320909101546001600160a01b03168352820192909252604001902054610f7290856118a1565b935080610f7e816118b4565b915050610f22565b506005546040516000916001600160a01b03169085908381818185875af1925050503d8060008114610fd4576040519150601f19603f3d011682016040523d82523d6000602084013e610fd9565b606091505b505090508061101d5760405162461bcd60e51b815260206004820152601060248201526f2a3930b739b332b9103330b4b632b21760811b6044820152606401610240565b50505050565b6006546001600160a01b0316331461104d5760405162461bcd60e51b81526004016102409061192e565b61105681611477565b50565b600454421161107a5760405162461bcd60e51b815260040161024090611907565b6006546001600160a01b031633146110a45760405162461bcd60e51b81526004016102409061192e565b6007546001600160a01b031660009081526008602052604081208190555b60095481101561105657600060086000600984815481106110e5576110e5611952565b60009182526020808320909101546001600160a01b0316835282019290925260400190205411156111e7576000600860006009848154811061112957611129611952565b60009182526020808320909101546001600160a01b03168352820192909252604001812054600980549193506008918391908690811061116b5761116b611952565b60009182526020808320909101546001600160a01b0316835282019290925260400190205560098054839081106111a4576111a4611952565b60009182526020822001546040516001600160a01b039091169183156108fc02918491818181858888f193505050501580156111e4573d6000803e3d6000fd5b50505b806111f1816118b4565b9150506110c2565b6013818154811061120957600080fd5b6000918252602090912001546001600160a01b0316905081565b60008054610c89906118cd565b600061123b33610aba565b905090565b6006546001600160a01b0316331461126a5760405162461bcd60e51b81526004016102409061192e565b6000610ab682826119b6565b6000818152600f602052604081206002015483116113225760405162461bcd60e51b815260206004820152605b60248201527f796f757220636f6e747269627574696f6e20616e64205f73746172745365617260448201527f636820646f6573206e6f74206d616b652073656e73652c2069742077696c6c2060648201527f73656172636820696e20612077726f6e6720646972656374696f6e0000000000608482015260a401610240565b6000828152600f60209081526040808320815160808082018452825482526001830154828601526002830154828501526003909201546001600160a01b031660608083019190915283519283018452858352938201859052918101849052918201929092525b506020808201516000908152600f82526040908190208151608081018352815481526001820154938101939093526002810154918301829052600301546001600160a01b031660608301528510156113e4575191506113ec9050565b809150611388565b92915050565b6009818154811061120957600080fd5b60045442116114235760405162461bcd60e51b815260040161024090611907565b6007546001600160a01b0316331461146b5760405162461bcd60e51b815260206004820152600b60248201526a37b7363c903bb4b73732b960a91b6044820152606401610240565b6001610ab682826119b6565b6001600160a01b038116600090815260106020526040902054806115115760405162461bcd60e51b8152602060048201526044602482018190527f7468652067757920776974682074686973206164647265737320646f6573206e908201527f6f742065786973742c206d616b6573206e6f2073656e736520746f20776974686064820152636472617760e01b608482015260a401610240565b600061151c83610aba565b9050600e54811161158a5760405162461bcd60e51b815260206004820152603260248201527f6f6e6c7920746865206e6f6e2d77696e6e696e67206d756c7469706c65426964604482015271399031b0b7103132903bb4ba34323930bbb760711b6064820152608401610240565b6000828152600f602081815260408084208151608081018352815480825260018084018054848801818152600287018054878a01526003880180546001600160a01b0390811660608a0152968d529a8a52888c2090940191909155845190518a52868a205593889055928790559186905584546001600160a01b0319169094558716845260109091528220829055600d805491926116278361170a565b909155505060408082015181519081524260208201526001600160a01b038616917f73f04af9dcc582a923ec15d3eea990fe34adabfff2879e28d44572e01a54abb6910160405180910390a260408082015190516001600160a01b0386169180156108fc02916000818181858888f193505050501580156116ac573d6000803e3d6000fd5b5050505050565b60208082526021908201527f63616e6e6f7420626964206166746572207468652061756374696f6e20656e646040820152607360f81b606082015260800190565b634e487b7160e01b600052601160045260246000fd5b600081611719576117196116f4565b506000190190565b60006020828403121561173357600080fd5b5035919050565b60006020828403121561174c57600080fd5b81356001600160a01b038116811461176357600080fd5b9392505050565b600060208083528351808285015260005b818110156117975785810183015185820160400152820161177b565b506000604082860101526040601f19601f8301168501019250505092915050565b634e487b7160e01b600052604160045260246000fd5b6000602082840312156117e057600080fd5b813567ffffffffffffffff808211156117f857600080fd5b818401915084601f83011261180c57600080fd5b81358181111561181e5761181e6117b8565b604051601f8201601f19908116603f01168101908382118183101715611846576118466117b8565b8160405282815287602084870101111561185f57600080fd5b826020860160208301376000928101602001929092525095945050505050565b6000806040838503121561189257600080fd5b50508035926020909101359150565b808201808211156113ec576113ec6116f4565b6000600182016118c6576118c66116f4565b5060010190565b600181811c908216806118e157607f821691505b60208210810361190157634e487b7160e01b600052602260045260246000fd5b50919050565b6020808252600d908201526c1b9bdd08195b991959081e595d609a1b604082015260600190565b6020808252600a908201526937b7363c9037bbb732b960b11b604082015260600190565b634e487b7160e01b600052603260045260246000fd5b601f8211156108de57600081815260208120601f850160051c8101602086101561198f5750805b601f850160051c820191505b818110156119ae5782815560010161199b565b505050505050565b815167ffffffffffffffff8111156119d0576119d06117b8565b6119e4816119de84546118cd565b84611968565b602080601f831160018114611a195760008415611a015750858301515b600019600386901b1c1916600185901b1785556119ae565b600085815260208120601f198616915b82811015611a4857888601518255948401946001909101908401611a29565b5085821015611a665787850151600019600388901b60f8161c191681555b5050505050600190811b0190555056fea2646970667358221220533c9302302b01d8a8e18406ae43e4009d460f17a22609e184b193cf40a83bae64736f6c63430008120033",
  "linkReferences": {},
  "deployedLinkReferences": {}
}