{
  "_format": "hh-sol-artifact-1",
  "contractName": "AuctionMultiple",
  "sourceName": "contracts/AuctionMultiple.sol",
  "abi": [
    {
      "inputs": [
        {
          "internalType": "uint256",
          "name": "_price",
          "type": "uint256"
        },
        {
          "internalType": "string",
          "name": "_description",
          "type": "string"
        },
        {
          "internalType": "uint256",
          "name": "_timestampEnd",
          "type": "uint256"
        },
        {
          "internalType": "address",
          "name": "_beneficiary",
          "type": "address"
        },
        {
          "internalType": "uint256",
          "name": "_howMany",
          "type": "uint256"
        }
      ],
      "stateMutability": "nonpayable",
      "type": "constructor"
    },
    {
      "anonymous": false,
      "inputs": [
        {
          "indexed": true,
          "internalType": "address",
          "name": "winner",
          "type": "address"
        },
        {
          "indexed": true,
          "internalType": "uint256",
          "name": "price",
          "type": "uint256"
        },
        {
          "indexed": true,
          "internalType": "uint256",
          "name": "timestamp",
          "type": "uint256"
        }
      ],
      "name": "BidEvent",
      "type": "event"
    },
    {
      "anonymous": false,
      "inputs": [
        {
          "indexed": false,
          "internalType": "address",
          "name": "addr",
          "type": "address"
        }
      ],
      "name": "LogAddress",
      "type": "event"
    },
    {
      "anonymous": false,
      "inputs": [
        {
          "indexed": false,
          "internalType": "uint256",
          "name": "number",
          "type": "uint256"
        }
      ],
      "name": "LogNumber",
      "type": "event"
    },
    {
      "anonymous": false,
      "inputs": [
        {
          "indexed": false,
          "internalType": "string",
          "name": "text",
          "type": "string"
        }
      ],
      "name": "LogText",
      "type": "event"
    },
    {
      "anonymous": false,
      "inputs": [
        {
          "indexed": true,
          "internalType": "address",
          "name": "addr",
          "type": "address"
        },
        {
          "indexed": false,
          "internalType": "uint256",
          "name": "value",
          "type": "uint256"
        },
        {
          "indexed": false,
          "internalType": "uint256",
          "name": "timestamp",
          "type": "uint256"
        }
      ],
      "name": "Refund",
      "type": "event"
    },
    {
      "inputs": [],
      "name": "HEAD",
      "outputs": [
        {
          "internalType": "uint256",
          "name": "",
          "type": "uint256"
        }
      ],
      "stateMutability": "view",
      "type": "function"
    },
    {
      "inputs": [],
      "name": "LIMIT",
      "outputs": [
        {
          "internalType": "uint256",
          "name": "",
          "type": "uint256"
        }
      ],
      "stateMutability": "view",
      "type": "function"
    },
    {
      "inputs": [],
      "name": "TAIL",
      "outputs": [
        {
          "internalType": "uint256",
          "name": "",
          "type": "uint256"
        }
      ],
      "stateMutability": "view",
      "type": "function"
    },
    {
      "inputs": [],
      "name": "acceptedBids",
      "outputs": [
        {
          "internalType": "uint256",
          "name": "",
          "type": "uint256"
        }
      ],
      "stateMutability": "view",
      "type": "function"
    },
    {
      "inputs": [
        {
          "internalType": "uint256",
          "name": "",
          "type": "uint256"
        }
      ],
      "name": "accountsList",
      "outputs": [
        {
          "internalType": "address",
          "name": "",
          "type": "address"
        }
      ],
      "stateMutability": "view",
      "type": "function"
    },
    {
      "inputs": [],
      "name": "beneficiary",
      "outputs": [
        {
          "internalType": "address",
          "name": "",
          "type": "address"
        }
      ],
      "stateMutability": "view",
      "type": "function"
    },
    {
      "inputs": [],
      "name": "bid",
      "outputs": [],
      "stateMutability": "payable",
      "type": "function"
    },
    {
      "inputs": [
        {
          "internalType": "address",
          "name": "",
          "type": "address"
        }
      ],
      "name": "bids",
      "outputs": [
        {
          "internalType": "uint256",
          "name": "",
          "type": "uint256"
        }
      ],
      "stateMutability": "view",
      "type": "function"
    },
    {
      "inputs": [
        {
          "internalType": "address",
          "name": "",
          "type": "address"
        }
      ],
      "name": "contributors",
      "outputs": [
        {
          "internalType": "uint256",
          "name": "",
          "type": "uint256"
        }
      ],
      "stateMutability": "view",
      "type": "function"
    },
    {
      "inputs": [],
      "name": "description",
      "outputs": [
        {
          "internalType": "string",
          "name": "",
          "type": "string"
        }
      ],
      "stateMutability": "view",
      "type": "function"
    },
    {
      "inputs": [],
      "name": "finalize",
      "outputs": [],
      "stateMutability": "nonpayable",
      "type": "function"
    },
    {
      "inputs": [],
      "name": "finalized",
      "outputs": [
        {
          "internalType": "bool",
          "name": "",
          "type": "bool"
        }
      ],
      "stateMutability": "view",
      "type": "function"
    },
    {
      "inputs": [
        {
          "internalType": "address",
          "name": "addr",
          "type": "address"
        }
      ],
      "name": "getPosition",
      "outputs": [
        {
          "internalType": "uint256",
          "name": "",
          "type": "uint256"
        }
      ],
      "stateMutability": "view",
      "type": "function"
    },
    {
      "inputs": [],
      "name": "getPosition",
      "outputs": [
        {
          "internalType": "uint256",
          "name": "",
          "type": "uint256"
        }
      ],
      "stateMutability": "view",
      "type": "function"
    },
    {
      "inputs": [],
      "name": "howMany",
      "outputs": [
        {
          "internalType": "uint256",
          "name": "",
          "type": "uint256"
        }
      ],
      "stateMutability": "view",
      "type": "function"
    },
    {
      "inputs": [],
      "name": "increaseTimeBy",
      "outputs": [
        {
          "internalType": "uint256",
          "name": "",
          "type": "uint256"
        }
      ],
      "stateMutability": "view",
      "type": "function"
    },
    {
      "inputs": [],
      "name": "increaseTimeIfBidBeforeEnd",
      "outputs": [
        {
          "internalType": "uint256",
          "name": "",
          "type": "uint256"
        }
      ],
      "stateMutability": "view",
      "type": "function"
    },
    {
      "inputs": [],
      "name": "initialPrice",
      "outputs": [
        {
          "internalType": "bool",
          "name": "",
          "type": "bool"
        }
      ],
      "stateMutability": "view",
      "type": "function"
    },
    {
      "inputs": [],
      "name": "instructions",
      "outputs": [
        {
          "internalType": "string",
          "name": "",
          "type": "string"
        }
      ],
      "stateMutability": "view",
      "type": "function"
    },
    {
      "inputs": [],
      "name": "lastBidID",
      "outputs": [
        {
          "internalType": "uint256",
          "name": "",
          "type": "uint256"
        }
      ],
      "stateMutability": "view",
      "type": "function"
    },
    {
      "inputs": [
        {
          "internalType": "uint256",
          "name": "",
          "type": "uint256"
        }
      ],
      "name": "multipleBids",
      "outputs": [
        {
          "internalType": "uint256",
          "name": "prev",
          "type": "uint256"
        },
        {
          "internalType": "uint256",
          "name": "next",
          "type": "uint256"
        },
        {
          "internalType": "uint256",
          "name": "value",
          "type": "uint256"
        },
        {
          "internalType": "address",
          "name": "contributor",
          "type": "address"
        }
      ],
      "stateMutability": "view",
      "type": "function"
    },
    {
      "inputs": [],
      "name": "owner",
      "outputs": [
        {
          "internalType": "address",
          "name": "",
          "type": "address"
        }
      ],
      "stateMutability": "view",
      "type": "function"
    },
    {
      "inputs": [],
      "name": "price",
      "outputs": [
        {
          "internalType": "uint256",
          "name": "",
          "type": "uint256"
        }
      ],
      "stateMutability": "view",
      "type": "function"
    },
    {
      "inputs": [],
      "name": "refund",
      "outputs": [],
      "stateMutability": "nonpayable",
      "type": "function"
    },
    {
      "inputs": [],
      "name": "refundContributors",
      "outputs": [],
      "stateMutability": "nonpayable",
      "type": "function"
    },
    {
      "inputs": [
        {
          "internalType": "address",
          "name": "addr",
          "type": "address"
        }
      ],
      "name": "refundOnBehalf",
      "outputs": [],
      "stateMutability": "nonpayable",
      "type": "function"
    },
    {
      "inputs": [
        {
          "internalType": "uint256",
          "name": "_contribution",
          "type": "uint256"
        },
        {
          "internalType": "uint256",
          "name": "_startSearch",
          "type": "uint256"
        }
      ],
      "name": "searchInsertionPoint",
      "outputs": [
        {
          "internalType": "uint256",
          "name": "insertionPoint",
          "type": "uint256"
        }
      ],
      "stateMutability": "view",
      "type": "function"
    },
    {
      "inputs": [
        {
          "internalType": "string",
          "name": "_description",
          "type": "string"
        }
      ],
      "name": "setDescription",
      "outputs": [],
      "stateMutability": "nonpayable",
      "type": "function"
    },
    {
      "inputs": [
        {
          "internalType": "string",
          "name": "_instructions",
          "type": "string"
        }
      ],
      "name": "setInstructions",
      "outputs": [],
      "stateMutability": "nonpayable",
      "type": "function"
    },
    {
      "inputs": [],
      "name": "timestampEnd",
      "outputs": [
        {
          "internalType": "uint256",
          "name": "",
          "type": "uint256"
        }
      ],
      "stateMutability": "view",
      "type": "function"
    },
    {
      "inputs": [],
      "name": "winner",
      "outputs": [
        {
          "internalType": "address",
          "name": "",
          "type": "address"
        }
      ],
      "stateMutability": "view",
      "type": "function"
    },
    {
      "stateMutability": "payable",
      "type": "receive"
    }
  ],
  "bytecode": "0x60806040526003805460ff191660011790556005805460ff60a01b1916905562015180600a819055600b556000600c819055600d553480156200004157600080fd5b5060405162001de938038062001de98339810160408190526200006491620003c0565b84848484428211620000ce5760405162461bcd60e51b815260206004820152602860248201527f656e64206f66207468652061756374696f6e206d75737420626520696e207468604482015267652066757475726560c01b60648201526084015b60405180910390fd5b600680546001600160a01b0319163317905560028490556000620000f3848262000555565b50600491909155600580546001600160a01b0319166001600160a01b03909216919091179055505060018111620001df5760405162461bcd60e51b815260206004820152607e60248201527f546869732061756374696f6e2069732073756974656420746f206d756c74697060448201527f6c65206974656d732e20576974682031206974656d206f6e6c79202d2075736560648201527f20646966666572656e7420636f64652e204f722072656d6f766520746869732060848201527f277265717569726527202d20796f75277665206265656e207761726e6564000060a482015260c401620000c5565b600e5550506040805160808082018352600080835260208084018281526a6342fd08f00f63780000008587018181526060808801868152838752600f80875298517f8b20bff2eaa7065819cba41ebdec523699868d5d2b138a6c09a990be3c9fb3155593517f8b20bff2eaa7065819cba41ebdec523699868d5d2b138a6c09a990be3c9fb3165590517f8b20bff2eaa7065819cba41ebdec523699868d5d2b138a6c09a990be3c9fb3175591517f8b20bff2eaa7065819cba41ebdec523699868d5d2b138a6c09a990be3c9fb31880546001600160a01b03199081166001600160a01b0393841617909155885196870189528287528685019283529786018581529286018581529480529590925292517ff4803e074bd026baaf6ed2e288c9515f68c72fb7216eebdd7cae1718a53ec37555517ff4803e074bd026baaf6ed2e288c9515f68c72fb7216eebdd7cae1718a53ec3765590517ff4803e074bd026baaf6ed2e288c9515f68c72fb7216eebdd7cae1718a53ec37755517ff4803e074bd026baaf6ed2e288c9515f68c72fb7216eebdd7cae1718a53ec3788054909316911617905550620006219050565b634e487b7160e01b600052604160045260246000fd5b80516001600160a01b0381168114620003bb57600080fd5b919050565b600080600080600060a08688031215620003d957600080fd5b8551602080880151919650906001600160401b0380821115620003fb57600080fd5b818901915089601f8301126200041057600080fd5b8151818111156200042557620004256200038d565b604051601f8201601f19908116603f011681019083821181831017156200045057620004506200038d565b816040528281528c868487010111156200046957600080fd5b600093505b828410156200048d57848401860151818501870152928501926200046e565b600086848301015280995050505050505060408601519250620004b360608701620003a3565b9150608086015190509295509295909350565b600181811c90821680620004db57607f821691505b602082108103620004fc57634e487b7160e01b600052602260045260246000fd5b50919050565b601f8211156200055057600081815260208120601f850160051c810160208610156200052b5750805b601f850160051c820191505b818110156200054c5782815560010162000537565b5050505b505050565b81516001600160401b038111156200057157620005716200038d565b6200058981620005828454620004c6565b8462000502565b602080601f831160018114620005c15760008415620005a85750858301515b600019600386901b1c1916600185901b1785556200054c565b600085815260208120601f198616915b82811015620005f257888601518255948401946001909101908401620005d1565b5085821015620006115787850151600019600388901b60f8161c191681555b5050505050600190811b01905550565b6117b880620006316000396000f3fe6080604052600436106101dc5760003560e01c806362ea82db11610102578063af8214ef11610095578063cb74384011610064578063cb7438401461055d578063cf9b3c8d14610573578063dfbf53ae14610593578063f5738bcd146105b357600080fd5b8063af8214ef146104fb578063b3f05b9714610511578063c628ddc314610532578063c6eeeb041461054757600080fd5b80638da5cb5b116100d15780638da5cb5b1461048557806390c3f38f146104a5578063a035b1fe146104c5578063a9d49f62146104db57600080fd5b806362ea82db1461041857806366aef95b146104455780637284e4161461045b5780637398ab181461047057600080fd5b806330bbb55e1161017a57806356c7f4611161014957806356c7f461146103c257806357f196fa146103d7578063590e1ae3146103ed57806362ab8cc11461040257600080fd5b806330bbb55e1461033357806338af3eed146103555780634bb278f31461038d5780635104cb5c146103a257600080fd5b80631998aeef116101b65780631998aeef146101f35780631a701609146102bd5780631d0806ae146102dc5780631f6d49421461030657600080fd5b8063041abd9f1461020057806314a4e4d61461022957806316c197391461029d57600080fd5b366101fb57346000036101f3576101f16105d3565b005b6101f16105de565b600080fd5b34801561020c57600080fd5b5061021660045481565b6040519081526020015b60405180910390f35b34801561023557600080fd5b50610274610244366004611400565b600f602052600090815260409020805460018201546002830154600390930154919290916001600160a01b031684565b604080519485526020850193909352918301526001600160a01b03166060820152608001610220565b3480156102a957600080fd5b506102166102b8366004611419565b6108db565b3480156102c957600080fd5b506102166a6342fd08f00f637800000081565b3480156102e857600080fd5b506003546102f69060ff1681565b6040519015158152602001610220565b34801561031257600080fd5b50610216610321366004611419565b60106020526000908152604090205481565b34801561033f57600080fd5b50610348610a9d565b6040516102209190611449565b34801561036157600080fd5b50600554610375906001600160a01b031681565b6040516001600160a01b039091168152602001610220565b34801561039957600080fd5b506101f1610b2b565b3480156103ae57600080fd5b506101f16103bd366004611419565b610d80565b3480156103ce57600080fd5b506101f1610db6565b3480156103e357600080fd5b50610216600c5481565b3480156103f957600080fd5b506101f16105d3565b34801561040e57600080fd5b50610216600e5481565b34801561042457600080fd5b50610216610433366004611419565b60086020526000908152604090205481565b34801561045157600080fd5b50610216600a5481565b34801561046757600080fd5b50610348610f56565b34801561047c57600080fd5b50610216610f63565b34801561049157600080fd5b50600654610375906001600160a01b031681565b3480156104b157600080fd5b506101f16104c03660046114ad565b610f73565b3480156104d157600080fd5b5061021660025481565b3480156104e757600080fd5b506102166104f636600461155e565b610fa9565b34801561050757600080fd5b506102166107d081565b34801561051d57600080fd5b506005546102f690600160a01b900460ff1681565b34801561053e57600080fd5b50610216600081565b34801561055357600080fd5b50610216600b5481565b34801561056957600080fd5b50610216600d5481565b34801561057f57600080fd5b5061037561058e366004611400565b611125565b34801561059f57600080fd5b50600754610375906001600160a01b031681565b3480156105bf57600080fd5b506101f16105ce3660046114ad565b61114f565b6105dc336111c4565b565b600454421061063e5760405162461bcd60e51b815260206004820152602160248201527f63616e6e6f7420626964206166746572207468652061756374696f6e20656e646044820152607360f81b60648201526084015b60405180910390fd5b33600090815260106020526040812054908115610704576000828152600f6020526040812060028101805491923492610678908490611596565b909155505060018101546000908152600f602052604090206002908101549082015411156106ff576106b281600201548260010154610fa9565b6001808301805484546000908152600f6020526040808220850183905586549282528082209290925584865584815281812090930180549283905591835282208690559082905284905591505b505050565b60025434101561077c5760405162461bcd60e51b815260206004820152603b60248201527f4e6f74206d7563682073656e73652073656e64696e67206c657373207468616e60448201527f207468652070726963652c206c696b656c7920616e206572726f7200000000006064820152608401610635565b6107d0600c54106108045760405162461bcd60e51b815260206004820152604660248201527f44756520746f20626c6f636b476173206c696d6974207765206c696d6974206e60448201527f756d626572206f662070656f706c6520696e207468652061756374696f6e207460648201526506f20323030360d41b608482015260a401610635565b600c8054906000610814836115a9565b9091555050600d8054906000610829836115a9565b9190505550610839346000610fa9565b600c80543360008181526010602090815260408083208590558051608081018252878152878452600f808452828520600190810180548487019081523485870190815260608601998a529988529290955283862092518355905190820155945160028601559251600390940180546001600160a01b0319166001600160a01b0390951694909417909355925482548452908320819055918390525590505b5050565b6001600160a01b0381166000908152601060205260408120548082036109695760405162461bcd60e51b815260206004820152603960248201527f63616e6e6f742061736b20666f72206120706f736974696f6e206f662061206760448201527f75792077686f206973206e6f74206f6e20746865206c697374000000000000006064820152608401610635565b6a6342fd08f00f6378000000600052600f6020908152604080516080810182527f8b20bff2eaa7065819cba41ebdec523699868d5d2b138a6c09a990be3c9fb3155481527f8b20bff2eaa7065819cba41ebdec523699868d5d2b138a6c09a990be3c9fb31654928101929092527f8b20bff2eaa7065819cba41ebdec523699868d5d2b138a6c09a990be3c9fb31754908201527f8b20bff2eaa7065819cba41ebdec523699868d5d2b138a6c09a990be3c9fb318546001600160a01b031660608201526001905b80518314610a9557516000908152600f60209081526040918290208251608081018452815481526001820154928101929092526002810154928201929092526003909101546001600160a01b0316606082015281610a8d816115a9565b925050610a30565b509392505050565b60018054610aaa906115c2565b80601f0160208091040260200160405190810160405280929190818152602001828054610ad6906115c2565b8015610b235780601f10610af857610100808354040283529160200191610b23565b820191906000526020600020905b815481529060010190602001808311610b0657829003601f168201915b505050505081565b6004544211610b4c5760405162461bcd60e51b8152600401610635906115fc565b6006546001600160a01b03163314610b765760405162461bcd60e51b815260040161063590611623565b600554600160a01b900460ff1615610bea5760405162461bcd60e51b815260206004820152603160248201527f61756374696f6e20616c72656164792066696e616c697a65642c2063616e207760448201527069746864726177206f6e6c79206f6e636560781b6064820152608401610635565b6005805460ff60a01b1916600160a01b1790556a6342fd08f00f63780000006000908152600f6020908152604080516080810182527f8b20bff2eaa7065819cba41ebdec523699868d5d2b138a6c09a990be3c9fb3155481527f8b20bff2eaa7065819cba41ebdec523699868d5d2b138a6c09a990be3c9fb31654928101929092527f8b20bff2eaa7065819cba41ebdec523699868d5d2b138a6c09a990be3c9fb31754908201527f8b20bff2eaa7065819cba41ebdec523699868d5d2b138a6c09a990be3c9fb318546001600160a01b0316606082015281905b600e5482610cd2816115a9565b9350108015610ce15750805115155b15610d4057516000908152600f60209081526040918290208251608081018452815481526001820154928101929092526002810154928201839052600301546001600160a01b0316606082015290610d399084611596565b9250610cc5565b6005546040516001600160a01b039091169084156108fc029085906000818181858888f19350505050158015610d7a573d6000803e3d6000fd5b50505050565b6006546001600160a01b03163314610daa5760405162461bcd60e51b815260040161063590611623565b610db3816111c4565b50565b6004544211610dd75760405162461bcd60e51b8152600401610635906115fc565b6006546001600160a01b03163314610e015760405162461bcd60e51b815260040161063590611623565b6007546001600160a01b031660009081526008602052604081208190555b600954811015610db35760006008600060098481548110610e4257610e42611647565b60009182526020808320909101546001600160a01b031683528201929092526040019020541115610f445760006008600060098481548110610e8657610e86611647565b60009182526020808320909101546001600160a01b031683528201929092526040018120546009805491935060089183919086908110610ec857610ec8611647565b60009182526020808320909101546001600160a01b031683528201929092526040019020556009805483908110610f0157610f01611647565b60009182526020822001546040516001600160a01b039091169183156108fc02918491818181858888f19350505050158015610f41573d6000803e3d6000fd5b50505b80610f4e816115a9565b915050610e1f565b60008054610aaa906115c2565b6000610f6e336108db565b905090565b6006546001600160a01b03163314610f9d5760405162461bcd60e51b815260040161063590611623565b60006108d782826116ab565b6000818152600f602052604081206002015483116110555760405162461bcd60e51b815260206004820152605b60248201527f796f757220636f6e747269627574696f6e20616e64205f73746172745365617260448201527f636820646f6573206e6f74206d616b652073656e73652c2069742077696c6c2060648201527f73656172636820696e20612077726f6e6720646972656374696f6e0000000000608482015260a401610635565b6000828152600f60209081526040808320815160808082018452825482526001830154828601526002830154828501526003909201546001600160a01b031660608083019190915283519283018452858352938201859052918101849052918201929092525b506020808201516000908152600f82526040908190208151608081018352815481526001820154938101939093526002810154918301829052600301546001600160a01b031660608301528510156111175751915061111f9050565b8091506110bb565b92915050565b6009818154811061113557600080fd5b6000918252602090912001546001600160a01b0316905081565b60045442116111705760405162461bcd60e51b8152600401610635906115fc565b6007546001600160a01b031633146111b85760405162461bcd60e51b815260206004820152600b60248201526a37b7363c903bb4b73732b960a91b6044820152606401610635565b60016108d782826116ab565b6001600160a01b0381166000908152601060205260409020548061125e5760405162461bcd60e51b8152602060048201526044602482018190527f7468652067757920776974682074686973206164647265737320646f6573206e908201527f6f742065786973742c206d616b6573206e6f2073656e736520746f20776974686064820152636472617760e01b608482015260a401610635565b6000611269836108db565b9050600e5481116112d75760405162461bcd60e51b815260206004820152603260248201527f6f6e6c7920746865206e6f6e2d77696e6e696e67206d756c7469706c65426964604482015271399031b0b7103132903bb4ba34323930bbb760711b6064820152608401610635565b6000828152600f602081815260408084208151608081018352815480825260018084018054848801818152600287018054878a01526003880180546001600160a01b0390811660608a0152968d529a8a52888c2090940191909155845190518a52868a205593889055928790559186905584546001600160a01b0319169094558716845260109091528220829055600d805491926113748361176b565b909155505060408082015181519081524260208201526001600160a01b038616917f73f04af9dcc582a923ec15d3eea990fe34adabfff2879e28d44572e01a54abb6910160405180910390a260408082015190516001600160a01b0386169180156108fc02916000818181858888f193505050501580156113f9573d6000803e3d6000fd5b5050505050565b60006020828403121561141257600080fd5b5035919050565b60006020828403121561142b57600080fd5b81356001600160a01b038116811461144257600080fd5b9392505050565b600060208083528351808285015260005b818110156114765785810183015185820160400152820161145a565b506000604082860101526040601f19601f8301168501019250505092915050565b634e487b7160e01b600052604160045260246000fd5b6000602082840312156114bf57600080fd5b813567ffffffffffffffff808211156114d757600080fd5b818401915084601f8301126114eb57600080fd5b8135818111156114fd576114fd611497565b604051601f8201601f19908116603f0116810190838211818310171561152557611525611497565b8160405282815287602084870101111561153e57600080fd5b826020860160208301376000928101602001929092525095945050505050565b6000806040838503121561157157600080fd5b50508035926020909101359150565b634e487b7160e01b600052601160045260246000fd5b8082018082111561111f5761111f611580565b6000600182016115bb576115bb611580565b5060010190565b600181811c908216806115d657607f821691505b6020821081036115f657634e487b7160e01b600052602260045260246000fd5b50919050565b6020808252600d908201526c1b9bdd08195b991959081e595d609a1b604082015260600190565b6020808252600a908201526937b7363c9037bbb732b960b11b604082015260600190565b634e487b7160e01b600052603260045260246000fd5b601f8211156106ff57600081815260208120601f850160051c810160208610156116845750805b601f850160051c820191505b818110156116a357828155600101611690565b505050505050565b815167ffffffffffffffff8111156116c5576116c5611497565b6116d9816116d384546115c2565b8461165d565b602080601f83116001811461170e57600084156116f65750858301515b600019600386901b1c1916600185901b1785556116a3565b600085815260208120601f198616915b8281101561173d5788860151825594840194600190910190840161171e565b508582101561175b5787850151600019600388901b60f8161c191681555b5050505050600190811b01905550565b60008161177a5761177a611580565b50600019019056fea26469706673582212209a903ea0f5ac166723e7339386cd174f27c4437ef4c0343bafc7e2777a08ed8764736f6c63430008120033",
  "linkReferences": {},
  "deployedLinkReferences": {}
}