{
  "_format": "hh-sol-artifact-1",
  "contractName": "Auction",
  "sourceName": "contracts/Auction.sol",
  "abi": [
    {
      "inputs": [
        {
          "internalType": "uint256",
          "name": "_price",
          "type": "uint256"
        },
        {
          "internalType": "string",
          "name": "_description",
          "type": "string"
        },
        {
          "internalType": "uint256",
          "name": "_timestampEnd",
          "type": "uint256"
        },
        {
          "internalType": "address",
          "name": "_beneficiary",
          "type": "address"
        }
      ],
      "stateMutability": "nonpayable",
      "type": "constructor"
    },
    {
      "anonymous": false,
      "inputs": [
        {
          "indexed": true,
          "internalType": "address",
          "name": "winner",
          "type": "address"
        },
        {
          "indexed": true,
          "internalType": "uint256",
          "name": "price",
          "type": "uint256"
        },
        {
          "indexed": true,
          "internalType": "uint256",
          "name": "timestamp",
          "type": "uint256"
        }
      ],
      "name": "BidEvent",
      "type": "event"
    },
    {
      "anonymous": false,
      "inputs": [
        {
          "indexed": true,
          "internalType": "address",
          "name": "addr",
          "type": "address"
        },
        {
          "indexed": false,
          "internalType": "uint256",
          "name": "value",
          "type": "uint256"
        },
        {
          "indexed": false,
          "internalType": "uint256",
          "name": "timestamp",
          "type": "uint256"
        }
      ],
      "name": "Refund",
      "type": "event"
    },
    {
      "inputs": [
        {
          "internalType": "uint256",
          "name": "",
          "type": "uint256"
        }
      ],
      "name": "accountsList",
      "outputs": [
        {
          "internalType": "address",
          "name": "",
          "type": "address"
        }
      ],
      "stateMutability": "view",
      "type": "function"
    },
    {
      "inputs": [],
      "name": "beneficiary",
      "outputs": [
        {
          "internalType": "address",
          "name": "",
          "type": "address"
        }
      ],
      "stateMutability": "view",
      "type": "function"
    },
    {
      "inputs": [
        {
          "internalType": "address",
          "name": "",
          "type": "address"
        }
      ],
      "name": "bids",
      "outputs": [
        {
          "internalType": "uint256",
          "name": "",
          "type": "uint256"
        }
      ],
      "stateMutability": "view",
      "type": "function"
    },
    {
      "inputs": [],
      "name": "description",
      "outputs": [
        {
          "internalType": "string",
          "name": "",
          "type": "string"
        }
      ],
      "stateMutability": "view",
      "type": "function"
    },
    {
      "inputs": [],
      "name": "finalize",
      "outputs": [],
      "stateMutability": "nonpayable",
      "type": "function"
    },
    {
      "inputs": [],
      "name": "finalized",
      "outputs": [
        {
          "internalType": "bool",
          "name": "",
          "type": "bool"
        }
      ],
      "stateMutability": "view",
      "type": "function"
    },
    {
      "inputs": [],
      "name": "increaseTimeBy",
      "outputs": [
        {
          "internalType": "uint256",
          "name": "",
          "type": "uint256"
        }
      ],
      "stateMutability": "view",
      "type": "function"
    },
    {
      "inputs": [],
      "name": "increaseTimeIfBidBeforeEnd",
      "outputs": [
        {
          "internalType": "uint256",
          "name": "",
          "type": "uint256"
        }
      ],
      "stateMutability": "view",
      "type": "function"
    },
    {
      "inputs": [],
      "name": "initialPrice",
      "outputs": [
        {
          "internalType": "bool",
          "name": "",
          "type": "bool"
        }
      ],
      "stateMutability": "view",
      "type": "function"
    },
    {
      "inputs": [],
      "name": "instructions",
      "outputs": [
        {
          "internalType": "string",
          "name": "",
          "type": "string"
        }
      ],
      "stateMutability": "view",
      "type": "function"
    },
    {
      "inputs": [],
      "name": "owner",
      "outputs": [
        {
          "internalType": "address",
          "name": "",
          "type": "address"
        }
      ],
      "stateMutability": "view",
      "type": "function"
    },
    {
      "inputs": [],
      "name": "price",
      "outputs": [
        {
          "internalType": "uint256",
          "name": "",
          "type": "uint256"
        }
      ],
      "stateMutability": "view",
      "type": "function"
    },
    {
      "inputs": [],
      "name": "refund",
      "outputs": [],
      "stateMutability": "nonpayable",
      "type": "function"
    },
    {
      "inputs": [],
      "name": "refundContributors",
      "outputs": [],
      "stateMutability": "nonpayable",
      "type": "function"
    },
    {
      "inputs": [
        {
          "internalType": "string",
          "name": "_description",
          "type": "string"
        }
      ],
      "name": "setDescription",
      "outputs": [],
      "stateMutability": "nonpayable",
      "type": "function"
    },
    {
      "inputs": [
        {
          "internalType": "string",
          "name": "_instructions",
          "type": "string"
        }
      ],
      "name": "setInstructions",
      "outputs": [],
      "stateMutability": "nonpayable",
      "type": "function"
    },
    {
      "inputs": [],
      "name": "timestampEnd",
      "outputs": [
        {
          "internalType": "uint256",
          "name": "",
          "type": "uint256"
        }
      ],
      "stateMutability": "view",
      "type": "function"
    },
    {
      "inputs": [],
      "name": "winner",
      "outputs": [
        {
          "internalType": "address",
          "name": "",
          "type": "address"
        }
      ],
      "stateMutability": "view",
      "type": "function"
    },
    {
      "stateMutability": "payable",
      "type": "receive"
    }
  ],
  "bytecode": "0x60806040526003805460ff191660011790556005805460ff60a01b1916905562015180600a819055600b553480156200003757600080fd5b50604051620012e1380380620012e18339810160408190526200005a9162000146565b428211620000bf5760405162461bcd60e51b815260206004820152602860248201527f656e64206f66207468652061756374696f6e206d75737420626520696e207468604482015267652066757475726560c01b606482015260840160405180910390fd5b600680546001600160a01b0319163317905560028490556000620000e48482620002d1565b50600491909155600580546001600160a01b0319166001600160a01b03909216919091179055506200039d9050565b634e487b7160e01b600052604160045260246000fd5b80516001600160a01b03811681146200014157600080fd5b919050565b600080600080608085870312156200015d57600080fd5b8451602080870151919550906001600160401b03808211156200017f57600080fd5b818801915088601f8301126200019457600080fd5b815181811115620001a957620001a962000113565b604051601f8201601f19908116603f01168101908382118183101715620001d457620001d462000113565b816040528281528b86848701011115620001ed57600080fd5b600093505b82841015620002115784840186015181850187015292850192620001f2565b600086848301015280985050505050505060408501519150620002376060860162000129565b905092959194509250565b600181811c908216806200025757607f821691505b6020821081036200027857634e487b7160e01b600052602260045260246000fd5b50919050565b601f821115620002cc57600081815260208120601f850160051c81016020861015620002a75750805b601f850160051c820191505b81811015620002c857828155600101620002b3565b5050505b505050565b81516001600160401b03811115620002ed57620002ed62000113565b6200030581620002fe845462000242565b846200027e565b602080601f8311600181146200033d5760008415620003245750858301515b600019600386901b1c1916600185901b178555620002c8565b600085815260208120601f198616915b828110156200036e578886015182559484019460019091019084016200034d565b50858210156200038d5787850151600019600388901b60f8161c191681555b5050505050600190811b01905550565b610f3480620003ad6000396000f3fe60806040526004361061010d5760003560e01c80637284e41611610095578063b3f05b9711610064578063b3f05b971461052a578063c6eeeb041461054b578063cf9b3c8d14610561578063dfbf53ae14610581578063f5738bcd146105a157600080fd5b80637284e416146104bf5780638da5cb5b146104d457806390c3f38f146104f4578063a035b1fe1461051457600080fd5b80634bb278f3116100dc5780634bb278f31461043d57806356c7f46114610452578063590e1ae31461046757806362ea82db1461047c57806366aef95b146104a957600080fd5b8063041abd9f146103905780631d0806ae146103b957806330bbb55e146103e357806338af3eed1461040557600080fd5b3661038b5734600003610124576101226105c1565b005b600454421061016e5760405162461bcd60e51b8152602060048201526011602482015270185d58dd1a5bdb881a185cc8195b991959607a1b60448201526064015b60405180910390fd5b33600090815260086020526040902054156101ad5733600090815260086020526040812080543492906101a2908490610b78565b909155506101ff9050565b3360008181526008602052604081203490556009805460018101825591527f6e1540171b6c0c960b71a7020d9f60077f6af931a8bbf590da0223dacf75c7af0180546001600160a01b03191690911790555b60035460ff16156102825760025433600090815260086020526040902054101561027d5760405162461bcd60e51b815260206004820152602960248201527f62696420746f6f206c6f772c206d696e696d756d2069732074686520696e697460448201526869616c20707269636560b81b6064820152608401610165565b610306565b600460025460056102939190610b91565b61029d9190610ba8565b3360009081526008602052604090205410156103065760405162461bcd60e51b815260206004820152602260248201527f62696420746f6f206c6f772c206d696e696d756d2032352520696e6372656d656044820152611b9d60f21b6064820152608401610165565b600a546004546103169190610bca565b42111561032e57600b5461032a9042610b78565b6004555b6003805460ff1916905533600081815260086020526040808220546002819055600780546001600160a01b031916851790559051429391927f8af6b8ce9e717802e71d82fde14340886903c7ba4a5513f0a177b5ae534066bf91a4005b600080fd5b34801561039c57600080fd5b506103a660045481565b6040519081526020015b60405180910390f35b3480156103c557600080fd5b506003546103d39060ff1681565b60405190151581526020016103b0565b3480156103ef57600080fd5b506103f8610700565b6040516103b09190610bdd565b34801561041157600080fd5b50600554610425906001600160a01b031681565b6040516001600160a01b0390911681526020016103b0565b34801561044957600080fd5b5061012261078e565b34801561045e57600080fd5b506101226108dc565b34801561047357600080fd5b506101226105c1565b34801561048857600080fd5b506103a6610497366004610c2b565b60086020526000908152604090205481565b3480156104b557600080fd5b506103a6600a5481565b3480156104cb57600080fd5b506103f8610a7c565b3480156104e057600080fd5b50600654610425906001600160a01b031681565b34801561050057600080fd5b5061012261050f366004610c71565b610a89565b34801561052057600080fd5b506103a660025481565b34801561053657600080fd5b506005546103d390600160a01b900460ff1681565b34801561055757600080fd5b506103a6600b5481565b34801561056d57600080fd5b5061042561057c366004610d22565b610ac3565b34801561058d57600080fd5b50600754610425906001600160a01b031681565b3480156105ad57600080fd5b506101226105bc366004610c71565b610aed565b6007546001600160a01b031633036106125760405162461bcd60e51b81526020600482015260146024820152731dda5b9b995c8818d85b9b9bdd081c99599d5b9960621b6044820152606401610165565b336000908152600860205260409020546106815760405162461bcd60e51b815260206004820152602a60248201527f726566756e6473206f6e6c7920616c6c6f77656420696620796f752073656e7460448201526920736f6d657468696e6760b01b6064820152608401610165565b33600081815260086020526040808220805490839055905190929183156108fc02918491818181858888f193505050501580156106c2573d6000803e3d6000fd5b506040805182815242602082015233917f73f04af9dcc582a923ec15d3eea990fe34adabfff2879e28d44572e01a54abb6910160405180910390a250565b6001805461070d90610d3b565b80601f016020809104026020016040519081016040528092919081815260200182805461073990610d3b565b80156107865780601f1061075b57610100808354040283529160200191610786565b820191906000526020600020905b81548152906001019060200180831161076957829003601f168201915b505050505081565b60045442116107af5760405162461bcd60e51b815260040161016590610d75565b6006546001600160a01b031633146107d95760405162461bcd60e51b815260040161016590610d9c565b600554600160a01b900460ff161561082c5760405162461bcd60e51b815260206004820152601660248201527563616e207769746864726177206f6e6c79206f6e636560501b6044820152606401610165565b60035460ff161561088b5760405162461bcd60e51b8152602060048201526024808201527f63616e207769746864726177206f6e6c792069662074686572652077657265206044820152636269647360e01b6064820152608401610165565b6005805460ff60a01b198116600160a01b179091556002546040516001600160a01b039092169181156108fc0291906000818181858888f193505050501580156108d9573d6000803e3d6000fd5b50565b60045442116108fd5760405162461bcd60e51b815260040161016590610d75565b6006546001600160a01b031633146109275760405162461bcd60e51b815260040161016590610d9c565b6007546001600160a01b031660009081526008602052604081208190555b6009548110156108d9576000600860006009848154811061096857610968610dc0565b60009182526020808320909101546001600160a01b031683528201929092526040019020541115610a6a57600060086000600984815481106109ac576109ac610dc0565b60009182526020808320909101546001600160a01b0316835282019290925260400181205460098054919350600891839190869081106109ee576109ee610dc0565b60009182526020808320909101546001600160a01b031683528201929092526040019020556009805483908110610a2757610a27610dc0565b60009182526020822001546040516001600160a01b039091169183156108fc02918491818181858888f19350505050158015610a67573d6000803e3d6000fd5b50505b80610a7481610dd6565b915050610945565b6000805461070d90610d3b565b6006546001600160a01b03163314610ab35760405162461bcd60e51b815260040161016590610d9c565b6000610abf8282610e3e565b5050565b60098181548110610ad357600080fd5b6000918252602090912001546001600160a01b0316905081565b6004544211610b0e5760405162461bcd60e51b815260040161016590610d75565b6007546001600160a01b03163314610b565760405162461bcd60e51b815260206004820152600b60248201526a37b7363c903bb4b73732b960a91b6044820152606401610165565b6001610abf8282610e3e565b634e487b7160e01b600052601160045260246000fd5b80820180821115610b8b57610b8b610b62565b92915050565b8082028115828204841417610b8b57610b8b610b62565b600082610bc557634e487b7160e01b600052601260045260246000fd5b500490565b81810381811115610b8b57610b8b610b62565b600060208083528351808285015260005b81811015610c0a57858101830151858201604001528201610bee565b506000604082860101526040601f19601f8301168501019250505092915050565b600060208284031215610c3d57600080fd5b81356001600160a01b0381168114610c5457600080fd5b9392505050565b634e487b7160e01b600052604160045260246000fd5b600060208284031215610c8357600080fd5b813567ffffffffffffffff80821115610c9b57600080fd5b818401915084601f830112610caf57600080fd5b813581811115610cc157610cc1610c5b565b604051601f8201601f19908116603f01168101908382118183101715610ce957610ce9610c5b565b81604052828152876020848701011115610d0257600080fd5b826020860160208301376000928101602001929092525095945050505050565b600060208284031215610d3457600080fd5b5035919050565b600181811c90821680610d4f57607f821691505b602082108103610d6f57634e487b7160e01b600052602260045260246000fd5b50919050565b6020808252600d908201526c1b9bdd08195b991959081e595d609a1b604082015260600190565b6020808252600a908201526937b7363c9037bbb732b960b11b604082015260600190565b634e487b7160e01b600052603260045260246000fd5b600060018201610de857610de8610b62565b5060010190565b601f821115610e3957600081815260208120601f850160051c81016020861015610e165750805b601f850160051c820191505b81811015610e3557828155600101610e22565b5050505b505050565b815167ffffffffffffffff811115610e5857610e58610c5b565b610e6c81610e668454610d3b565b84610def565b602080601f831160018114610ea15760008415610e895750858301515b600019600386901b1c1916600185901b178555610e35565b600085815260208120601f198616915b82811015610ed057888601518255948401946001909101908401610eb1565b5085821015610eee5787850151600019600388901b60f8161c191681555b5050505050600190811b0190555056fea2646970667358221220296b1ae2d4ad4660ce8d6cb0a97ea3ae204898b0928be852e51ca6b067e993c364736f6c63430008120033",
  "linkReferences": {},
  "deployedLinkReferences": {}
}