{"contracts/AuctionMultiple.sol":{"AuctionMultiple":{"abi":[{"inputs":[{"internalType":"uint256","name":"_price","type":"uint256"},{"internalType":"string","name":"_description","type":"string"},{"internalType":"uint256","name":"_timestampEnd","type":"uint256"},{"internalType":"address","name":"_beneficiary","type":"address"},{"internalType":"uint256","name":"_howMany","type":"uint256"}],"stateMutability":"nonpayable","type":"constructor"},{"anonymous":false,"inputs":[{"indexed":true,"internalType":"address","name":"winner","type":"address"},{"indexed":true,"internalType":"uint256","name":"price","type":"uint256"},{"indexed":true,"internalType":"uint256","name":"timestamp","type":"uint256"}],"name":"BidEvent","type":"event"},{"anonymous":false,"inputs":[{"indexed":false,"internalType":"address","name":"addr","type":"address"}],"name":"LogAddress","type":"event"},{"anonymous":false,"inputs":[{"indexed":false,"internalType":"uint256","name":"number","type":"uint256"}],"name":"LogNumber","type":"event"},{"anonymous":false,"inputs":[{"indexed":false,"internalType":"string","name":"text","type":"string"}],"name":"LogText","type":"event"},{"anonymous":false,"inputs":[{"indexed":true,"internalType":"address","name":"addr","type":"address"},{"indexed":false,"internalType":"uint256","name":"value","type":"uint256"},{"indexed":false,"internalType":"uint256","name":"timestamp","type":"uint256"}],"name":"Refund","type":"event"},{"inputs":[],"name":"HEAD","outputs":[{"internalType":"uint256","name":"","type":"uint256"}],"stateMutability":"view","type":"function"},{"inputs":[],"name":"LIMIT","outputs":[{"internalType":"uint256","name":"","type":"uint256"}],"stateMutability":"view","type":"function"},{"inputs":[],"name":"TAIL","outputs":[{"internalType":"uint256","name":"","type":"uint256"}],"stateMutability":"view","type":"function"},{"inputs":[],"name":"acceptedBids","outputs":[{"internalType":"uint256","name":"","type":"uint256"}],"stateMutability":"view","type":"function"},{"inputs":[{"internalType":"uint256","name":"","type":"uint256"}],"name":"accountsList","outputs":[{"internalType":"address","name":"","type":"address"}],"stateMutability":"view","type":"function"},{"inputs":[],"name":"beneficiary","outputs":[{"internalType":"address","name":"","type":"address"}],"stateMutability":"view","type":"function"},{"inputs":[],"name":"bid","outputs":[],"stateMutability":"payable","type":"function"},{"inputs":[{"internalType":"address","name":"","type":"address"}],"name":"bids","outputs":[{"internalType":"uint256","name":"","type":"uint256"}],"stateMutability":"view","type":"function"},{"inputs":[{"internalType":"address","name":"","type":"address"}],"name":"contributors","outputs":[{"internalType":"uint256","name":"","type":"uint256"}],"stateMutability":"view","type":"function"},{"inputs":[],"name":"description","outputs":[{"internalType":"string","name":"","type":"string"}],"stateMutability":"view","type":"function"},{"inputs":[],"name":"finalize","outputs":[],"stateMutability":"nonpayable","type":"function"},{"inputs":[],"name":"finalized","outputs":[{"internalType":"bool","name":"","type":"bool"}],"stateMutability":"view","type":"function"},{"inputs":[{"internalType":"address","name":"addr","type":"address"}],"name":"getPosition","outputs":[{"internalType":"uint256","name":"","type":"uint256"}],"stateMutability":"view","type":"function"},{"inputs":[],"name":"getPosition","outputs":[{"internalType":"uint256","name":"","type":"uint256"}],"stateMutability":"view","type":"function"},{"inputs":[],"name":"howMany","outputs":[{"internalType":"uint256","name":"","type":"uint256"}],"stateMutability":"view","type":"function"},{"inputs":[],"name":"increaseTimeBy","outputs":[{"internalType":"uint256","name":"","type":"uint256"}],"stateMutability":"view","type":"function"},{"inputs":[],"name":"increaseTimeIfBidBeforeEnd","outputs":[{"internalType":"uint256","name":"","type":"uint256"}],"stateMutability":"view","type":"function"},{"inputs":[],"name":"initialPrice","outputs":[{"internalType":"bool","name":"","type":"bool"}],"stateMutability":"view","type":"function"},{"inputs":[],"name":"instructions","outputs":[{"internalType":"string","name":"","type":"string"}],"stateMutability":"view","type":"function"},{"inputs":[],"name":"lastBidID","outputs":[{"internalType":"uint256","name":"","type":"uint256"}],"stateMutability":"view","type":"function"},{"inputs":[{"internalType":"uint256","name":"","type":"uint256"}],"name":"multipleBids","outputs":[{"internalType":"uint256","name":"prev","type":"uint256"},{"internalType":"uint256","name":"next","type":"uint256"},{"internalType":"uint256","name":"value","type":"uint256"},{"internalType":"address","name":"contributor","type":"address"}],"stateMutability":"view","type":"function"},{"inputs":[],"name":"owner","outputs":[{"internalType":"address","name":"","type":"address"}],"stateMutability":"view","type":"function"},{"inputs":[],"name":"price","outputs":[{"internalType":"uint256","name":"","type":"uint256"}],"stateMutability":"view","type":"function"},{"inputs":[],"name":"refund","outputs":[],"stateMutability":"nonpayable","type":"function"},{"inputs":[],"name":"refundContributors","outputs":[],"stateMutability":"nonpayable","type":"function"},{"inputs":[{"internalType":"address","name":"addr","type":"address"}],"name":"refundOnBehalf","outputs":[],"stateMutability":"nonpayable","type":"function"},{"inputs":[{"internalType":"uint256","name":"_contribution","type":"uint256"},{"internalType":"uint256","name":"_startSearch","type":"uint256"}],"name":"searchInsertionPoint","outputs":[{"internalType":"uint256","name":"insertionPoint","type":"uint256"}],"stateMutability":"view","type":"function"},{"inputs":[{"internalType":"string","name":"_description","type":"string"}],"name":"setDescription","outputs":[],"stateMutability":"nonpayable","type":"function"},{"inputs":[{"internalType":"string","name":"_instructions","type":"string"}],"name":"setInstructions","outputs":[],"stateMutability":"nonpayable","type":"function"},{"inputs":[],"name":"timestampEnd","outputs":[{"internalType":"uint256","name":"","type":"uint256"}],"stateMutability":"view","type":"function"},{"inputs":[],"name":"winner","outputs":[{"internalType":"address","name":"","type":"address"}],"stateMutability":"view","type":"function"},{"stateMutability":"payable","type":"receive"}],"evm":{"bytecode":{"linkReferences":{},"object":"60806040526003805460ff191660011790556005805460ff60a01b1916905562015180600a819055600b556000600c819055600d819055600f553480156200004657600080fd5b5060405162001dea38038062001dea8339810160408190526200006991620003c5565b84848484428211620000d35760405162461bcd60e51b815260206004820152602860248201527f656e64206f66207468652061756374696f6e206d75737420626520696e207468604482015267652066757475726560c01b60648201526084015b60405180910390fd5b600680546001600160a01b0319163317905560028490556000620000f884826200055a565b50600491909155600580546001600160a01b0319166001600160a01b03909216919091179055505060018111620001e45760405162461bcd60e51b815260206004820152607e60248201527f546869732061756374696f6e2069732073756974656420746f206d756c74697060448201527f6c65206974656d732e20576974682031206974656d206f6e6c79202d2075736560648201527f20646966666572656e7420636f64652e204f722072656d6f766520746869732060848201527f277265717569726527202d20796f75277665206265656e207761726e6564000060a482015260c401620000ca565b600e5550506040805160808082018352600080835260208084018281526a6342fd08f00f63780000008587018181526060808801868152838752601080875298517f4193530f6c284e7b0a4b615c0de01680c53039e6f8a59bdb9d7393e1b9ee7c145593517f4193530f6c284e7b0a4b615c0de01680c53039e6f8a59bdb9d7393e1b9ee7c155590517f4193530f6c284e7b0a4b615c0de01680c53039e6f8a59bdb9d7393e1b9ee7c165591517f4193530f6c284e7b0a4b615c0de01680c53039e6f8a59bdb9d7393e1b9ee7c1780546001600160a01b03199081166001600160a01b0393841617909155885196870189528287528685019283529786018581529286018581529480529590925292517f6e0956cda88cad152e89927e53611735b61a5c762d1428573c6931b0a5efcb0155517f6e0956cda88cad152e89927e53611735b61a5c762d1428573c6931b0a5efcb025590517f6e0956cda88cad152e89927e53611735b61a5c762d1428573c6931b0a5efcb0355517f6e0956cda88cad152e89927e53611735b61a5c762d1428573c6931b0a5efcb048054909316911617905550620006269050565b634e487b7160e01b600052604160045260246000fd5b80516001600160a01b0381168114620003c057600080fd5b919050565b600080600080600060a08688031215620003de57600080fd5b8551602080880151919650906001600160401b03808211156200040057600080fd5b818901915089601f8301126200041557600080fd5b8151818111156200042a576200042a62000392565b604051601f8201601f19908116603f0116810190838211818310171562000455576200045562000392565b816040528281528c868487010111156200046e57600080fd5b600093505b8284101562000492578484018601518185018701529285019262000473565b600086848301015280995050505050505060408601519250620004b860608701620003a8565b9150608086015190509295509295909350565b600181811c90821680620004e057607f821691505b6020821081036200050157634e487b7160e01b600052602260045260246000fd5b50919050565b601f8211156200055557600081815260208120601f850160051c81016020861015620005305750805b601f850160051c820191505b8181101562000551578281556001016200053c565b5050505b505050565b81516001600160401b0381111562000576576200057662000392565b6200058e81620005878454620004cb565b8462000507565b602080601f831160018114620005c65760008415620005ad5750858301515b600019600386901b1c1916600185901b17855562000551565b600085815260208120601f198616915b82811015620005f757888601518255948401946001909101908401620005d6565b5085821015620006165787850151600019600388901b60f8161c191681555b5050505050600190811b01905550565b6117b480620006366000396000f3fe6080604052600436106101dc5760003560e01c806362ea82db11610102578063af8214ef11610095578063cb74384011610064578063cb7438401461055d578063cf9b3c8d14610573578063dfbf53ae14610593578063f5738bcd146105b357600080fd5b8063af8214ef146104fb578063b3f05b9714610511578063c628ddc314610532578063c6eeeb041461054757600080fd5b80638da5cb5b116100d15780638da5cb5b1461048557806390c3f38f146104a5578063a035b1fe146104c5578063a9d49f62146104db57600080fd5b806362ea82db1461041857806366aef95b146104455780637284e4161461045b5780637398ab181461047057600080fd5b806330bbb55e1161017a57806356c7f4611161014957806356c7f461146103c257806357f196fa146103d7578063590e1ae3146103ed57806362ab8cc11461040257600080fd5b806330bbb55e1461033357806338af3eed146103555780634bb278f31461038d5780635104cb5c146103a257600080fd5b80631998aeef116101b65780631998aeef146101f35780631a701609146102bd5780631d0806ae146102dc5780631f6d49421461030657600080fd5b8063041abd9f1461020057806314a4e4d61461022957806316c197391461029d57600080fd5b366101fb57346000036101f3576101f16105d3565b005b6101f16105de565b600080fd5b34801561020c57600080fd5b5061021660045481565b6040519081526020015b60405180910390f35b34801561023557600080fd5b506102746102443660046113fc565b6010602052600090815260409020805460018201546002830154600390930154919290916001600160a01b031684565b604080519485526020850193909352918301526001600160a01b03166060820152608001610220565b3480156102a957600080fd5b506102166102b8366004611415565b6108db565b3480156102c957600080fd5b506102166a6342fd08f00f637800000081565b3480156102e857600080fd5b506003546102f69060ff1681565b6040519015158152602001610220565b34801561031257600080fd5b50610216610321366004611415565b60116020526000908152604090205481565b34801561033f57600080fd5b50610348610a9d565b6040516102209190611445565b34801561036157600080fd5b50600554610375906001600160a01b031681565b6040516001600160a01b039091168152602001610220565b34801561039957600080fd5b506101f1610b2b565b3480156103ae57600080fd5b506101f16103bd366004611415565b610d80565b3480156103ce57600080fd5b506101f1610db6565b3480156103e357600080fd5b50610216600c5481565b3480156103f957600080fd5b506101f16105d3565b34801561040e57600080fd5b50610216600e5481565b34801561042457600080fd5b50610216610433366004611415565b60086020526000908152604090205481565b34801561045157600080fd5b50610216600a5481565b34801561046757600080fd5b50610348610f56565b34801561047c57600080fd5b50610216610f63565b34801561049157600080fd5b50600654610375906001600160a01b031681565b3480156104b157600080fd5b506101f16104c03660046114a9565b610f73565b3480156104d157600080fd5b5061021660025481565b3480156104e757600080fd5b506102166104f636600461155a565b610fa9565b34801561050757600080fd5b506102166107d081565b34801561051d57600080fd5b506005546102f690600160a01b900460ff1681565b34801561053e57600080fd5b50610216600081565b34801561055357600080fd5b50610216600b5481565b34801561056957600080fd5b50610216600d5481565b34801561057f57600080fd5b5061037561058e3660046113fc565b611125565b34801561059f57600080fd5b50600754610375906001600160a01b031681565b3480156105bf57600080fd5b506101f16105ce3660046114a9565b61114f565b6105dc336111c4565b565b600454421061063e5760405162461bcd60e51b815260206004820152602160248201527f63616e6e6f7420626964206166746572207468652061756374696f6e20656e646044820152607360f81b60648201526084015b60405180910390fd5b3360009081526011602052604081205490811561070457600082815260106020526040812060028101805491923492610678908490611592565b9091555050600181015460009081526010602052604090206002908101549082015411156106ff576106b281600201548260010154610fa9565b600180830180548454600090815260106020526040808220850183905586549282528082209290925584865584815281812090930180549283905591835282208690559082905284905591505b505050565b60025434101561077c5760405162461bcd60e51b815260206004820152603b60248201527f4e6f74206d7563682073656e73652073656e64696e67206c657373207468616e60448201527f207468652070726963652c206c696b656c7920616e206572726f7200000000006064820152608401610635565b6107d0600c54106108045760405162461bcd60e51b815260206004820152604660248201527f44756520746f20626c6f636b476173206c696d6974207765206c696d6974206e60448201527f756d626572206f662070656f706c6520696e207468652061756374696f6e207460648201526506f20323030360d41b608482015260a401610635565b600c8054906000610814836115a5565b9091555050600d8054906000610829836115a5565b9190505550610839346000610fa9565b600c805433600081815260116020908152604080832085905580516080810182528781528784526010808452828520600190810180548487019081523485870190815260608601998a529988529290955283862092518355905190820155945160028601559251600390940180546001600160a01b0319166001600160a01b0390951694909417909355925482548452908320819055918390525590505b5050565b6001600160a01b0381166000908152601160205260408120548082036109695760405162461bcd60e51b815260206004820152603960248201527f63616e6e6f742061736b20666f72206120706f736974696f6e206f662061206760448201527f75792077686f206973206e6f74206f6e20746865206c697374000000000000006064820152608401610635565b6a6342fd08f00f637800000060005260106020908152604080516080810182527f4193530f6c284e7b0a4b615c0de01680c53039e6f8a59bdb9d7393e1b9ee7c145481527f4193530f6c284e7b0a4b615c0de01680c53039e6f8a59bdb9d7393e1b9ee7c1554928101929092527f4193530f6c284e7b0a4b615c0de01680c53039e6f8a59bdb9d7393e1b9ee7c1654908201527f4193530f6c284e7b0a4b615c0de01680c53039e6f8a59bdb9d7393e1b9ee7c17546001600160a01b031660608201526001905b80518314610a9557516000908152601060209081526040918290208251608081018452815481526001820154928101929092526002810154928201929092526003909101546001600160a01b0316606082015281610a8d816115a5565b925050610a30565b509392505050565b60018054610aaa906115be565b80601f0160208091040260200160405190810160405280929190818152602001828054610ad6906115be565b8015610b235780601f10610af857610100808354040283529160200191610b23565b820191906000526020600020905b815481529060010190602001808311610b0657829003601f168201915b505050505081565b6004544211610b4c5760405162461bcd60e51b8152600401610635906115f8565b6006546001600160a01b03163314610b765760405162461bcd60e51b81526004016106359061161f565b600554600160a01b900460ff1615610bea5760405162461bcd60e51b815260206004820152603160248201527f61756374696f6e20616c72656164792066696e616c697a65642c2063616e207760448201527069746864726177206f6e6c79206f6e636560781b6064820152608401610635565b6005805460ff60a01b1916600160a01b1790556a6342fd08f00f6378000000600090815260106020908152604080516080810182527f4193530f6c284e7b0a4b615c0de01680c53039e6f8a59bdb9d7393e1b9ee7c145481527f4193530f6c284e7b0a4b615c0de01680c53039e6f8a59bdb9d7393e1b9ee7c1554928101929092527f4193530f6c284e7b0a4b615c0de01680c53039e6f8a59bdb9d7393e1b9ee7c1654908201527f4193530f6c284e7b0a4b615c0de01680c53039e6f8a59bdb9d7393e1b9ee7c17546001600160a01b0316606082015281905b600e5482610cd2816115a5565b9350108015610ce15750805115155b15610d4057516000908152601060209081526040918290208251608081018452815481526001820154928101929092526002810154928201839052600301546001600160a01b0316606082015290610d399084611592565b9250610cc5565b6005546040516001600160a01b039091169084156108fc029085906000818181858888f19350505050158015610d7a573d6000803e3d6000fd5b50505050565b6006546001600160a01b03163314610daa5760405162461bcd60e51b81526004016106359061161f565b610db3816111c4565b50565b6004544211610dd75760405162461bcd60e51b8152600401610635906115f8565b6006546001600160a01b03163314610e015760405162461bcd60e51b81526004016106359061161f565b6007546001600160a01b031660009081526008602052604081208190555b600954811015610db35760006008600060098481548110610e4257610e42611643565b60009182526020808320909101546001600160a01b031683528201929092526040019020541115610f445760006008600060098481548110610e8657610e86611643565b60009182526020808320909101546001600160a01b031683528201929092526040018120546009805491935060089183919086908110610ec857610ec8611643565b60009182526020808320909101546001600160a01b031683528201929092526040019020556009805483908110610f0157610f01611643565b60009182526020822001546040516001600160a01b039091169183156108fc02918491818181858888f19350505050158015610f41573d6000803e3d6000fd5b50505b80610f4e816115a5565b915050610e1f565b60008054610aaa906115be565b6000610f6e336108db565b905090565b6006546001600160a01b03163314610f9d5760405162461bcd60e51b81526004016106359061161f565b60006108d782826116a7565b60008181526010602052604081206002015483116110555760405162461bcd60e51b815260206004820152605b60248201527f796f757220636f6e747269627574696f6e20616e64205f73746172745365617260448201527f636820646f6573206e6f74206d616b652073656e73652c2069742077696c6c2060648201527f73656172636820696e20612077726f6e6720646972656374696f6e0000000000608482015260a401610635565b6000828152601060209081526040808320815160808082018452825482526001830154828601526002830154828501526003909201546001600160a01b031660608083019190915283519283018452858352938201859052918101849052918201929092525b506020808201516000908152601082526040908190208151608081018352815481526001820154938101939093526002810154918301829052600301546001600160a01b031660608301528510156111175751915061111f9050565b8091506110bb565b92915050565b6009818154811061113557600080fd5b6000918252602090912001546001600160a01b0316905081565b60045442116111705760405162461bcd60e51b8152600401610635906115f8565b6007546001600160a01b031633146111b85760405162461bcd60e51b815260206004820152600b60248201526a37b7363c903bb4b73732b960a91b6044820152606401610635565b60016108d782826116a7565b6001600160a01b0381166000908152601160205260409020548061125e5760405162461bcd60e51b8152602060048201526044602482018190527f7468652067757920776974682074686973206164647265737320646f6573206e908201527f6f742065786973742c206d616b6573206e6f2073656e736520746f20776974686064820152636472617760e01b608482015260a401610635565b6000611269836108db565b9050600e5481116112d75760405162461bcd60e51b815260206004820152603260248201527f6f6e6c7920746865206e6f6e2d77696e6e696e67206d756c7469706c65426964604482015271399031b0b7103132903bb4ba34323930bbb760711b6064820152608401610635565b60008281526010602081815260408084208151608081018352815480825260018084018054848801818152600287018054878a01526003880180546001600160a01b03166060890152958c52998952878b20909301558351915189528589209190915592879055918690559385905580546001600160a01b031916905533845260119091528220829055600d8054919261137083611767565b909155505060408082015181519081524260208201526001600160a01b038616917f73f04af9dcc582a923ec15d3eea990fe34adabfff2879e28d44572e01a54abb6910160405180910390a260408082015190516001600160a01b0386169180156108fc02916000818181858888f193505050501580156113f5573d6000803e3d6000fd5b5050505050565b60006020828403121561140e57600080fd5b5035919050565b60006020828403121561142757600080fd5b81356001600160a01b038116811461143e57600080fd5b9392505050565b600060208083528351808285015260005b8181101561147257858101830151858201604001528201611456565b506000604082860101526040601f19601f8301168501019250505092915050565b634e487b7160e01b600052604160045260246000fd5b6000602082840312156114bb57600080fd5b813567ffffffffffffffff808211156114d357600080fd5b818401915084601f8301126114e757600080fd5b8135818111156114f9576114f9611493565b604051601f8201601f19908116603f0116810190838211818310171561152157611521611493565b8160405282815287602084870101111561153a57600080fd5b826020860160208301376000928101602001929092525095945050505050565b6000806040838503121561156d57600080fd5b50508035926020909101359150565b634e487b7160e01b600052601160045260246000fd5b8082018082111561111f5761111f61157c565b6000600182016115b7576115b761157c565b5060010190565b600181811c908216806115d257607f821691505b6020821081036115f257634e487b7160e01b600052602260045260246000fd5b50919050565b6020808252600d908201526c1b9bdd08195b991959081e595d609a1b604082015260600190565b6020808252600a908201526937b7363c9037bbb732b960b11b604082015260600190565b634e487b7160e01b600052603260045260246000fd5b601f8211156106ff57600081815260208120601f850160051c810160208610156116805750805b601f850160051c820191505b8181101561169f5782815560010161168c565b505050505050565b815167ffffffffffffffff8111156116c1576116c1611493565b6116d5816116cf84546115be565b84611659565b602080601f83116001811461170a57600084156116f25750858301515b600019600386901b1c1916600185901b17855561169f565b600085815260208120601f198616915b828110156117395788860151825594840194600190910190840161171a565b50858210156117575787850151600019600388901b60f8161c191681555b5050505050600190811b01905550565b6000816117765761177661157c565b50600019019056fea264697066735822122037d3d72f306237cf0eda4ba89bb5b85d6a341262e77a00124dea46545b29838164736f6c63430008120033","opcodes":"PUSH1 0x80 PUSH1 0x40 MSTORE PUSH1 0x3 DUP1 SLOAD PUSH1 0xFF NOT AND PUSH1 0x1 OR SWAP1 SSTORE PUSH1 0x5 DUP1 SLOAD PUSH1 0xFF PUSH1 0xA0 SHL NOT AND SWAP1 SSTORE PUSH3 0x15180 PUSH1 0xA DUP2 SWAP1 SSTORE PUSH1 0xB SSTORE PUSH1 0x0 PUSH1 0xC DUP2 SWAP1 SSTORE PUSH1 0xD DUP2 SWAP1 SSTORE PUSH1 0xF SSTORE CALLVALUE DUP1 ISZERO PUSH3 0x46 JUMPI PUSH1 0x0 DUP1 REVERT JUMPDEST POP PUSH1 0x40 MLOAD PUSH3 0x1DEA CODESIZE SUB DUP1 PUSH3 0x1DEA DUP4 CODECOPY DUP2 ADD PUSH1 0x40 DUP2 SWAP1 MSTORE PUSH3 0x69 SWAP2 PUSH3 0x3C5 JUMP JUMPDEST DUP5 DUP5 DUP5 DUP5 TIMESTAMP DUP3 GT PUSH3 0xD3 JUMPI PUSH1 0x40 MLOAD PUSH3 0x461BCD PUSH1 0xE5 SHL DUP2 MSTORE PUSH1 0x20 PUSH1 0x4 DUP3 ADD MSTORE PUSH1 0x28 PUSH1 0x24 DUP3 ADD MSTORE PUSH32 0x656E64206F66207468652061756374696F6E206D75737420626520696E207468 PUSH1 0x44 DUP3 ADD MSTORE PUSH8 0x6520667574757265 PUSH1 0xC0 SHL PUSH1 0x64 DUP3 ADD MSTORE PUSH1 0x84 ADD JUMPDEST PUSH1 0x40 MLOAD DUP1 SWAP2 SUB SWAP1 REVERT JUMPDEST PUSH1 0x6 DUP1 SLOAD PUSH1 0x1 PUSH1 0x1 PUSH1 0xA0 SHL SUB NOT AND CALLER OR SWAP1 SSTORE PUSH1 0x2 DUP5 SWAP1 SSTORE PUSH1 0x0 PUSH3 0xF8 DUP5 DUP3 PUSH3 0x55A JUMP JUMPDEST POP PUSH1 0x4 SWAP2 SWAP1 SWAP2 SSTORE PUSH1 0x5 DUP1 SLOAD PUSH1 0x1 PUSH1 0x1 PUSH1 0xA0 SHL SUB NOT AND PUSH1 0x1 PUSH1 0x1 PUSH1 0xA0 SHL SUB SWAP1 SWAP3 AND SWAP2 SWAP1 SWAP2 OR SWAP1 SSTORE POP POP PUSH1 0x1 DUP2 GT PUSH3 0x1E4 JUMPI PUSH1 0x40 MLOAD PUSH3 0x461BCD PUSH1 0xE5 SHL DUP2 MSTORE PUSH1 0x20 PUSH1 0x4 DUP3 ADD MSTORE PUSH1 0x7E PUSH1 0x24 DUP3 ADD MSTORE PUSH32 0x546869732061756374696F6E2069732073756974656420746F206D756C746970 PUSH1 0x44 DUP3 ADD MSTORE PUSH32 0x6C65206974656D732E20576974682031206974656D206F6E6C79202D20757365 PUSH1 0x64 DUP3 ADD MSTORE PUSH32 0x20646966666572656E7420636F64652E204F722072656D6F7665207468697320 PUSH1 0x84 DUP3 ADD MSTORE PUSH32 0x277265717569726527202D20796F75277665206265656E207761726E65640000 PUSH1 0xA4 DUP3 ADD MSTORE PUSH1 0xC4 ADD PUSH3 0xCA JUMP JUMPDEST PUSH1 0xE SSTORE POP POP PUSH1 0x40 DUP1 MLOAD PUSH1 0x80 DUP1 DUP3 ADD DUP4 MSTORE PUSH1 0x0 DUP1 DUP4 MSTORE PUSH1 0x20 DUP1 DUP5 ADD DUP3 DUP2 MSTORE PUSH11 0x6342FD08F00F6378000000 DUP6 DUP8 ADD DUP2 DUP2 MSTORE PUSH1 0x60 DUP1 DUP9 ADD DUP7 DUP2 MSTORE DUP4 DUP8 MSTORE PUSH1 0x10 DUP1 DUP8 MSTORE SWAP9 MLOAD PUSH32 0x4193530F6C284E7B0A4B615C0DE01680C53039E6F8A59BDB9D7393E1B9EE7C14 SSTORE SWAP4 MLOAD PUSH32 0x4193530F6C284E7B0A4B615C0DE01680C53039E6F8A59BDB9D7393E1B9EE7C15 SSTORE SWAP1 MLOAD PUSH32 0x4193530F6C284E7B0A4B615C0DE01680C53039E6F8A59BDB9D7393E1B9EE7C16 SSTORE SWAP2 MLOAD PUSH32 0x4193530F6C284E7B0A4B615C0DE01680C53039E6F8A59BDB9D7393E1B9EE7C17 DUP1 SLOAD PUSH1 0x1 PUSH1 0x1 PUSH1 0xA0 SHL SUB NOT SWAP1 DUP2 AND PUSH1 0x1 PUSH1 0x1 PUSH1 0xA0 SHL SUB SWAP4 DUP5 AND OR SWAP1 SWAP2 SSTORE DUP9 MLOAD SWAP7 DUP8 ADD DUP10 MSTORE DUP3 DUP8 MSTORE DUP7 DUP6 ADD SWAP3 DUP4 MSTORE SWAP8 DUP7 ADD DUP6 DUP2 MSTORE SWAP3 DUP7 ADD DUP6 DUP2 MSTORE SWAP5 DUP1 MSTORE SWAP6 SWAP1 SWAP3 MSTORE SWAP3 MLOAD PUSH32 0x6E0956CDA88CAD152E89927E53611735B61A5C762D1428573C6931B0A5EFCB01 SSTORE MLOAD PUSH32 0x6E0956CDA88CAD152E89927E53611735B61A5C762D1428573C6931B0A5EFCB02 SSTORE SWAP1 MLOAD PUSH32 0x6E0956CDA88CAD152E89927E53611735B61A5C762D1428573C6931B0A5EFCB03 SSTORE MLOAD PUSH32 0x6E0956CDA88CAD152E89927E53611735B61A5C762D1428573C6931B0A5EFCB04 DUP1 SLOAD SWAP1 SWAP4 AND SWAP2 AND OR SWAP1 SSTORE POP PUSH3 0x626 SWAP1 POP JUMP JUMPDEST PUSH4 0x4E487B71 PUSH1 0xE0 SHL PUSH1 0x0 MSTORE PUSH1 0x41 PUSH1 0x4 MSTORE PUSH1 0x24 PUSH1 0x0 REVERT JUMPDEST DUP1 MLOAD PUSH1 0x1 PUSH1 0x1 PUSH1 0xA0 SHL SUB DUP2 AND DUP2 EQ PUSH3 0x3C0 JUMPI PUSH1 0x0 DUP1 REVERT JUMPDEST SWAP2 SWAP1 POP JUMP JUMPDEST PUSH1 0x0 DUP1 PUSH1 0x0 DUP1 PUSH1 0x0 PUSH1 0xA0 DUP7 DUP9 SUB SLT ISZERO PUSH3 0x3DE JUMPI PUSH1 0x0 DUP1 REVERT JUMPDEST DUP6 MLOAD PUSH1 0x20 DUP1 DUP9 ADD MLOAD SWAP2 SWAP7 POP SWAP1 PUSH1 0x1 PUSH1 0x1 PUSH1 0x40 SHL SUB DUP1 DUP3 GT ISZERO PUSH3 0x400 JUMPI PUSH1 0x0 DUP1 REVERT JUMPDEST DUP2 DUP10 ADD SWAP2 POP DUP10 PUSH1 0x1F DUP4 ADD SLT PUSH3 0x415 JUMPI PUSH1 0x0 DUP1 REVERT JUMPDEST DUP2 MLOAD DUP2 DUP2 GT ISZERO PUSH3 0x42A JUMPI PUSH3 0x42A PUSH3 0x392 JUMP JUMPDEST PUSH1 0x40 MLOAD PUSH1 0x1F DUP3 ADD PUSH1 0x1F NOT SWAP1 DUP2 AND PUSH1 0x3F ADD AND DUP2 ADD SWAP1 DUP4 DUP3 GT DUP2 DUP4 LT OR ISZERO PUSH3 0x455 JUMPI PUSH3 0x455 PUSH3 0x392 JUMP JUMPDEST DUP2 PUSH1 0x40 MSTORE DUP3 DUP2 MSTORE DUP13 DUP7 DUP5 DUP8 ADD ADD GT ISZERO PUSH3 0x46E JUMPI PUSH1 0x0 DUP1 REVERT JUMPDEST PUSH1 0x0 SWAP4 POP JUMPDEST DUP3 DUP5 LT ISZERO PUSH3 0x492 JUMPI DUP5 DUP5 ADD DUP7 ADD MLOAD DUP2 DUP6 ADD DUP8 ADD MSTORE SWAP3 DUP6 ADD SWAP3 PUSH3 0x473 JUMP JUMPDEST PUSH1 0x0 DUP7 DUP5 DUP4 ADD ADD MSTORE DUP1 SWAP10 POP POP POP POP POP POP POP PUSH1 0x40 DUP7 ADD MLOAD SWAP3 POP PUSH3 0x4B8 PUSH1 0x60 DUP8 ADD PUSH3 0x3A8 JUMP JUMPDEST SWAP2 POP PUSH1 0x80 DUP7 ADD MLOAD SWAP1 POP SWAP3 SWAP6 POP SWAP3 SWAP6 SWAP1 SWAP4 POP JUMP JUMPDEST PUSH1 0x1 DUP2 DUP2 SHR SWAP1 DUP3 AND DUP1 PUSH3 0x4E0 JUMPI PUSH1 0x7F DUP3 AND SWAP2 POP JUMPDEST PUSH1 0x20 DUP3 LT DUP2 SUB PUSH3 0x501 JUMPI PUSH4 0x4E487B71 PUSH1 0xE0 SHL PUSH1 0x0 MSTORE PUSH1 0x22 PUSH1 0x4 MSTORE PUSH1 0x24 PUSH1 0x0 REVERT JUMPDEST POP SWAP2 SWAP1 POP JUMP JUMPDEST PUSH1 0x1F DUP3 GT ISZERO PUSH3 0x555 JUMPI PUSH1 0x0 DUP2 DUP2 MSTORE PUSH1 0x20 DUP2 KECCAK256 PUSH1 0x1F DUP6 ADD PUSH1 0x5 SHR DUP2 ADD PUSH1 0x20 DUP7 LT ISZERO PUSH3 0x530 JUMPI POP DUP1 JUMPDEST PUSH1 0x1F DUP6 ADD PUSH1 0x5 SHR DUP3 ADD SWAP2 POP JUMPDEST DUP2 DUP2 LT ISZERO PUSH3 0x551 JUMPI DUP3 DUP2 SSTORE PUSH1 0x1 ADD PUSH3 0x53C JUMP JUMPDEST POP POP POP JUMPDEST POP POP POP JUMP JUMPDEST DUP2 MLOAD PUSH1 0x1 PUSH1 0x1 PUSH1 0x40 SHL SUB DUP2 GT ISZERO PUSH3 0x576 JUMPI PUSH3 0x576 PUSH3 0x392 JUMP JUMPDEST PUSH3 0x58E DUP2 PUSH3 0x587 DUP5 SLOAD PUSH3 0x4CB JUMP JUMPDEST DUP5 PUSH3 0x507 JUMP JUMPDEST PUSH1 0x20 DUP1 PUSH1 0x1F DUP4 GT PUSH1 0x1 DUP2 EQ PUSH3 0x5C6 JUMPI PUSH1 0x0 DUP5 ISZERO PUSH3 0x5AD JUMPI POP DUP6 DUP4 ADD MLOAD JUMPDEST PUSH1 0x0 NOT PUSH1 0x3 DUP7 SWAP1 SHL SHR NOT AND PUSH1 0x1 DUP6 SWAP1 SHL OR DUP6 SSTORE PUSH3 0x551 JUMP JUMPDEST PUSH1 0x0 DUP6 DUP2 MSTORE PUSH1 0x20 DUP2 KECCAK256 PUSH1 0x1F NOT DUP7 AND SWAP2 JUMPDEST DUP3 DUP2 LT ISZERO PUSH3 0x5F7 JUMPI DUP9 DUP7 ADD MLOAD DUP3 SSTORE SWAP5 DUP5 ADD SWAP5 PUSH1 0x1 SWAP1 SWAP2 ADD SWAP1 DUP5 ADD PUSH3 0x5D6 JUMP JUMPDEST POP DUP6 DUP3 LT ISZERO PUSH3 0x616 JUMPI DUP8 DUP6 ADD MLOAD PUSH1 0x0 NOT PUSH1 0x3 DUP9 SWAP1 SHL PUSH1 0xF8 AND SHR NOT AND DUP2 SSTORE JUMPDEST POP POP POP POP POP PUSH1 0x1 SWAP1 DUP2 SHL ADD SWAP1 SSTORE POP JUMP JUMPDEST PUSH2 0x17B4 DUP1 PUSH3 0x636 PUSH1 0x0 CODECOPY PUSH1 0x0 RETURN INVALID PUSH1 0x80 PUSH1 0x40 MSTORE PUSH1 0x4 CALLDATASIZE LT PUSH2 0x1DC JUMPI PUSH1 0x0 CALLDATALOAD PUSH1 0xE0 SHR DUP1 PUSH4 0x62EA82DB GT PUSH2 0x102 JUMPI DUP1 PUSH4 0xAF8214EF GT PUSH2 0x95 JUMPI DUP1 PUSH4 0xCB743840 GT PUSH2 0x64 JUMPI DUP1 PUSH4 0xCB743840 EQ PUSH2 0x55D JUMPI DUP1 PUSH4 0xCF9B3C8D EQ PUSH2 0x573 JUMPI DUP1 PUSH4 0xDFBF53AE EQ PUSH2 0x593 JUMPI DUP1 PUSH4 0xF5738BCD EQ PUSH2 0x5B3 JUMPI PUSH1 0x0 DUP1 REVERT JUMPDEST DUP1 PUSH4 0xAF8214EF EQ PUSH2 0x4FB JUMPI DUP1 PUSH4 0xB3F05B97 EQ PUSH2 0x511 JUMPI DUP1 PUSH4 0xC628DDC3 EQ PUSH2 0x532 JUMPI DUP1 PUSH4 0xC6EEEB04 EQ PUSH2 0x547 JUMPI PUSH1 0x0 DUP1 REVERT JUMPDEST DUP1 PUSH4 0x8DA5CB5B GT PUSH2 0xD1 JUMPI DUP1 PUSH4 0x8DA5CB5B EQ PUSH2 0x485 JUMPI DUP1 PUSH4 0x90C3F38F EQ PUSH2 0x4A5 JUMPI DUP1 PUSH4 0xA035B1FE EQ PUSH2 0x4C5 JUMPI DUP1 PUSH4 0xA9D49F62 EQ PUSH2 0x4DB JUMPI PUSH1 0x0 DUP1 REVERT JUMPDEST DUP1 PUSH4 0x62EA82DB EQ PUSH2 0x418 JUMPI DUP1 PUSH4 0x66AEF95B EQ PUSH2 0x445 JUMPI DUP1 PUSH4 0x7284E416 EQ PUSH2 0x45B JUMPI DUP1 PUSH4 0x7398AB18 EQ PUSH2 0x470 JUMPI PUSH1 0x0 DUP1 REVERT JUMPDEST DUP1 PUSH4 0x30BBB55E GT PUSH2 0x17A JUMPI DUP1 PUSH4 0x56C7F461 GT PUSH2 0x149 JUMPI DUP1 PUSH4 0x56C7F461 EQ PUSH2 0x3C2 JUMPI DUP1 PUSH4 0x57F196FA EQ PUSH2 0x3D7 JUMPI DUP1 PUSH4 0x590E1AE3 EQ PUSH2 0x3ED JUMPI DUP1 PUSH4 0x62AB8CC1 EQ PUSH2 0x402 JUMPI PUSH1 0x0 DUP1 REVERT JUMPDEST DUP1 PUSH4 0x30BBB55E EQ PUSH2 0x333 JUMPI DUP1 PUSH4 0x38AF3EED EQ PUSH2 0x355 JUMPI DUP1 PUSH4 0x4BB278F3 EQ PUSH2 0x38D JUMPI DUP1 PUSH4 0x5104CB5C EQ PUSH2 0x3A2 JUMPI PUSH1 0x0 DUP1 REVERT JUMPDEST DUP1 PUSH4 0x1998AEEF GT PUSH2 0x1B6 JUMPI DUP1 PUSH4 0x1998AEEF EQ PUSH2 0x1F3 JUMPI DUP1 PUSH4 0x1A701609 EQ PUSH2 0x2BD JUMPI DUP1 PUSH4 0x1D0806AE EQ PUSH2 0x2DC JUMPI DUP1 PUSH4 0x1F6D4942 EQ PUSH2 0x306 JUMPI PUSH1 0x0 DUP1 REVERT JUMPDEST DUP1 PUSH4 0x41ABD9F EQ PUSH2 0x200 JUMPI DUP1 PUSH4 0x14A4E4D6 EQ PUSH2 0x229 JUMPI DUP1 PUSH4 0x16C19739 EQ PUSH2 0x29D JUMPI PUSH1 0x0 DUP1 REVERT JUMPDEST CALLDATASIZE PUSH2 0x1FB JUMPI CALLVALUE PUSH1 0x0 SUB PUSH2 0x1F3 JUMPI PUSH2 0x1F1 PUSH2 0x5D3 JUMP JUMPDEST STOP JUMPDEST PUSH2 0x1F1 PUSH2 0x5DE JUMP JUMPDEST PUSH1 0x0 DUP1 REVERT JUMPDEST CALLVALUE DUP1 ISZERO PUSH2 0x20C JUMPI PUSH1 0x0 DUP1 REVERT JUMPDEST POP PUSH2 0x216 PUSH1 0x4 SLOAD DUP2 JUMP JUMPDEST PUSH1 0x40 MLOAD SWAP1 DUP2 MSTORE PUSH1 0x20 ADD JUMPDEST PUSH1 0x40 MLOAD DUP1 SWAP2 SUB SWAP1 RETURN JUMPDEST CALLVALUE DUP1 ISZERO PUSH2 0x235 JUMPI PUSH1 0x0 DUP1 REVERT JUMPDEST POP PUSH2 0x274 PUSH2 0x244 CALLDATASIZE PUSH1 0x4 PUSH2 0x13FC JUMP JUMPDEST PUSH1 0x10 PUSH1 0x20 MSTORE PUSH1 0x0 SWAP1 DUP2 MSTORE PUSH1 0x40 SWAP1 KECCAK256 DUP1 SLOAD PUSH1 0x1 DUP3 ADD SLOAD PUSH1 0x2 DUP4 ADD SLOAD PUSH1 0x3 SWAP1 SWAP4 ADD SLOAD SWAP2 SWAP3 SWAP1 SWAP2 PUSH1 0x1 PUSH1 0x1 PUSH1 0xA0 SHL SUB AND DUP5 JUMP JUMPDEST PUSH1 0x40 DUP1 MLOAD SWAP5 DUP6 MSTORE PUSH1 0x20 DUP6 ADD SWAP4 SWAP1 SWAP4 MSTORE SWAP2 DUP4 ADD MSTORE PUSH1 0x1 PUSH1 0x1 PUSH1 0xA0 SHL SUB AND PUSH1 0x60 DUP3 ADD MSTORE PUSH1 0x80 ADD PUSH2 0x220 JUMP JUMPDEST CALLVALUE DUP1 ISZERO PUSH2 0x2A9 JUMPI PUSH1 0x0 DUP1 REVERT JUMPDEST POP PUSH2 0x216 PUSH2 0x2B8 CALLDATASIZE PUSH1 0x4 PUSH2 0x1415 JUMP JUMPDEST PUSH2 0x8DB JUMP JUMPDEST CALLVALUE DUP1 ISZERO PUSH2 0x2C9 JUMPI PUSH1 0x0 DUP1 REVERT JUMPDEST POP PUSH2 0x216 PUSH11 0x6342FD08F00F6378000000 DUP2 JUMP JUMPDEST CALLVALUE DUP1 ISZERO PUSH2 0x2E8 JUMPI PUSH1 0x0 DUP1 REVERT JUMPDEST POP PUSH1 0x3 SLOAD PUSH2 0x2F6 SWAP1 PUSH1 0xFF AND DUP2 JUMP JUMPDEST PUSH1 0x40 MLOAD SWAP1 ISZERO ISZERO DUP2 MSTORE PUSH1 0x20 ADD PUSH2 0x220 JUMP JUMPDEST CALLVALUE DUP1 ISZERO PUSH2 0x312 JUMPI PUSH1 0x0 DUP1 REVERT JUMPDEST POP PUSH2 0x216 PUSH2 0x321 CALLDATASIZE PUSH1 0x4 PUSH2 0x1415 JUMP JUMPDEST PUSH1 0x11 PUSH1 0x20 MSTORE PUSH1 0x0 SWAP1 DUP2 MSTORE PUSH1 0x40 SWAP1 KECCAK256 SLOAD DUP2 JUMP JUMPDEST CALLVALUE DUP1 ISZERO PUSH2 0x33F JUMPI PUSH1 0x0 DUP1 REVERT JUMPDEST POP PUSH2 0x348 PUSH2 0xA9D JUMP JUMPDEST PUSH1 0x40 MLOAD PUSH2 0x220 SWAP2 SWAP1 PUSH2 0x1445 JUMP JUMPDEST CALLVALUE DUP1 ISZERO PUSH2 0x361 JUMPI PUSH1 0x0 DUP1 REVERT JUMPDEST POP PUSH1 0x5 SLOAD PUSH2 0x375 SWAP1 PUSH1 0x1 PUSH1 0x1 PUSH1 0xA0 SHL SUB AND DUP2 JUMP JUMPDEST PUSH1 0x40 MLOAD PUSH1 0x1 PUSH1 0x1 PUSH1 0xA0 SHL SUB SWAP1 SWAP2 AND DUP2 MSTORE PUSH1 0x20 ADD PUSH2 0x220 JUMP JUMPDEST CALLVALUE DUP1 ISZERO PUSH2 0x399 JUMPI PUSH1 0x0 DUP1 REVERT JUMPDEST POP PUSH2 0x1F1 PUSH2 0xB2B JUMP JUMPDEST CALLVALUE DUP1 ISZERO PUSH2 0x3AE JUMPI PUSH1 0x0 DUP1 REVERT JUMPDEST POP PUSH2 0x1F1 PUSH2 0x3BD CALLDATASIZE PUSH1 0x4 PUSH2 0x1415 JUMP JUMPDEST PUSH2 0xD80 JUMP JUMPDEST CALLVALUE DUP1 ISZERO PUSH2 0x3CE JUMPI PUSH1 0x0 DUP1 REVERT JUMPDEST POP PUSH2 0x1F1 PUSH2 0xDB6 JUMP JUMPDEST CALLVALUE DUP1 ISZERO PUSH2 0x3E3 JUMPI PUSH1 0x0 DUP1 REVERT JUMPDEST POP PUSH2 0x216 PUSH1 0xC SLOAD DUP2 JUMP JUMPDEST CALLVALUE DUP1 ISZERO PUSH2 0x3F9 JUMPI PUSH1 0x0 DUP1 REVERT JUMPDEST POP PUSH2 0x1F1 PUSH2 0x5D3 JUMP JUMPDEST CALLVALUE DUP1 ISZERO PUSH2 0x40E JUMPI PUSH1 0x0 DUP1 REVERT JUMPDEST POP PUSH2 0x216 PUSH1 0xE SLOAD DUP2 JUMP JUMPDEST CALLVALUE DUP1 ISZERO PUSH2 0x424 JUMPI PUSH1 0x0 DUP1 REVERT JUMPDEST POP PUSH2 0x216 PUSH2 0x433 CALLDATASIZE PUSH1 0x4 PUSH2 0x1415 JUMP JUMPDEST PUSH1 0x8 PUSH1 0x20 MSTORE PUSH1 0x0 SWAP1 DUP2 MSTORE PUSH1 0x40 SWAP1 KECCAK256 SLOAD DUP2 JUMP JUMPDEST CALLVALUE DUP1 ISZERO PUSH2 0x451 JUMPI PUSH1 0x0 DUP1 REVERT JUMPDEST POP PUSH2 0x216 PUSH1 0xA SLOAD DUP2 JUMP JUMPDEST CALLVALUE DUP1 ISZERO PUSH2 0x467 JUMPI PUSH1 0x0 DUP1 REVERT JUMPDEST POP PUSH2 0x348 PUSH2 0xF56 JUMP JUMPDEST CALLVALUE DUP1 ISZERO PUSH2 0x47C JUMPI PUSH1 0x0 DUP1 REVERT JUMPDEST POP PUSH2 0x216 PUSH2 0xF63 JUMP JUMPDEST CALLVALUE DUP1 ISZERO PUSH2 0x491 JUMPI PUSH1 0x0 DUP1 REVERT JUMPDEST POP PUSH1 0x6 SLOAD PUSH2 0x375 SWAP1 PUSH1 0x1 PUSH1 0x1 PUSH1 0xA0 SHL SUB AND DUP2 JUMP JUMPDEST CALLVALUE DUP1 ISZERO PUSH2 0x4B1 JUMPI PUSH1 0x0 DUP1 REVERT JUMPDEST POP PUSH2 0x1F1 PUSH2 0x4C0 CALLDATASIZE PUSH1 0x4 PUSH2 0x14A9 JUMP JUMPDEST PUSH2 0xF73 JUMP JUMPDEST CALLVALUE DUP1 ISZERO PUSH2 0x4D1 JUMPI PUSH1 0x0 DUP1 REVERT JUMPDEST POP PUSH2 0x216 PUSH1 0x2 SLOAD DUP2 JUMP JUMPDEST CALLVALUE DUP1 ISZERO PUSH2 0x4E7 JUMPI PUSH1 0x0 DUP1 REVERT JUMPDEST POP PUSH2 0x216 PUSH2 0x4F6 CALLDATASIZE PUSH1 0x4 PUSH2 0x155A JUMP JUMPDEST PUSH2 0xFA9 JUMP JUMPDEST CALLVALUE DUP1 ISZERO PUSH2 0x507 JUMPI PUSH1 0x0 DUP1 REVERT JUMPDEST POP PUSH2 0x216 PUSH2 0x7D0 DUP2 JUMP JUMPDEST CALLVALUE DUP1 ISZERO PUSH2 0x51D JUMPI PUSH1 0x0 DUP1 REVERT JUMPDEST POP PUSH1 0x5 SLOAD PUSH2 0x2F6 SWAP1 PUSH1 0x1 PUSH1 0xA0 SHL SWAP1 DIV PUSH1 0xFF AND DUP2 JUMP JUMPDEST CALLVALUE DUP1 ISZERO PUSH2 0x53E JUMPI PUSH1 0x0 DUP1 REVERT JUMPDEST POP PUSH2 0x216 PUSH1 0x0 DUP2 JUMP JUMPDEST CALLVALUE DUP1 ISZERO PUSH2 0x553 JUMPI PUSH1 0x0 DUP1 REVERT JUMPDEST POP PUSH2 0x216 PUSH1 0xB SLOAD DUP2 JUMP JUMPDEST CALLVALUE DUP1 ISZERO PUSH2 0x569 JUMPI PUSH1 0x0 DUP1 REVERT JUMPDEST POP PUSH2 0x216 PUSH1 0xD SLOAD DUP2 JUMP JUMPDEST CALLVALUE DUP1 ISZERO PUSH2 0x57F JUMPI PUSH1 0x0 DUP1 REVERT JUMPDEST POP PUSH2 0x375 PUSH2 0x58E CALLDATASIZE PUSH1 0x4 PUSH2 0x13FC JUMP JUMPDEST PUSH2 0x1125 JUMP JUMPDEST CALLVALUE DUP1 ISZERO PUSH2 0x59F JUMPI PUSH1 0x0 DUP1 REVERT JUMPDEST POP PUSH1 0x7 SLOAD PUSH2 0x375 SWAP1 PUSH1 0x1 PUSH1 0x1 PUSH1 0xA0 SHL SUB AND DUP2 JUMP JUMPDEST CALLVALUE DUP1 ISZERO PUSH2 0x5BF JUMPI PUSH1 0x0 DUP1 REVERT JUMPDEST POP PUSH2 0x1F1 PUSH2 0x5CE CALLDATASIZE PUSH1 0x4 PUSH2 0x14A9 JUMP JUMPDEST PUSH2 0x114F JUMP JUMPDEST PUSH2 0x5DC CALLER PUSH2 0x11C4 JUMP JUMPDEST JUMP JUMPDEST PUSH1 0x4 SLOAD TIMESTAMP LT PUSH2 0x63E JUMPI PUSH1 0x40 MLOAD PUSH3 0x461BCD PUSH1 0xE5 SHL DUP2 MSTORE PUSH1 0x20 PUSH1 0x4 DUP3 ADD MSTORE PUSH1 0x21 PUSH1 0x24 DUP3 ADD MSTORE PUSH32 0x63616E6E6F7420626964206166746572207468652061756374696F6E20656E64 PUSH1 0x44 DUP3 ADD MSTORE PUSH1 0x73 PUSH1 0xF8 SHL PUSH1 0x64 DUP3 ADD MSTORE PUSH1 0x84 ADD JUMPDEST PUSH1 0x40 MLOAD DUP1 SWAP2 SUB SWAP1 REVERT JUMPDEST CALLER PUSH1 0x0 SWAP1 DUP2 MSTORE PUSH1 0x11 PUSH1 0x20 MSTORE PUSH1 0x40 DUP2 KECCAK256 SLOAD SWAP1 DUP2 ISZERO PUSH2 0x704 JUMPI PUSH1 0x0 DUP3 DUP2 MSTORE PUSH1 0x10 PUSH1 0x20 MSTORE PUSH1 0x40 DUP2 KECCAK256 PUSH1 0x2 DUP2 ADD DUP1 SLOAD SWAP2 SWAP3 CALLVALUE SWAP3 PUSH2 0x678 SWAP1 DUP5 SWAP1 PUSH2 0x1592 JUMP JUMPDEST SWAP1 SWAP2 SSTORE POP POP PUSH1 0x1 DUP2 ADD SLOAD PUSH1 0x0 SWAP1 DUP2 MSTORE PUSH1 0x10 PUSH1 0x20 MSTORE PUSH1 0x40 SWAP1 KECCAK256 PUSH1 0x2 SWAP1 DUP2 ADD SLOAD SWAP1 DUP3 ADD SLOAD GT ISZERO PUSH2 0x6FF JUMPI PUSH2 0x6B2 DUP2 PUSH1 0x2 ADD SLOAD DUP3 PUSH1 0x1 ADD SLOAD PUSH2 0xFA9 JUMP JUMPDEST PUSH1 0x1 DUP1 DUP4 ADD DUP1 SLOAD DUP5 SLOAD PUSH1 0x0 SWAP1 DUP2 MSTORE PUSH1 0x10 PUSH1 0x20 MSTORE PUSH1 0x40 DUP1 DUP3 KECCAK256 DUP6 ADD DUP4 SWAP1 SSTORE DUP7 SLOAD SWAP3 DUP3 MSTORE DUP1 DUP3 KECCAK256 SWAP3 SWAP1 SWAP3 SSTORE DUP5 DUP7 SSTORE DUP5 DUP2 MSTORE DUP2 DUP2 KECCAK256 SWAP1 SWAP4 ADD DUP1 SLOAD SWAP3 DUP4 SWAP1 SSTORE SWAP2 DUP4 MSTORE DUP3 KECCAK256 DUP7 SWAP1 SSTORE SWAP1 DUP3 SWAP1 MSTORE DUP5 SWAP1 SSTORE SWAP2 POP JUMPDEST POP POP POP JUMP JUMPDEST PUSH1 0x2 SLOAD CALLVALUE LT ISZERO PUSH2 0x77C JUMPI PUSH1 0x40 MLOAD PUSH3 0x461BCD PUSH1 0xE5 SHL DUP2 MSTORE PUSH1 0x20 PUSH1 0x4 DUP3 ADD MSTORE PUSH1 0x3B PUSH1 0x24 DUP3 ADD MSTORE PUSH32 0x4E6F74206D7563682073656E73652073656E64696E67206C657373207468616E PUSH1 0x44 DUP3 ADD MSTORE PUSH32 0x207468652070726963652C206C696B656C7920616E206572726F720000000000 PUSH1 0x64 DUP3 ADD MSTORE PUSH1 0x84 ADD PUSH2 0x635 JUMP JUMPDEST PUSH2 0x7D0 PUSH1 0xC SLOAD LT PUSH2 0x804 JUMPI PUSH1 0x40 MLOAD PUSH3 0x461BCD PUSH1 0xE5 SHL DUP2 MSTORE PUSH1 0x20 PUSH1 0x4 DUP3 ADD MSTORE PUSH1 0x46 PUSH1 0x24 DUP3 ADD MSTORE PUSH32 0x44756520746F20626C6F636B476173206C696D6974207765206C696D6974206E PUSH1 0x44 DUP3 ADD MSTORE PUSH32 0x756D626572206F662070656F706C6520696E207468652061756374696F6E2074 PUSH1 0x64 DUP3 ADD MSTORE PUSH6 0x6F203230303 PUSH1 0xD4 SHL PUSH1 0x84 DUP3 ADD MSTORE PUSH1 0xA4 ADD PUSH2 0x635 JUMP JUMPDEST PUSH1 0xC DUP1 SLOAD SWAP1 PUSH1 0x0 PUSH2 0x814 DUP4 PUSH2 0x15A5 JUMP JUMPDEST SWAP1 SWAP2 SSTORE POP POP PUSH1 0xD DUP1 SLOAD SWAP1 PUSH1 0x0 PUSH2 0x829 DUP4 PUSH2 0x15A5 JUMP JUMPDEST SWAP2 SWAP1 POP SSTORE POP PUSH2 0x839 CALLVALUE PUSH1 0x0 PUSH2 0xFA9 JUMP JUMPDEST PUSH1 0xC DUP1 SLOAD CALLER PUSH1 0x0 DUP2 DUP2 MSTORE PUSH1 0x11 PUSH1 0x20 SWAP1 DUP2 MSTORE PUSH1 0x40 DUP1 DUP4 KECCAK256 DUP6 SWAP1 SSTORE DUP1 MLOAD PUSH1 0x80 DUP2 ADD DUP3 MSTORE DUP8 DUP2 MSTORE DUP8 DUP5 MSTORE PUSH1 0x10 DUP1 DUP5 MSTORE DUP3 DUP6 KECCAK256 PUSH1 0x1 SWAP1 DUP2 ADD DUP1 SLOAD DUP5 DUP8 ADD SWAP1 DUP2 MSTORE CALLVALUE DUP6 DUP8 ADD SWAP1 DUP2 MSTORE PUSH1 0x60 DUP7 ADD SWAP10 DUP11 MSTORE SWAP10 DUP9 MSTORE SWAP3 SWAP1 SWAP6 MSTORE DUP4 DUP7 KECCAK256 SWAP3 MLOAD DUP4 SSTORE SWAP1 MLOAD SWAP1 DUP3 ADD SSTORE SWAP5 MLOAD PUSH1 0x2 DUP7 ADD SSTORE SWAP3 MLOAD PUSH1 0x3 SWAP1 SWAP5 ADD DUP1 SLOAD PUSH1 0x1 PUSH1 0x1 PUSH1 0xA0 SHL SUB NOT AND PUSH1 0x1 PUSH1 0x1 PUSH1 0xA0 SHL SUB SWAP1 SWAP6 AND SWAP5 SWAP1 SWAP5 OR SWAP1 SWAP4 SSTORE SWAP3 SLOAD DUP3 SLOAD DUP5 MSTORE SWAP1 DUP4 KECCAK256 DUP2 SWAP1 SSTORE SWAP2 DUP4 SWAP1 MSTORE SSTORE SWAP1 POP JUMPDEST POP POP JUMP JUMPDEST PUSH1 0x1 PUSH1 0x1 PUSH1 0xA0 SHL SUB DUP2 AND PUSH1 0x0 SWAP1 DUP2 MSTORE PUSH1 0x11 PUSH1 0x20 MSTORE PUSH1 0x40 DUP2 KECCAK256 SLOAD DUP1 DUP3 SUB PUSH2 0x969 JUMPI PUSH1 0x40 MLOAD PUSH3 0x461BCD PUSH1 0xE5 SHL DUP2 MSTORE PUSH1 0x20 PUSH1 0x4 DUP3 ADD MSTORE PUSH1 0x39 PUSH1 0x24 DUP3 ADD MSTORE PUSH32 0x63616E6E6F742061736B20666F72206120706F736974696F6E206F6620612067 PUSH1 0x44 DUP3 ADD MSTORE PUSH32 0x75792077686F206973206E6F74206F6E20746865206C69737400000000000000 PUSH1 0x64 DUP3 ADD MSTORE PUSH1 0x84 ADD PUSH2 0x635 JUMP JUMPDEST PUSH11 0x6342FD08F00F6378000000 PUSH1 0x0 MSTORE PUSH1 0x10 PUSH1 0x20 SWAP1 DUP2 MSTORE PUSH1 0x40 DUP1 MLOAD PUSH1 0x80 DUP2 ADD DUP3 MSTORE PUSH32 0x4193530F6C284E7B0A4B615C0DE01680C53039E6F8A59BDB9D7393E1B9EE7C14 SLOAD DUP2 MSTORE PUSH32 0x4193530F6C284E7B0A4B615C0DE01680C53039E6F8A59BDB9D7393E1B9EE7C15 SLOAD SWAP3 DUP2 ADD SWAP3 SWAP1 SWAP3 MSTORE PUSH32 0x4193530F6C284E7B0A4B615C0DE01680C53039E6F8A59BDB9D7393E1B9EE7C16 SLOAD SWAP1 DUP3 ADD MSTORE PUSH32 0x4193530F6C284E7B0A4B615C0DE01680C53039E6F8A59BDB9D7393E1B9EE7C17 SLOAD PUSH1 0x1 PUSH1 0x1 PUSH1 0xA0 SHL SUB AND PUSH1 0x60 DUP3 ADD MSTORE PUSH1 0x1 SWAP1 JUMPDEST DUP1 MLOAD DUP4 EQ PUSH2 0xA95 JUMPI MLOAD PUSH1 0x0 SWAP1 DUP2 MSTORE PUSH1 0x10 PUSH1 0x20 SWAP1 DUP2 MSTORE PUSH1 0x40 SWAP2 DUP3 SWAP1 KECCAK256 DUP3 MLOAD PUSH1 0x80 DUP2 ADD DUP5 MSTORE DUP2 SLOAD DUP2 MSTORE PUSH1 0x1 DUP3 ADD SLOAD SWAP3 DUP2 ADD SWAP3 SWAP1 SWAP3 MSTORE PUSH1 0x2 DUP2 ADD SLOAD SWAP3 DUP3 ADD SWAP3 SWAP1 SWAP3 MSTORE PUSH1 0x3 SWAP1 SWAP2 ADD SLOAD PUSH1 0x1 PUSH1 0x1 PUSH1 0xA0 SHL SUB AND PUSH1 0x60 DUP3 ADD MSTORE DUP2 PUSH2 0xA8D DUP2 PUSH2 0x15A5 JUMP JUMPDEST SWAP3 POP POP PUSH2 0xA30 JUMP JUMPDEST POP SWAP4 SWAP3 POP POP POP JUMP JUMPDEST PUSH1 0x1 DUP1 SLOAD PUSH2 0xAAA SWAP1 PUSH2 0x15BE JUMP JUMPDEST DUP1 PUSH1 0x1F ADD PUSH1 0x20 DUP1 SWAP2 DIV MUL PUSH1 0x20 ADD PUSH1 0x40 MLOAD SWAP1 DUP2 ADD PUSH1 0x40 MSTORE DUP1 SWAP3 SWAP2 SWAP1 DUP2 DUP2 MSTORE PUSH1 0x20 ADD DUP3 DUP1 SLOAD PUSH2 0xAD6 SWAP1 PUSH2 0x15BE JUMP JUMPDEST DUP1 ISZERO PUSH2 0xB23 JUMPI DUP1 PUSH1 0x1F LT PUSH2 0xAF8 JUMPI PUSH2 0x100 DUP1 DUP4 SLOAD DIV MUL DUP4 MSTORE SWAP2 PUSH1 0x20 ADD SWAP2 PUSH2 0xB23 JUMP JUMPDEST DUP3 ADD SWAP2 SWAP1 PUSH1 0x0 MSTORE PUSH1 0x20 PUSH1 0x0 KECCAK256 SWAP1 JUMPDEST DUP2 SLOAD DUP2 MSTORE SWAP1 PUSH1 0x1 ADD SWAP1 PUSH1 0x20 ADD DUP1 DUP4 GT PUSH2 0xB06 JUMPI DUP3 SWAP1 SUB PUSH1 0x1F AND DUP3 ADD SWAP2 JUMPDEST POP POP POP POP POP DUP2 JUMP JUMPDEST PUSH1 0x4 SLOAD TIMESTAMP GT PUSH2 0xB4C JUMPI PUSH1 0x40 MLOAD PUSH3 0x461BCD PUSH1 0xE5 SHL DUP2 MSTORE PUSH1 0x4 ADD PUSH2 0x635 SWAP1 PUSH2 0x15F8 JUMP JUMPDEST PUSH1 0x6 SLOAD PUSH1 0x1 PUSH1 0x1 PUSH1 0xA0 SHL SUB AND CALLER EQ PUSH2 0xB76 JUMPI PUSH1 0x40 MLOAD PUSH3 0x461BCD PUSH1 0xE5 SHL DUP2 MSTORE PUSH1 0x4 ADD PUSH2 0x635 SWAP1 PUSH2 0x161F JUMP JUMPDEST PUSH1 0x5 SLOAD PUSH1 0x1 PUSH1 0xA0 SHL SWAP1 DIV PUSH1 0xFF AND ISZERO PUSH2 0xBEA JUMPI PUSH1 0x40 MLOAD PUSH3 0x461BCD PUSH1 0xE5 SHL DUP2 MSTORE PUSH1 0x20 PUSH1 0x4 DUP3 ADD MSTORE PUSH1 0x31 PUSH1 0x24 DUP3 ADD MSTORE PUSH32 0x61756374696F6E20616C72656164792066696E616C697A65642C2063616E2077 PUSH1 0x44 DUP3 ADD MSTORE PUSH17 0x69746864726177206F6E6C79206F6E6365 PUSH1 0x78 SHL PUSH1 0x64 DUP3 ADD MSTORE PUSH1 0x84 ADD PUSH2 0x635 JUMP JUMPDEST PUSH1 0x5 DUP1 SLOAD PUSH1 0xFF PUSH1 0xA0 SHL NOT AND PUSH1 0x1 PUSH1 0xA0 SHL OR SWAP1 SSTORE PUSH11 0x6342FD08F00F6378000000 PUSH1 0x0 SWAP1 DUP2 MSTORE PUSH1 0x10 PUSH1 0x20 SWAP1 DUP2 MSTORE PUSH1 0x40 DUP1 MLOAD PUSH1 0x80 DUP2 ADD DUP3 MSTORE PUSH32 0x4193530F6C284E7B0A4B615C0DE01680C53039E6F8A59BDB9D7393E1B9EE7C14 SLOAD DUP2 MSTORE PUSH32 0x4193530F6C284E7B0A4B615C0DE01680C53039E6F8A59BDB9D7393E1B9EE7C15 SLOAD SWAP3 DUP2 ADD SWAP3 SWAP1 SWAP3 MSTORE PUSH32 0x4193530F6C284E7B0A4B615C0DE01680C53039E6F8A59BDB9D7393E1B9EE7C16 SLOAD SWAP1 DUP3 ADD MSTORE PUSH32 0x4193530F6C284E7B0A4B615C0DE01680C53039E6F8A59BDB9D7393E1B9EE7C17 SLOAD PUSH1 0x1 PUSH1 0x1 PUSH1 0xA0 SHL SUB AND PUSH1 0x60 DUP3 ADD MSTORE DUP2 SWAP1 JUMPDEST PUSH1 0xE SLOAD DUP3 PUSH2 0xCD2 DUP2 PUSH2 0x15A5 JUMP JUMPDEST SWAP4 POP LT DUP1 ISZERO PUSH2 0xCE1 JUMPI POP DUP1 MLOAD ISZERO ISZERO JUMPDEST ISZERO PUSH2 0xD40 JUMPI MLOAD PUSH1 0x0 SWAP1 DUP2 MSTORE PUSH1 0x10 PUSH1 0x20 SWAP1 DUP2 MSTORE PUSH1 0x40 SWAP2 DUP3 SWAP1 KECCAK256 DUP3 MLOAD PUSH1 0x80 DUP2 ADD DUP5 MSTORE DUP2 SLOAD DUP2 MSTORE PUSH1 0x1 DUP3 ADD SLOAD SWAP3 DUP2 ADD SWAP3 SWAP1 SWAP3 MSTORE PUSH1 0x2 DUP2 ADD SLOAD SWAP3 DUP3 ADD DUP4 SWAP1 MSTORE PUSH1 0x3 ADD SLOAD PUSH1 0x1 PUSH1 0x1 PUSH1 0xA0 SHL SUB AND PUSH1 0x60 DUP3 ADD MSTORE SWAP1 PUSH2 0xD39 SWAP1 DUP5 PUSH2 0x1592 JUMP JUMPDEST SWAP3 POP PUSH2 0xCC5 JUMP JUMPDEST PUSH1 0x5 SLOAD PUSH1 0x40 MLOAD PUSH1 0x1 PUSH1 0x1 PUSH1 0xA0 SHL SUB SWAP1 SWAP2 AND SWAP1 DUP5 ISZERO PUSH2 0x8FC MUL SWAP1 DUP6 SWAP1 PUSH1 0x0 DUP2 DUP2 DUP2 DUP6 DUP9 DUP9 CALL SWAP4 POP POP POP POP ISZERO DUP1 ISZERO PUSH2 0xD7A JUMPI RETURNDATASIZE PUSH1 0x0 DUP1 RETURNDATACOPY RETURNDATASIZE PUSH1 0x0 REVERT JUMPDEST POP POP POP POP JUMP JUMPDEST PUSH1 0x6 SLOAD PUSH1 0x1 PUSH1 0x1 PUSH1 0xA0 SHL SUB AND CALLER EQ PUSH2 0xDAA JUMPI PUSH1 0x40 MLOAD PUSH3 0x461BCD PUSH1 0xE5 SHL DUP2 MSTORE PUSH1 0x4 ADD PUSH2 0x635 SWAP1 PUSH2 0x161F JUMP JUMPDEST PUSH2 0xDB3 DUP2 PUSH2 0x11C4 JUMP JUMPDEST POP JUMP JUMPDEST PUSH1 0x4 SLOAD TIMESTAMP GT PUSH2 0xDD7 JUMPI PUSH1 0x40 MLOAD PUSH3 0x461BCD PUSH1 0xE5 SHL DUP2 MSTORE PUSH1 0x4 ADD PUSH2 0x635 SWAP1 PUSH2 0x15F8 JUMP JUMPDEST PUSH1 0x6 SLOAD PUSH1 0x1 PUSH1 0x1 PUSH1 0xA0 SHL SUB AND CALLER EQ PUSH2 0xE01 JUMPI PUSH1 0x40 MLOAD PUSH3 0x461BCD PUSH1 0xE5 SHL DUP2 MSTORE PUSH1 0x4 ADD PUSH2 0x635 SWAP1 PUSH2 0x161F JUMP JUMPDEST PUSH1 0x7 SLOAD PUSH1 0x1 PUSH1 0x1 PUSH1 0xA0 SHL SUB AND PUSH1 0x0 SWAP1 DUP2 MSTORE PUSH1 0x8 PUSH1 0x20 MSTORE PUSH1 0x40 DUP2 KECCAK256 DUP2 SWAP1 SSTORE JUMPDEST PUSH1 0x9 SLOAD DUP2 LT ISZERO PUSH2 0xDB3 JUMPI PUSH1 0x0 PUSH1 0x8 PUSH1 0x0 PUSH1 0x9 DUP5 DUP2 SLOAD DUP2 LT PUSH2 0xE42 JUMPI PUSH2 0xE42 PUSH2 0x1643 JUMP JUMPDEST PUSH1 0x0 SWAP2 DUP3 MSTORE PUSH1 0x20 DUP1 DUP4 KECCAK256 SWAP1 SWAP2 ADD SLOAD PUSH1 0x1 PUSH1 0x1 PUSH1 0xA0 SHL SUB AND DUP4 MSTORE DUP3 ADD SWAP3 SWAP1 SWAP3 MSTORE PUSH1 0x40 ADD SWAP1 KECCAK256 SLOAD GT ISZERO PUSH2 0xF44 JUMPI PUSH1 0x0 PUSH1 0x8 PUSH1 0x0 PUSH1 0x9 DUP5 DUP2 SLOAD DUP2 LT PUSH2 0xE86 JUMPI PUSH2 0xE86 PUSH2 0x1643 JUMP JUMPDEST PUSH1 0x0 SWAP2 DUP3 MSTORE PUSH1 0x20 DUP1 DUP4 KECCAK256 SWAP1 SWAP2 ADD SLOAD PUSH1 0x1 PUSH1 0x1 PUSH1 0xA0 SHL SUB AND DUP4 MSTORE DUP3 ADD SWAP3 SWAP1 SWAP3 MSTORE PUSH1 0x40 ADD DUP2 KECCAK256 SLOAD PUSH1 0x9 DUP1 SLOAD SWAP2 SWAP4 POP PUSH1 0x8 SWAP2 DUP4 SWAP2 SWAP1 DUP7 SWAP1 DUP2 LT PUSH2 0xEC8 JUMPI PUSH2 0xEC8 PUSH2 0x1643 JUMP JUMPDEST PUSH1 0x0 SWAP2 DUP3 MSTORE PUSH1 0x20 DUP1 DUP4 KECCAK256 SWAP1 SWAP2 ADD SLOAD PUSH1 0x1 PUSH1 0x1 PUSH1 0xA0 SHL SUB AND DUP4 MSTORE DUP3 ADD SWAP3 SWAP1 SWAP3 MSTORE PUSH1 0x40 ADD SWAP1 KECCAK256 SSTORE PUSH1 0x9 DUP1 SLOAD DUP4 SWAP1 DUP2 LT PUSH2 0xF01 JUMPI PUSH2 0xF01 PUSH2 0x1643 JUMP JUMPDEST PUSH1 0x0 SWAP2 DUP3 MSTORE PUSH1 0x20 DUP3 KECCAK256 ADD SLOAD PUSH1 0x40 MLOAD PUSH1 0x1 PUSH1 0x1 PUSH1 0xA0 SHL SUB SWAP1 SWAP2 AND SWAP2 DUP4 ISZERO PUSH2 0x8FC MUL SWAP2 DUP5 SWAP2 DUP2 DUP2 DUP2 DUP6 DUP9 DUP9 CALL SWAP4 POP POP POP POP ISZERO DUP1 ISZERO PUSH2 0xF41 JUMPI RETURNDATASIZE PUSH1 0x0 DUP1 RETURNDATACOPY RETURNDATASIZE PUSH1 0x0 REVERT JUMPDEST POP POP JUMPDEST DUP1 PUSH2 0xF4E DUP2 PUSH2 0x15A5 JUMP JUMPDEST SWAP2 POP POP PUSH2 0xE1F JUMP JUMPDEST PUSH1 0x0 DUP1 SLOAD PUSH2 0xAAA SWAP1 PUSH2 0x15BE JUMP JUMPDEST PUSH1 0x0 PUSH2 0xF6E CALLER PUSH2 0x8DB JUMP JUMPDEST SWAP1 POP SWAP1 JUMP JUMPDEST PUSH1 0x6 SLOAD PUSH1 0x1 PUSH1 0x1 PUSH1 0xA0 SHL SUB AND CALLER EQ PUSH2 0xF9D JUMPI PUSH1 0x40 MLOAD PUSH3 0x461BCD PUSH1 0xE5 SHL DUP2 MSTORE PUSH1 0x4 ADD PUSH2 0x635 SWAP1 PUSH2 0x161F JUMP JUMPDEST PUSH1 0x0 PUSH2 0x8D7 DUP3 DUP3 PUSH2 0x16A7 JUMP JUMPDEST PUSH1 0x0 DUP2 DUP2 MSTORE PUSH1 0x10 PUSH1 0x20 MSTORE PUSH1 0x40 DUP2 KECCAK256 PUSH1 0x2 ADD SLOAD DUP4 GT PUSH2 0x1055 JUMPI PUSH1 0x40 MLOAD PUSH3 0x461BCD PUSH1 0xE5 SHL DUP2 MSTORE PUSH1 0x20 PUSH1 0x4 DUP3 ADD MSTORE PUSH1 0x5B PUSH1 0x24 DUP3 ADD MSTORE PUSH32 0x796F757220636F6E747269627574696F6E20616E64205F737461727453656172 PUSH1 0x44 DUP3 ADD MSTORE PUSH32 0x636820646F6573206E6F74206D616B652073656E73652C2069742077696C6C20 PUSH1 0x64 DUP3 ADD MSTORE PUSH32 0x73656172636820696E20612077726F6E6720646972656374696F6E0000000000 PUSH1 0x84 DUP3 ADD MSTORE PUSH1 0xA4 ADD PUSH2 0x635 JUMP JUMPDEST PUSH1 0x0 DUP3 DUP2 MSTORE PUSH1 0x10 PUSH1 0x20 SWAP1 DUP2 MSTORE PUSH1 0x40 DUP1 DUP4 KECCAK256 DUP2 MLOAD PUSH1 0x80 DUP1 DUP3 ADD DUP5 MSTORE DUP3 SLOAD DUP3 MSTORE PUSH1 0x1 DUP4 ADD SLOAD DUP3 DUP7 ADD MSTORE PUSH1 0x2 DUP4 ADD SLOAD DUP3 DUP6 ADD MSTORE PUSH1 0x3 SWAP1 SWAP3 ADD SLOAD PUSH1 0x1 PUSH1 0x1 PUSH1 0xA0 SHL SUB AND PUSH1 0x60 DUP1 DUP4 ADD SWAP2 SWAP1 SWAP2 MSTORE DUP4 MLOAD SWAP3 DUP4 ADD DUP5 MSTORE DUP6 DUP4 MSTORE SWAP4 DUP3 ADD DUP6 SWAP1 MSTORE SWAP2 DUP2 ADD DUP5 SWAP1 MSTORE SWAP2 DUP3 ADD SWAP3 SWAP1 SWAP3 MSTORE JUMPDEST POP PUSH1 0x20 DUP1 DUP3 ADD MLOAD PUSH1 0x0 SWAP1 DUP2 MSTORE PUSH1 0x10 DUP3 MSTORE PUSH1 0x40 SWAP1 DUP2 SWAP1 KECCAK256 DUP2 MLOAD PUSH1 0x80 DUP2 ADD DUP4 MSTORE DUP2 SLOAD DUP2 MSTORE PUSH1 0x1 DUP3 ADD SLOAD SWAP4 DUP2 ADD SWAP4 SWAP1 SWAP4 MSTORE PUSH1 0x2 DUP2 ADD SLOAD SWAP2 DUP4 ADD DUP3 SWAP1 MSTORE PUSH1 0x3 ADD SLOAD PUSH1 0x1 PUSH1 0x1 PUSH1 0xA0 SHL SUB AND PUSH1 0x60 DUP4 ADD MSTORE DUP6 LT ISZERO PUSH2 0x1117 JUMPI MLOAD SWAP2 POP PUSH2 0x111F SWAP1 POP JUMP JUMPDEST DUP1 SWAP2 POP PUSH2 0x10BB JUMP JUMPDEST SWAP3 SWAP2 POP POP JUMP JUMPDEST PUSH1 0x9 DUP2 DUP2 SLOAD DUP2 LT PUSH2 0x1135 JUMPI PUSH1 0x0 DUP1 REVERT JUMPDEST PUSH1 0x0 SWAP2 DUP3 MSTORE PUSH1 0x20 SWAP1 SWAP2 KECCAK256 ADD SLOAD PUSH1 0x1 PUSH1 0x1 PUSH1 0xA0 SHL SUB AND SWAP1 POP DUP2 JUMP JUMPDEST PUSH1 0x4 SLOAD TIMESTAMP GT PUSH2 0x1170 JUMPI PUSH1 0x40 MLOAD PUSH3 0x461BCD PUSH1 0xE5 SHL DUP2 MSTORE PUSH1 0x4 ADD PUSH2 0x635 SWAP1 PUSH2 0x15F8 JUMP JUMPDEST PUSH1 0x7 SLOAD PUSH1 0x1 PUSH1 0x1 PUSH1 0xA0 SHL SUB AND CALLER EQ PUSH2 0x11B8 JUMPI PUSH1 0x40 MLOAD PUSH3 0x461BCD PUSH1 0xE5 SHL DUP2 MSTORE PUSH1 0x20 PUSH1 0x4 DUP3 ADD MSTORE PUSH1 0xB PUSH1 0x24 DUP3 ADD MSTORE PUSH11 0x37B7363C903BB4B73732B9 PUSH1 0xA9 SHL PUSH1 0x44 DUP3 ADD MSTORE PUSH1 0x64 ADD PUSH2 0x635 JUMP JUMPDEST PUSH1 0x1 PUSH2 0x8D7 DUP3 DUP3 PUSH2 0x16A7 JUMP JUMPDEST PUSH1 0x1 PUSH1 0x1 PUSH1 0xA0 SHL SUB DUP2 AND PUSH1 0x0 SWAP1 DUP2 MSTORE PUSH1 0x11 PUSH1 0x20 MSTORE PUSH1 0x40 SWAP1 KECCAK256 SLOAD DUP1 PUSH2 0x125E JUMPI PUSH1 0x40 MLOAD PUSH3 0x461BCD PUSH1 0xE5 SHL DUP2 MSTORE PUSH1 0x20 PUSH1 0x4 DUP3 ADD MSTORE PUSH1 0x44 PUSH1 0x24 DUP3 ADD DUP2 SWAP1 MSTORE PUSH32 0x7468652067757920776974682074686973206164647265737320646F6573206E SWAP1 DUP3 ADD MSTORE PUSH32 0x6F742065786973742C206D616B6573206E6F2073656E736520746F2077697468 PUSH1 0x64 DUP3 ADD MSTORE PUSH4 0x64726177 PUSH1 0xE0 SHL PUSH1 0x84 DUP3 ADD MSTORE PUSH1 0xA4 ADD PUSH2 0x635 JUMP JUMPDEST PUSH1 0x0 PUSH2 0x1269 DUP4 PUSH2 0x8DB JUMP JUMPDEST SWAP1 POP PUSH1 0xE SLOAD DUP2 GT PUSH2 0x12D7 JUMPI PUSH1 0x40 MLOAD PUSH3 0x461BCD PUSH1 0xE5 SHL DUP2 MSTORE PUSH1 0x20 PUSH1 0x4 DUP3 ADD MSTORE PUSH1 0x32 PUSH1 0x24 DUP3 ADD MSTORE PUSH32 0x6F6E6C7920746865206E6F6E2D77696E6E696E67206D756C7469706C65426964 PUSH1 0x44 DUP3 ADD MSTORE PUSH18 0x399031B0B7103132903BB4BA34323930BBB7 PUSH1 0x71 SHL PUSH1 0x64 DUP3 ADD MSTORE PUSH1 0x84 ADD PUSH2 0x635 JUMP JUMPDEST PUSH1 0x0 DUP3 DUP2 MSTORE PUSH1 0x10 PUSH1 0x20 DUP2 DUP2 MSTORE PUSH1 0x40 DUP1 DUP5 KECCAK256 DUP2 MLOAD PUSH1 0x80 DUP2 ADD DUP4 MSTORE DUP2 SLOAD DUP1 DUP3 MSTORE PUSH1 0x1 DUP1 DUP5 ADD DUP1 SLOAD DUP5 DUP9 ADD DUP2 DUP2 MSTORE PUSH1 0x2 DUP8 ADD DUP1 SLOAD DUP8 DUP11 ADD MSTORE PUSH1 0x3 DUP9 ADD DUP1 SLOAD PUSH1 0x1 PUSH1 0x1 PUSH1 0xA0 SHL SUB AND PUSH1 0x60 DUP10 ADD MSTORE SWAP6 DUP13 MSTORE SWAP10 DUP10 MSTORE DUP8 DUP12 KECCAK256 SWAP1 SWAP4 ADD SSTORE DUP4 MLOAD SWAP2 MLOAD DUP10 MSTORE DUP6 DUP10 KECCAK256 SWAP2 SWAP1 SWAP2 SSTORE SWAP3 DUP8 SWAP1 SSTORE SWAP2 DUP7 SWAP1 SSTORE SWAP4 DUP6 SWAP1 SSTORE DUP1 SLOAD PUSH1 0x1 PUSH1 0x1 PUSH1 0xA0 SHL SUB NOT AND SWAP1 SSTORE CALLER DUP5 MSTORE PUSH1 0x11 SWAP1 SWAP2 MSTORE DUP3 KECCAK256 DUP3 SWAP1 SSTORE PUSH1 0xD DUP1 SLOAD SWAP2 SWAP3 PUSH2 0x1370 DUP4 PUSH2 0x1767 JUMP JUMPDEST SWAP1 SWAP2 SSTORE POP POP PUSH1 0x40 DUP1 DUP3 ADD MLOAD DUP2 MLOAD SWAP1 DUP2 MSTORE TIMESTAMP PUSH1 0x20 DUP3 ADD MSTORE PUSH1 0x1 PUSH1 0x1 PUSH1 0xA0 SHL SUB DUP7 AND SWAP2 PUSH32 0x73F04AF9DCC582A923EC15D3EEA990FE34ADABFFF2879E28D44572E01A54ABB6 SWAP2 ADD PUSH1 0x40 MLOAD DUP1 SWAP2 SUB SWAP1 LOG2 PUSH1 0x40 DUP1 DUP3 ADD MLOAD SWAP1 MLOAD PUSH1 0x1 PUSH1 0x1 PUSH1 0xA0 SHL SUB DUP7 AND SWAP2 DUP1 ISZERO PUSH2 0x8FC MUL SWAP2 PUSH1 0x0 DUP2 DUP2 DUP2 DUP6 DUP9 DUP9 CALL SWAP4 POP POP POP POP ISZERO DUP1 ISZERO PUSH2 0x13F5 JUMPI RETURNDATASIZE PUSH1 0x0 DUP1 RETURNDATACOPY RETURNDATASIZE PUSH1 0x0 REVERT JUMPDEST POP POP POP POP POP JUMP JUMPDEST PUSH1 0x0 PUSH1 0x20 DUP3 DUP5 SUB SLT ISZERO PUSH2 0x140E JUMPI PUSH1 0x0 DUP1 REVERT JUMPDEST POP CALLDATALOAD SWAP2 SWAP1 POP JUMP JUMPDEST PUSH1 0x0 PUSH1 0x20 DUP3 DUP5 SUB SLT ISZERO PUSH2 0x1427 JUMPI PUSH1 0x0 DUP1 REVERT JUMPDEST DUP2 CALLDATALOAD PUSH1 0x1 PUSH1 0x1 PUSH1 0xA0 SHL SUB DUP2 AND DUP2 EQ PUSH2 0x143E JUMPI PUSH1 0x0 DUP1 REVERT JUMPDEST SWAP4 SWAP3 POP POP POP JUMP JUMPDEST PUSH1 0x0 PUSH1 0x20 DUP1 DUP4 MSTORE DUP4 MLOAD DUP1 DUP3 DUP6 ADD MSTORE PUSH1 0x0 JUMPDEST DUP2 DUP2 LT ISZERO PUSH2 0x1472 JUMPI DUP6 DUP2 ADD DUP4 ADD MLOAD DUP6 DUP3 ADD PUSH1 0x40 ADD MSTORE DUP3 ADD PUSH2 0x1456 JUMP JUMPDEST POP PUSH1 0x0 PUSH1 0x40 DUP3 DUP7 ADD ADD MSTORE PUSH1 0x40 PUSH1 0x1F NOT PUSH1 0x1F DUP4 ADD AND DUP6 ADD ADD SWAP3 POP POP POP SWAP3 SWAP2 POP POP JUMP JUMPDEST PUSH4 0x4E487B71 PUSH1 0xE0 SHL PUSH1 0x0 MSTORE PUSH1 0x41 PUSH1 0x4 MSTORE PUSH1 0x24 PUSH1 0x0 REVERT JUMPDEST PUSH1 0x0 PUSH1 0x20 DUP3 DUP5 SUB SLT ISZERO PUSH2 0x14BB JUMPI PUSH1 0x0 DUP1 REVERT JUMPDEST DUP2 CALLDATALOAD PUSH8 0xFFFFFFFFFFFFFFFF DUP1 DUP3 GT ISZERO PUSH2 0x14D3 JUMPI PUSH1 0x0 DUP1 REVERT JUMPDEST DUP2 DUP5 ADD SWAP2 POP DUP5 PUSH1 0x1F DUP4 ADD SLT PUSH2 0x14E7 JUMPI PUSH1 0x0 DUP1 REVERT JUMPDEST DUP2 CALLDATALOAD DUP2 DUP2 GT ISZERO PUSH2 0x14F9 JUMPI PUSH2 0x14F9 PUSH2 0x1493 JUMP JUMPDEST PUSH1 0x40 MLOAD PUSH1 0x1F DUP3 ADD PUSH1 0x1F NOT SWAP1 DUP2 AND PUSH1 0x3F ADD AND DUP2 ADD SWAP1 DUP4 DUP3 GT DUP2 DUP4 LT OR ISZERO PUSH2 0x1521 JUMPI PUSH2 0x1521 PUSH2 0x1493 JUMP JUMPDEST DUP2 PUSH1 0x40 MSTORE DUP3 DUP2 MSTORE DUP8 PUSH1 0x20 DUP5 DUP8 ADD ADD GT ISZERO PUSH2 0x153A JUMPI PUSH1 0x0 DUP1 REVERT JUMPDEST DUP3 PUSH1 0x20 DUP7 ADD PUSH1 0x20 DUP4 ADD CALLDATACOPY PUSH1 0x0 SWAP3 DUP2 ADD PUSH1 0x20 ADD SWAP3 SWAP1 SWAP3 MSTORE POP SWAP6 SWAP5 POP POP POP POP POP JUMP JUMPDEST PUSH1 0x0 DUP1 PUSH1 0x40 DUP4 DUP6 SUB SLT ISZERO PUSH2 0x156D JUMPI PUSH1 0x0 DUP1 REVERT JUMPDEST POP POP DUP1 CALLDATALOAD SWAP3 PUSH1 0x20 SWAP1 SWAP2 ADD CALLDATALOAD SWAP2 POP JUMP JUMPDEST PUSH4 0x4E487B71 PUSH1 0xE0 SHL PUSH1 0x0 MSTORE PUSH1 0x11 PUSH1 0x4 MSTORE PUSH1 0x24 PUSH1 0x0 REVERT JUMPDEST DUP1 DUP3 ADD DUP1 DUP3 GT ISZERO PUSH2 0x111F JUMPI PUSH2 0x111F PUSH2 0x157C JUMP JUMPDEST PUSH1 0x0 PUSH1 0x1 DUP3 ADD PUSH2 0x15B7 JUMPI PUSH2 0x15B7 PUSH2 0x157C JUMP JUMPDEST POP PUSH1 0x1 ADD SWAP1 JUMP JUMPDEST PUSH1 0x1 DUP2 DUP2 SHR SWAP1 DUP3 AND DUP1 PUSH2 0x15D2 JUMPI PUSH1 0x7F DUP3 AND SWAP2 POP JUMPDEST PUSH1 0x20 DUP3 LT DUP2 SUB PUSH2 0x15F2 JUMPI PUSH4 0x4E487B71 PUSH1 0xE0 SHL PUSH1 0x0 MSTORE PUSH1 0x22 PUSH1 0x4 MSTORE PUSH1 0x24 PUSH1 0x0 REVERT JUMPDEST POP SWAP2 SWAP1 POP JUMP JUMPDEST PUSH1 0x20 DUP1 DUP3 MSTORE PUSH1 0xD SWAP1 DUP3 ADD MSTORE PUSH13 0x1B9BDD08195B991959081E595D PUSH1 0x9A SHL PUSH1 0x40 DUP3 ADD MSTORE PUSH1 0x60 ADD SWAP1 JUMP JUMPDEST PUSH1 0x20 DUP1 DUP3 MSTORE PUSH1 0xA SWAP1 DUP3 ADD MSTORE PUSH10 0x37B7363C9037BBB732B9 PUSH1 0xB1 SHL PUSH1 0x40 DUP3 ADD MSTORE PUSH1 0x60 ADD SWAP1 JUMP JUMPDEST PUSH4 0x4E487B71 PUSH1 0xE0 SHL PUSH1 0x0 MSTORE PUSH1 0x32 PUSH1 0x4 MSTORE PUSH1 0x24 PUSH1 0x0 REVERT JUMPDEST PUSH1 0x1F DUP3 GT ISZERO PUSH2 0x6FF JUMPI PUSH1 0x0 DUP2 DUP2 MSTORE PUSH1 0x20 DUP2 KECCAK256 PUSH1 0x1F DUP6 ADD PUSH1 0x5 SHR DUP2 ADD PUSH1 0x20 DUP7 LT ISZERO PUSH2 0x1680 JUMPI POP DUP1 JUMPDEST PUSH1 0x1F DUP6 ADD PUSH1 0x5 SHR DUP3 ADD SWAP2 POP JUMPDEST DUP2 DUP2 LT ISZERO PUSH2 0x169F JUMPI DUP3 DUP2 SSTORE PUSH1 0x1 ADD PUSH2 0x168C JUMP JUMPDEST POP POP POP POP POP POP JUMP JUMPDEST DUP2 MLOAD PUSH8 0xFFFFFFFFFFFFFFFF DUP2 GT ISZERO PUSH2 0x16C1 JUMPI PUSH2 0x16C1 PUSH2 0x1493 JUMP JUMPDEST PUSH2 0x16D5 DUP2 PUSH2 0x16CF DUP5 SLOAD PUSH2 0x15BE JUMP JUMPDEST DUP5 PUSH2 0x1659 JUMP JUMPDEST PUSH1 0x20 DUP1 PUSH1 0x1F DUP4 GT PUSH1 0x1 DUP2 EQ PUSH2 0x170A JUMPI PUSH1 0x0 DUP5 ISZERO PUSH2 0x16F2 JUMPI POP DUP6 DUP4 ADD MLOAD JUMPDEST PUSH1 0x0 NOT PUSH1 0x3 DUP7 SWAP1 SHL SHR NOT AND PUSH1 0x1 DUP6 SWAP1 SHL OR DUP6 SSTORE PUSH2 0x169F JUMP JUMPDEST PUSH1 0x0 DUP6 DUP2 MSTORE PUSH1 0x20 DUP2 KECCAK256 PUSH1 0x1F NOT DUP7 AND SWAP2 JUMPDEST DUP3 DUP2 LT ISZERO PUSH2 0x1739 JUMPI DUP9 DUP7 ADD MLOAD DUP3 SSTORE SWAP5 DUP5 ADD SWAP5 PUSH1 0x1 SWAP1 SWAP2 ADD SWAP1 DUP5 ADD PUSH2 0x171A JUMP JUMPDEST POP DUP6 DUP3 LT ISZERO PUSH2 0x1757 JUMPI DUP8 DUP6 ADD MLOAD PUSH1 0x0 NOT PUSH1 0x3 DUP9 SWAP1 SHL PUSH1 0xF8 AND SHR NOT AND DUP2 SSTORE JUMPDEST POP POP POP POP POP PUSH1 0x1 SWAP1 DUP2 SHL ADD SWAP1 SSTORE POP JUMP JUMPDEST PUSH1 0x0 DUP2 PUSH2 0x1776 JUMPI PUSH2 0x1776 PUSH2 0x157C JUMP JUMPDEST POP PUSH1 0x0 NOT ADD SWAP1 JUMP INVALID LOG2 PUSH5 0x6970667358 0x22 SLT KECCAK256 CALLDATACOPY 0xD3 0xD7 0x2F ADDRESS PUSH3 0x37CF0E 0xDA 0x4B 0xA8 SWAP12 0xB5 0xB8 0x5D PUSH11 0x341262E77A00124DEA4654 JUMPDEST 0x29 DUP4 DUP2 PUSH5 0x736F6C6343 STOP ADDMOD SLT STOP CALLER "},"methodIdentifiers":{"HEAD()":"1a701609","LIMIT()":"af8214ef","TAIL()":"c628ddc3","acceptedBids()":"cb743840","accountsList(uint256)":"cf9b3c8d","beneficiary()":"38af3eed","bid()":"1998aeef","bids(address)":"62ea82db","contributors(address)":"1f6d4942","description()":"7284e416","finalize()":"4bb278f3","finalized()":"b3f05b97","getPosition()":"7398ab18","getPosition(address)":"16c19739","howMany()":"62ab8cc1","increaseTimeBy()":"c6eeeb04","increaseTimeIfBidBeforeEnd()":"66aef95b","initialPrice()":"1d0806ae","instructions()":"30bbb55e","lastBidID()":"57f196fa","multipleBids(uint256)":"14a4e4d6","owner()":"8da5cb5b","price()":"a035b1fe","refund()":"590e1ae3","refundContributors()":"56c7f461","refundOnBehalf(address)":"5104cb5c","searchInsertionPoint(uint256,uint256)":"a9d49f62","setDescription(string)":"90c3f38f","setInstructions(string)":"f5738bcd","timestampEnd()":"041abd9f","winner()":"dfbf53ae"}}}}}