{"contracts/AuctionMultipleGuaranteed.sol":{"AuctionMultipleGuaranteed":{"abi":[{"inputs":[{"internalType":"uint256","name":"_price","type":"uint256"},{"internalType":"string","name":"_description","type":"string"},{"internalType":"uint256","name":"_timestampEnd","type":"uint256"},{"internalType":"address","name":"_beneficiary","type":"address"},{"internalType":"uint256","name":"_howMany","type":"uint256"},{"internalType":"uint256","name":"_howManyGuaranteed","type":"uint256"},{"internalType":"uint256","name":"_priceGuaranteed","type":"uint256"}],"stateMutability":"nonpayable","type":"constructor"},{"anonymous":false,"inputs":[{"indexed":true,"internalType":"address","name":"winner","type":"address"},{"indexed":true,"internalType":"uint256","name":"price","type":"uint256"},{"indexed":true,"internalType":"uint256","name":"timestamp","type":"uint256"}],"name":"BidEvent","type":"event"},{"anonymous":false,"inputs":[{"indexed":false,"internalType":"address","name":"addr","type":"address"},{"indexed":false,"internalType":"uint256","name":"value","type":"uint256"}],"name":"GuaranteedBid","type":"event"},{"anonymous":false,"inputs":[{"indexed":false,"internalType":"address","name":"addr","type":"address"}],"name":"LogAddress","type":"event"},{"anonymous":false,"inputs":[{"indexed":false,"internalType":"uint256","name":"number","type":"uint256"}],"name":"LogNumber","type":"event"},{"anonymous":false,"inputs":[{"indexed":false,"internalType":"string","name":"text","type":"string"}],"name":"LogText","type":"event"},{"anonymous":false,"inputs":[{"indexed":true,"internalType":"address","name":"addr","type":"address"},{"indexed":false,"internalType":"uint256","name":"value","type":"uint256"},{"indexed":false,"internalType":"uint256","name":"timestamp","type":"uint256"}],"name":"Refund","type":"event"},{"inputs":[],"name":"HEAD","outputs":[{"internalType":"uint256","name":"","type":"uint256"}],"stateMutability":"view","type":"function"},{"inputs":[],"name":"LIMIT","outputs":[{"internalType":"uint256","name":"","type":"uint256"}],"stateMutability":"view","type":"function"},{"inputs":[],"name":"TAIL","outputs":[{"internalType":"uint256","name":"","type":"uint256"}],"stateMutability":"view","type":"function"},{"inputs":[],"name":"acceptedBids","outputs":[{"internalType":"uint256","name":"","type":"uint256"}],"stateMutability":"view","type":"function"},{"inputs":[{"internalType":"uint256","name":"","type":"uint256"}],"name":"accountsList","outputs":[{"internalType":"address","name":"","type":"address"}],"stateMutability":"view","type":"function"},{"inputs":[],"name":"beneficiary","outputs":[{"internalType":"address","name":"","type":"address"}],"stateMutability":"view","type":"function"},{"inputs":[],"name":"bid","outputs":[],"stateMutability":"payable","type":"function"},{"inputs":[{"internalType":"address","name":"","type":"address"}],"name":"bids","outputs":[{"internalType":"uint256","name":"","type":"uint256"}],"stateMutability":"view","type":"function"},{"inputs":[{"internalType":"address","name":"","type":"address"}],"name":"contributors","outputs":[{"internalType":"uint256","name":"","type":"uint256"}],"stateMutability":"view","type":"function"},{"inputs":[],"name":"description","outputs":[{"internalType":"string","name":"","type":"string"}],"stateMutability":"view","type":"function"},{"inputs":[],"name":"finalize","outputs":[],"stateMutability":"nonpayable","type":"function"},{"inputs":[],"name":"finalized","outputs":[{"internalType":"bool","name":"","type":"bool"}],"stateMutability":"view","type":"function"},{"inputs":[{"internalType":"address","name":"addr","type":"address"}],"name":"getPosition","outputs":[{"internalType":"uint256","name":"","type":"uint256"}],"stateMutability":"view","type":"function"},{"inputs":[],"name":"getPosition","outputs":[{"internalType":"uint256","name":"","type":"uint256"}],"stateMutability":"view","type":"function"},{"inputs":[{"internalType":"address","name":"","type":"address"}],"name":"guaranteedContributions","outputs":[{"internalType":"uint256","name":"","type":"uint256"}],"stateMutability":"view","type":"function"},{"inputs":[{"internalType":"uint256","name":"","type":"uint256"}],"name":"guaranteedContributors","outputs":[{"internalType":"address","name":"","type":"address"}],"stateMutability":"view","type":"function"},{"inputs":[],"name":"howMany","outputs":[{"internalType":"uint256","name":"","type":"uint256"}],"stateMutability":"view","type":"function"},{"inputs":[],"name":"howManyGuaranteed","outputs":[{"internalType":"uint256","name":"","type":"uint256"}],"stateMutability":"view","type":"function"},{"inputs":[],"name":"increaseTimeBy","outputs":[{"internalType":"uint256","name":"","type":"uint256"}],"stateMutability":"view","type":"function"},{"inputs":[],"name":"increaseTimeIfBidBeforeEnd","outputs":[{"internalType":"uint256","name":"","type":"uint256"}],"stateMutability":"view","type":"function"},{"inputs":[],"name":"initialPrice","outputs":[{"internalType":"bool","name":"","type":"bool"}],"stateMutability":"view","type":"function"},{"inputs":[],"name":"instructions","outputs":[{"internalType":"string","name":"","type":"string"}],"stateMutability":"view","type":"function"},{"inputs":[],"name":"lastBidID","outputs":[{"internalType":"uint256","name":"","type":"uint256"}],"stateMutability":"view","type":"function"},{"inputs":[{"internalType":"uint256","name":"","type":"uint256"}],"name":"multipleBids","outputs":[{"internalType":"uint256","name":"prev","type":"uint256"},{"internalType":"uint256","name":"next","type":"uint256"},{"internalType":"uint256","name":"value","type":"uint256"},{"internalType":"address","name":"contributor","type":"address"}],"stateMutability":"view","type":"function"},{"inputs":[],"name":"owner","outputs":[{"internalType":"address","name":"","type":"address"}],"stateMutability":"view","type":"function"},{"inputs":[],"name":"price","outputs":[{"internalType":"uint256","name":"","type":"uint256"}],"stateMutability":"view","type":"function"},{"inputs":[],"name":"priceGuaranteed","outputs":[{"internalType":"uint256","name":"","type":"uint256"}],"stateMutability":"view","type":"function"},{"inputs":[],"name":"refund","outputs":[],"stateMutability":"nonpayable","type":"function"},{"inputs":[],"name":"refundContributors","outputs":[],"stateMutability":"nonpayable","type":"function"},{"inputs":[{"internalType":"address","name":"addr","type":"address"}],"name":"refundOnBehalf","outputs":[],"stateMutability":"nonpayable","type":"function"},{"inputs":[{"internalType":"uint256","name":"_contribution","type":"uint256"},{"internalType":"uint256","name":"_startSearch","type":"uint256"}],"name":"searchInsertionPoint","outputs":[{"internalType":"uint256","name":"insertionPoint","type":"uint256"}],"stateMutability":"view","type":"function"},{"inputs":[{"internalType":"string","name":"_description","type":"string"}],"name":"setDescription","outputs":[],"stateMutability":"nonpayable","type":"function"},{"inputs":[{"internalType":"string","name":"_instructions","type":"string"}],"name":"setInstructions","outputs":[],"stateMutability":"nonpayable","type":"function"},{"inputs":[],"name":"timestampEnd","outputs":[{"internalType":"uint256","name":"","type":"uint256"}],"stateMutability":"view","type":"function"},{"inputs":[],"name":"winner","outputs":[{"internalType":"address","name":"","type":"address"}],"stateMutability":"view","type":"function"},{"stateMutability":"payable","type":"receive"}],"evm":{"bytecode":{"linkReferences":{},"object":"60806040526003805460ff191660011790556005805460ff60a01b1916905562015180600a819055600b556000600c819055600d819055600f553480156200004657600080fd5b506040516200222d3803806200222d833981016040819052620000699162000501565b868686868684848484428211620000d85760405162461bcd60e51b815260206004820152602860248201527f656e64206f66207468652061756374696f6e206d75737420626520696e207468604482015267652066757475726560c01b60648201526084015b60405180910390fd5b600680546001600160a01b0319163317905560028490556000620000fd8482620006a9565b50600491909155600580546001600160a01b0319166001600160a01b03909216919091179055505060018111620001e95760405162461bcd60e51b815260206004820152607e60248201527f546869732061756374696f6e2069732073756974656420746f206d756c74697060448201527f6c65206974656d732e20576974682031206974656d206f6e6c79202d2075736560648201527f20646966666572656e7420636f64652e204f722072656d6f766520746869732060848201527f277265717569726527202d20796f75277665206265656e207761726e6564000060a482015260c401620000cf565b600e5550506040805160808082018352600080835260208084018281526a6342fd08f00f63780000008587018181526060808801868152838752601080875298517f4193530f6c284e7b0a4b615c0de01680c53039e6f8a59bdb9d7393e1b9ee7c145593517f4193530f6c284e7b0a4b615c0de01680c53039e6f8a59bdb9d7393e1b9ee7c155590517f4193530f6c284e7b0a4b615c0de01680c53039e6f8a59bdb9d7393e1b9ee7c165591517f4193530f6c284e7b0a4b615c0de01680c53039e6f8a59bdb9d7393e1b9ee7c1780546001600160a01b03199081166001600160a01b0393841617909155885196870189528287528685019283529786018581529286018581529480529590925292517f6e0956cda88cad152e89927e53611735b61a5c762d1428573c6931b0a5efcb0155517f6e0956cda88cad152e89927e53611735b61a5c762d1428573c6931b0a5efcb025590517f6e0956cda88cad152e89927e53611735b61a5c762d1428573c6931b0a5efcb0355517f6e0956cda88cad152e89927e53611735b61a5c762d1428573c6931b0a5efcb0480549093169116179055505081831015620004545760405162461bcd60e51b815260206004820152607860248201527f546865206e756d626572206f662067756172616e74656564206974656d73207360448201527f686f756c64206265206c657373206f7220657175616c207468616e20746f746160648201527f6c206974656d732e20496620657175616c203d2066697865642070726963652060848201527f73656c6c2c206b696e64206f66204f4b2077697468206d65000000000000000060a482015260c401620000cf565b60008111620004b95760405162461bcd60e51b815260206004820152602a60248201527f47756172616e74656564207072696365206d7573742062652067726561746572604482015269207468616e207a65726f60b01b6064820152608401620000cf565b60129190915560135550620007759350505050565b634e487b7160e01b600052604160045260246000fd5b80516001600160a01b0381168114620004fc57600080fd5b919050565b600080600080600080600060e0888a0312156200051d57600080fd5b87516020808a0151919850906001600160401b03808211156200053f57600080fd5b818b0191508b601f8301126200055457600080fd5b815181811115620005695762000569620004ce565b604051601f8201601f19908116603f01168101908382118183101715620005945762000594620004ce565b816040528281528e86848701011115620005ad57600080fd5b600093505b82841015620005d15784840186015181850187015292850192620005b2565b6000868483010152809b5050505050505060408801519450620005f760608901620004e4565b93506080880151925060a0880151915060c0880151905092959891949750929550565b600181811c908216806200062f57607f821691505b6020821081036200065057634e487b7160e01b600052602260045260246000fd5b50919050565b601f821115620006a457600081815260208120601f850160051c810160208610156200067f5750805b601f850160051c820191505b81811015620006a0578281556001016200068b565b5050505b505050565b81516001600160401b03811115620006c557620006c5620004ce565b620006dd81620006d684546200061a565b8462000656565b602080601f831160018114620007155760008415620006fc5750858301515b600019600386901b1c1916600185901b178555620006a0565b600085815260208120601f198616915b82811015620007465788860151825594840194600190910190840162000725565b5085821015620007655787850151600019600388901b60f8161c191681555b5050505050600190811b01905550565b611aa880620007856000396000f3fe6080604052600436106102085760003560e01c80636641da8011610118578063b3f05b97116100a0578063cb7438401161006f578063cb7438401461074e578063cf9b3c8d14610764578063dfbf53ae14610784578063ec6f6ea4146107a4578063f5738bcd146107d157600080fd5b8063b3f05b97146106ec578063b7dc5c111461070d578063c628ddc314610723578063c6eeeb041461073857600080fd5b80638da5cb5b116100e75780638da5cb5b1461066057806390c3f38f14610680578063a035b1fe146106a0578063a9d49f62146106b6578063af8214ef146106d657600080fd5b80636641da801461060057806366aef95b146106205780637284e416146106365780637398ab181461064b57600080fd5b806330bbb55e1161019b57806356c7f4611161016a57806356c7f4611461057d57806357f196fa14610592578063590e1ae3146105a857806362ab8cc1146105bd57806362ea82db146105d357600080fd5b806330bbb55e146104ee57806338af3eed146105105780634bb278f3146105485780635104cb5c1461055d57600080fd5b80631998aeef116101d75780631998aeef146103985780631a701609146104785780631d0806ae146104975780631f6d4942146104c157600080fd5b8063041abd9f146103a5578063114b4f1c146103ce57806314a4e4d6146103e457806316c197391461045857600080fd5b366103a0573460000361021f5761021d6107f1565b005b60045442106102495760405162461bcd60e51b8152600401610240906116af565b60405180910390fd5b33600090815260156020526040902054156102cc5760405162461bcd60e51b815260206004820152603760248201527f616c726561647920612067756172616e7465656420636f6e7472696275746f7260448201527f2c2063616e6e6f74206d6f7265207468616e206f6e63650000000000000000006064820152608401610240565b60135434101580156102e057506000601254115b156103985760148054600181019091557fce6d7b5282bd9a3661ae061feed1dbda4e52ab073b1f9285be6e155d9c38d4ec0180546001600160a01b031916339081179091556000908152601560205260408120349055601280549161034483611706565b9091555050600e805490600061035983611706565b9091555050604080513381523460208201527ff2d599bb8cbfb83f7aaefa6562a40c939d41ed0d64ba6e32a331fa174f9aa35f910160405180910390a1005b61021d6107fc565b600080fd5b3480156103b157600080fd5b506103bb60045481565b6040519081526020015b60405180910390f35b3480156103da57600080fd5b506103bb60125481565b3480156103f057600080fd5b5061042f6103ff36600461171d565b6010602052600090815260409020805460018201546002830154600390930154919290916001600160a01b031684565b604080519485526020850193909352918301526001600160a01b031660608201526080016103c5565b34801561046457600080fd5b506103bb610473366004611736565b610aba565b34801561048457600080fd5b506103bb6a6342fd08f00f637800000081565b3480156104a357600080fd5b506003546104b19060ff1681565b60405190151581526020016103c5565b3480156104cd57600080fd5b506103bb6104dc366004611736565b60116020526000908152604090205481565b3480156104fa57600080fd5b50610503610c7c565b6040516103c59190611766565b34801561051c57600080fd5b50600554610530906001600160a01b031681565b6040516001600160a01b0390911681526020016103c5565b34801561055457600080fd5b5061021d610d0a565b34801561056957600080fd5b5061021d610578366004611736565b611023565b34801561058957600080fd5b5061021d611059565b34801561059e57600080fd5b506103bb600c5481565b3480156105b457600080fd5b5061021d6107f1565b3480156105c957600080fd5b506103bb600e5481565b3480156105df57600080fd5b506103bb6105ee366004611736565b60086020526000908152604090205481565b34801561060c57600080fd5b5061053061061b36600461171d565b6111f9565b34801561062c57600080fd5b506103bb600a5481565b34801561064257600080fd5b50610503611223565b34801561065757600080fd5b506103bb611230565b34801561066c57600080fd5b50600654610530906001600160a01b031681565b34801561068c57600080fd5b5061021d61069b3660046117ca565b611240565b3480156106ac57600080fd5b506103bb60025481565b3480156106c257600080fd5b506103bb6106d136600461187b565b611276565b3480156106e257600080fd5b506103bb6107d081565b3480156106f857600080fd5b506005546104b190600160a01b900460ff1681565b34801561071957600080fd5b506103bb60135481565b34801561072f57600080fd5b506103bb600081565b34801561074457600080fd5b506103bb600b5481565b34801561075a57600080fd5b506103bb600d5481565b34801561077057600080fd5b5061053061077f36600461171d565b6113f2565b34801561079057600080fd5b50600754610530906001600160a01b031681565b3480156107b057600080fd5b506103bb6107bf366004611736565b60156020526000908152604090205481565b3480156107dd57600080fd5b5061021d6107ec3660046117ca565b611402565b6107fa33611477565b565b600454421061081d5760405162461bcd60e51b8152600401610240906116af565b336000908152601160205260408120549081156108e35760008281526010602052604081206002810180549192349261085790849061189d565b9091555050600181015460009081526010602052604090206002908101549082015411156108de5761089181600201548260010154611276565b600180830180548454600090815260106020526040808220850183905586549282528082209290925584865584815281812090930180549283905591835282208690559082905284905591505b505050565b60025434101561095b5760405162461bcd60e51b815260206004820152603b60248201527f4e6f74206d7563682073656e73652073656e64696e67206c657373207468616e60448201527f207468652070726963652c206c696b656c7920616e206572726f7200000000006064820152608401610240565b6107d0600c54106109e35760405162461bcd60e51b815260206004820152604660248201527f44756520746f20626c6f636b476173206c696d6974207765206c696d6974206e60448201527f756d626572206f662070656f706c6520696e207468652061756374696f6e207460648201526506f20323030360d41b608482015260a401610240565b600c80549060006109f3836118b0565b9091555050600d8054906000610a08836118b0565b9190505550610a18346000611276565b600c805433600081815260116020908152604080832085905580516080810182528781528784526010808452828520600190810180548487019081523485870190815260608601998a529988529290955283862092518355905190820155945160028601559251600390940180546001600160a01b0319166001600160a01b0390951694909417909355925482548452908320819055918390525590505b5050565b6001600160a01b038116600090815260116020526040812054808203610b485760405162461bcd60e51b815260206004820152603960248201527f63616e6e6f742061736b20666f72206120706f736974696f6e206f662061206760448201527f75792077686f206973206e6f74206f6e20746865206c697374000000000000006064820152608401610240565b6a6342fd08f00f637800000060005260106020908152604080516080810182527f4193530f6c284e7b0a4b615c0de01680c53039e6f8a59bdb9d7393e1b9ee7c145481527f4193530f6c284e7b0a4b615c0de01680c53039e6f8a59bdb9d7393e1b9ee7c1554928101929092527f4193530f6c284e7b0a4b615c0de01680c53039e6f8a59bdb9d7393e1b9ee7c1654908201527f4193530f6c284e7b0a4b615c0de01680c53039e6f8a59bdb9d7393e1b9ee7c17546001600160a01b031660608201526001905b80518314610c7457516000908152601060209081526040918290208251608081018452815481526001820154928101929092526002810154928201929092526003909101546001600160a01b0316606082015281610c6c816118b0565b925050610c0f565b509392505050565b60018054610c89906118c9565b80601f0160208091040260200160405190810160405280929190818152602001828054610cb5906118c9565b8015610d025780601f10610cd757610100808354040283529160200191610d02565b820191906000526020600020905b815481529060010190602001808311610ce557829003601f168201915b505050505081565b6004544211610d2b5760405162461bcd60e51b815260040161024090611903565b6006546001600160a01b03163314610d555760405162461bcd60e51b81526004016102409061192a565b600554600160a01b900460ff1615610dc95760405162461bcd60e51b815260206004820152603160248201527f61756374696f6e20616c72656164792066696e616c697a65642c2063616e207760448201527069746864726177206f6e6c79206f6e636560781b6064820152608401610240565b6005805460ff60a01b1916600160a01b1790556a6342fd08f00f6378000000600090815260106020908152604080516080810182527f4193530f6c284e7b0a4b615c0de01680c53039e6f8a59bdb9d7393e1b9ee7c145481527f4193530f6c284e7b0a4b615c0de01680c53039e6f8a59bdb9d7393e1b9ee7c1554928101929092527f4193530f6c284e7b0a4b615c0de01680c53039e6f8a59bdb9d7393e1b9ee7c1654908201527f4193530f6c284e7b0a4b615c0de01680c53039e6f8a59bdb9d7393e1b9ee7c17546001600160a01b0316606082015281905b600e5482610eb1816118b0565b9350108015610ec05750805115155b15610f1f57516000908152601060209081526040918290208251608081018452815481526001820154928101929092526002810154928201839052600301546001600160a01b0316606082015290610f18908461189d565b9250610ea4565b60005b601454811015610f86576015600060148381548110610f4357610f4361194e565b60009182526020808320909101546001600160a01b03168352820192909252604001902054610f72908561189d565b935080610f7e816118b0565b915050610f22565b506005546040516000916001600160a01b03169085908381818185875af1925050503d8060008114610fd4576040519150601f19603f3d011682016040523d82523d6000602084013e610fd9565b606091505b505090508061101d5760405162461bcd60e51b815260206004820152601060248201526f2a3930b739b332b9103330b4b632b21760811b6044820152606401610240565b50505050565b6006546001600160a01b0316331461104d5760405162461bcd60e51b81526004016102409061192a565b61105681611477565b50565b600454421161107a5760405162461bcd60e51b815260040161024090611903565b6006546001600160a01b031633146110a45760405162461bcd60e51b81526004016102409061192a565b6007546001600160a01b031660009081526008602052604081208190555b60095481101561105657600060086000600984815481106110e5576110e561194e565b60009182526020808320909101546001600160a01b0316835282019290925260400190205411156111e757600060086000600984815481106111295761112961194e565b60009182526020808320909101546001600160a01b03168352820192909252604001812054600980549193506008918391908690811061116b5761116b61194e565b60009182526020808320909101546001600160a01b0316835282019290925260400190205560098054839081106111a4576111a461194e565b60009182526020822001546040516001600160a01b039091169183156108fc02918491818181858888f193505050501580156111e4573d6000803e3d6000fd5b50505b806111f1816118b0565b9150506110c2565b6014818154811061120957600080fd5b6000918252602090912001546001600160a01b0316905081565b60008054610c89906118c9565b600061123b33610aba565b905090565b6006546001600160a01b0316331461126a5760405162461bcd60e51b81526004016102409061192a565b6000610ab682826119b2565b60008181526010602052604081206002015483116113225760405162461bcd60e51b815260206004820152605b60248201527f796f757220636f6e747269627574696f6e20616e64205f73746172745365617260448201527f636820646f6573206e6f74206d616b652073656e73652c2069742077696c6c2060648201527f73656172636820696e20612077726f6e6720646972656374696f6e0000000000608482015260a401610240565b6000828152601060209081526040808320815160808082018452825482526001830154828601526002830154828501526003909201546001600160a01b031660608083019190915283519283018452858352938201859052918101849052918201929092525b506020808201516000908152601082526040908190208151608081018352815481526001820154938101939093526002810154918301829052600301546001600160a01b031660608301528510156113e4575191506113ec9050565b809150611388565b92915050565b6009818154811061120957600080fd5b60045442116114235760405162461bcd60e51b815260040161024090611903565b6007546001600160a01b0316331461146b5760405162461bcd60e51b815260206004820152600b60248201526a37b7363c903bb4b73732b960a91b6044820152606401610240565b6001610ab682826119b2565b6001600160a01b038116600090815260116020526040902054806115115760405162461bcd60e51b8152602060048201526044602482018190527f7468652067757920776974682074686973206164647265737320646f6573206e908201527f6f742065786973742c206d616b6573206e6f2073656e736520746f20776974686064820152636472617760e01b608482015260a401610240565b600061151c83610aba565b9050600e54811161158a5760405162461bcd60e51b815260206004820152603260248201527f6f6e6c7920746865206e6f6e2d77696e6e696e67206d756c7469706c65426964604482015271399031b0b7103132903bb4ba34323930bbb760711b6064820152608401610240565b60008281526010602081815260408084208151608081018352815480825260018084018054848801818152600287018054878a01526003880180546001600160a01b03166060890152958c52998952878b20909301558351915189528589209190915592879055918690559385905580546001600160a01b031916905533845260119091528220829055600d8054919261162383611706565b909155505060408082015181519081524260208201526001600160a01b038616917f73f04af9dcc582a923ec15d3eea990fe34adabfff2879e28d44572e01a54abb6910160405180910390a260408082015190516001600160a01b0386169180156108fc02916000818181858888f193505050501580156116a8573d6000803e3d6000fd5b5050505050565b60208082526021908201527f63616e6e6f7420626964206166746572207468652061756374696f6e20656e646040820152607360f81b606082015260800190565b634e487b7160e01b600052601160045260246000fd5b600081611715576117156116f0565b506000190190565b60006020828403121561172f57600080fd5b5035919050565b60006020828403121561174857600080fd5b81356001600160a01b038116811461175f57600080fd5b9392505050565b600060208083528351808285015260005b8181101561179357858101830151858201604001528201611777565b506000604082860101526040601f19601f8301168501019250505092915050565b634e487b7160e01b600052604160045260246000fd5b6000602082840312156117dc57600080fd5b813567ffffffffffffffff808211156117f457600080fd5b818401915084601f83011261180857600080fd5b81358181111561181a5761181a6117b4565b604051601f8201601f19908116603f01168101908382118183101715611842576118426117b4565b8160405282815287602084870101111561185b57600080fd5b826020860160208301376000928101602001929092525095945050505050565b6000806040838503121561188e57600080fd5b50508035926020909101359150565b808201808211156113ec576113ec6116f0565b6000600182016118c2576118c26116f0565b5060010190565b600181811c908216806118dd57607f821691505b6020821081036118fd57634e487b7160e01b600052602260045260246000fd5b50919050565b6020808252600d908201526c1b9bdd08195b991959081e595d609a1b604082015260600190565b6020808252600a908201526937b7363c9037bbb732b960b11b604082015260600190565b634e487b7160e01b600052603260045260246000fd5b601f8211156108de57600081815260208120601f850160051c8101602086101561198b5750805b601f850160051c820191505b818110156119aa57828155600101611997565b505050505050565b815167ffffffffffffffff8111156119cc576119cc6117b4565b6119e0816119da84546118c9565b84611964565b602080601f831160018114611a1557600084156119fd5750858301515b600019600386901b1c1916600185901b1785556119aa565b600085815260208120601f198616915b82811015611a4457888601518255948401946001909101908401611a25565b5085821015611a625787850151600019600388901b60f8161c191681555b5050505050600190811b0190555056fea26469706673582212209f18e76d2cc5e8d819208473ded76fa3c3f8a67d3e6159b6e322c76ecf821c3064736f6c63430008120033","opcodes":"PUSH1 0x80 PUSH1 0x40 MSTORE PUSH1 0x3 DUP1 SLOAD PUSH1 0xFF NOT AND PUSH1 0x1 OR SWAP1 SSTORE PUSH1 0x5 DUP1 SLOAD PUSH1 0xFF PUSH1 0xA0 SHL NOT AND SWAP1 SSTORE PUSH3 0x15180 PUSH1 0xA DUP2 SWAP1 SSTORE PUSH1 0xB SSTORE PUSH1 0x0 PUSH1 0xC DUP2 SWAP1 SSTORE PUSH1 0xD DUP2 SWAP1 SSTORE PUSH1 0xF SSTORE CALLVALUE DUP1 ISZERO PUSH3 0x46 JUMPI PUSH1 0x0 DUP1 REVERT JUMPDEST POP PUSH1 0x40 MLOAD PUSH3 0x222D CODESIZE SUB DUP1 PUSH3 0x222D DUP4 CODECOPY DUP2 ADD PUSH1 0x40 DUP2 SWAP1 MSTORE PUSH3 0x69 SWAP2 PUSH3 0x501 JUMP JUMPDEST DUP7 DUP7 DUP7 DUP7 DUP7 DUP5 DUP5 DUP5 DUP5 TIMESTAMP DUP3 GT PUSH3 0xD8 JUMPI PUSH1 0x40 MLOAD PUSH3 0x461BCD PUSH1 0xE5 SHL DUP2 MSTORE PUSH1 0x20 PUSH1 0x4 DUP3 ADD MSTORE PUSH1 0x28 PUSH1 0x24 DUP3 ADD MSTORE PUSH32 0x656E64206F66207468652061756374696F6E206D75737420626520696E207468 PUSH1 0x44 DUP3 ADD MSTORE PUSH8 0x6520667574757265 PUSH1 0xC0 SHL PUSH1 0x64 DUP3 ADD MSTORE PUSH1 0x84 ADD JUMPDEST PUSH1 0x40 MLOAD DUP1 SWAP2 SUB SWAP1 REVERT JUMPDEST PUSH1 0x6 DUP1 SLOAD PUSH1 0x1 PUSH1 0x1 PUSH1 0xA0 SHL SUB NOT AND CALLER OR SWAP1 SSTORE PUSH1 0x2 DUP5 SWAP1 SSTORE PUSH1 0x0 PUSH3 0xFD DUP5 DUP3 PUSH3 0x6A9 JUMP JUMPDEST POP PUSH1 0x4 SWAP2 SWAP1 SWAP2 SSTORE PUSH1 0x5 DUP1 SLOAD PUSH1 0x1 PUSH1 0x1 PUSH1 0xA0 SHL SUB NOT AND PUSH1 0x1 PUSH1 0x1 PUSH1 0xA0 SHL SUB SWAP1 SWAP3 AND SWAP2 SWAP1 SWAP2 OR SWAP1 SSTORE POP POP PUSH1 0x1 DUP2 GT PUSH3 0x1E9 JUMPI PUSH1 0x40 MLOAD PUSH3 0x461BCD PUSH1 0xE5 SHL DUP2 MSTORE PUSH1 0x20 PUSH1 0x4 DUP3 ADD MSTORE PUSH1 0x7E PUSH1 0x24 DUP3 ADD MSTORE PUSH32 0x546869732061756374696F6E2069732073756974656420746F206D756C746970 PUSH1 0x44 DUP3 ADD MSTORE PUSH32 0x6C65206974656D732E20576974682031206974656D206F6E6C79202D20757365 PUSH1 0x64 DUP3 ADD MSTORE PUSH32 0x20646966666572656E7420636F64652E204F722072656D6F7665207468697320 PUSH1 0x84 DUP3 ADD MSTORE PUSH32 0x277265717569726527202D20796F75277665206265656E207761726E65640000 PUSH1 0xA4 DUP3 ADD MSTORE PUSH1 0xC4 ADD PUSH3 0xCF JUMP JUMPDEST PUSH1 0xE SSTORE POP POP PUSH1 0x40 DUP1 MLOAD PUSH1 0x80 DUP1 DUP3 ADD DUP4 MSTORE PUSH1 0x0 DUP1 DUP4 MSTORE PUSH1 0x20 DUP1 DUP5 ADD DUP3 DUP2 MSTORE PUSH11 0x6342FD08F00F6378000000 DUP6 DUP8 ADD DUP2 DUP2 MSTORE PUSH1 0x60 DUP1 DUP9 ADD DUP7 DUP2 MSTORE DUP4 DUP8 MSTORE PUSH1 0x10 DUP1 DUP8 MSTORE SWAP9 MLOAD PUSH32 0x4193530F6C284E7B0A4B615C0DE01680C53039E6F8A59BDB9D7393E1B9EE7C14 SSTORE SWAP4 MLOAD PUSH32 0x4193530F6C284E7B0A4B615C0DE01680C53039E6F8A59BDB9D7393E1B9EE7C15 SSTORE SWAP1 MLOAD PUSH32 0x4193530F6C284E7B0A4B615C0DE01680C53039E6F8A59BDB9D7393E1B9EE7C16 SSTORE SWAP2 MLOAD PUSH32 0x4193530F6C284E7B0A4B615C0DE01680C53039E6F8A59BDB9D7393E1B9EE7C17 DUP1 SLOAD PUSH1 0x1 PUSH1 0x1 PUSH1 0xA0 SHL SUB NOT SWAP1 DUP2 AND PUSH1 0x1 PUSH1 0x1 PUSH1 0xA0 SHL SUB SWAP4 DUP5 AND OR SWAP1 SWAP2 SSTORE DUP9 MLOAD SWAP7 DUP8 ADD DUP10 MSTORE DUP3 DUP8 MSTORE DUP7 DUP6 ADD SWAP3 DUP4 MSTORE SWAP8 DUP7 ADD DUP6 DUP2 MSTORE SWAP3 DUP7 ADD DUP6 DUP2 MSTORE SWAP5 DUP1 MSTORE SWAP6 SWAP1 SWAP3 MSTORE SWAP3 MLOAD PUSH32 0x6E0956CDA88CAD152E89927E53611735B61A5C762D1428573C6931B0A5EFCB01 SSTORE MLOAD PUSH32 0x6E0956CDA88CAD152E89927E53611735B61A5C762D1428573C6931B0A5EFCB02 SSTORE SWAP1 MLOAD PUSH32 0x6E0956CDA88CAD152E89927E53611735B61A5C762D1428573C6931B0A5EFCB03 SSTORE MLOAD PUSH32 0x6E0956CDA88CAD152E89927E53611735B61A5C762D1428573C6931B0A5EFCB04 DUP1 SLOAD SWAP1 SWAP4 AND SWAP2 AND OR SWAP1 SSTORE POP POP DUP2 DUP4 LT ISZERO PUSH3 0x454 JUMPI PUSH1 0x40 MLOAD PUSH3 0x461BCD PUSH1 0xE5 SHL DUP2 MSTORE PUSH1 0x20 PUSH1 0x4 DUP3 ADD MSTORE PUSH1 0x78 PUSH1 0x24 DUP3 ADD MSTORE PUSH32 0x546865206E756D626572206F662067756172616E74656564206974656D732073 PUSH1 0x44 DUP3 ADD MSTORE PUSH32 0x686F756C64206265206C657373206F7220657175616C207468616E20746F7461 PUSH1 0x64 DUP3 ADD MSTORE PUSH32 0x6C206974656D732E20496620657175616C203D20666978656420707269636520 PUSH1 0x84 DUP3 ADD MSTORE PUSH32 0x73656C6C2C206B696E64206F66204F4B2077697468206D650000000000000000 PUSH1 0xA4 DUP3 ADD MSTORE PUSH1 0xC4 ADD PUSH3 0xCF JUMP JUMPDEST PUSH1 0x0 DUP2 GT PUSH3 0x4B9 JUMPI PUSH1 0x40 MLOAD PUSH3 0x461BCD PUSH1 0xE5 SHL DUP2 MSTORE PUSH1 0x20 PUSH1 0x4 DUP3 ADD MSTORE PUSH1 0x2A PUSH1 0x24 DUP3 ADD MSTORE PUSH32 0x47756172616E74656564207072696365206D7573742062652067726561746572 PUSH1 0x44 DUP3 ADD MSTORE PUSH10 0x207468616E207A65726F PUSH1 0xB0 SHL PUSH1 0x64 DUP3 ADD MSTORE PUSH1 0x84 ADD PUSH3 0xCF JUMP JUMPDEST PUSH1 0x12 SWAP2 SWAP1 SWAP2 SSTORE PUSH1 0x13 SSTORE POP PUSH3 0x775 SWAP4 POP POP POP POP JUMP JUMPDEST PUSH4 0x4E487B71 PUSH1 0xE0 SHL PUSH1 0x0 MSTORE PUSH1 0x41 PUSH1 0x4 MSTORE PUSH1 0x24 PUSH1 0x0 REVERT JUMPDEST DUP1 MLOAD PUSH1 0x1 PUSH1 0x1 PUSH1 0xA0 SHL SUB DUP2 AND DUP2 EQ PUSH3 0x4FC JUMPI PUSH1 0x0 DUP1 REVERT JUMPDEST SWAP2 SWAP1 POP JUMP JUMPDEST PUSH1 0x0 DUP1 PUSH1 0x0 DUP1 PUSH1 0x0 DUP1 PUSH1 0x0 PUSH1 0xE0 DUP9 DUP11 SUB SLT ISZERO PUSH3 0x51D JUMPI PUSH1 0x0 DUP1 REVERT JUMPDEST DUP8 MLOAD PUSH1 0x20 DUP1 DUP11 ADD MLOAD SWAP2 SWAP9 POP SWAP1 PUSH1 0x1 PUSH1 0x1 PUSH1 0x40 SHL SUB DUP1 DUP3 GT ISZERO PUSH3 0x53F JUMPI PUSH1 0x0 DUP1 REVERT JUMPDEST DUP2 DUP12 ADD SWAP2 POP DUP12 PUSH1 0x1F DUP4 ADD SLT PUSH3 0x554 JUMPI PUSH1 0x0 DUP1 REVERT JUMPDEST DUP2 MLOAD DUP2 DUP2 GT ISZERO PUSH3 0x569 JUMPI PUSH3 0x569 PUSH3 0x4CE JUMP JUMPDEST PUSH1 0x40 MLOAD PUSH1 0x1F DUP3 ADD PUSH1 0x1F NOT SWAP1 DUP2 AND PUSH1 0x3F ADD AND DUP2 ADD SWAP1 DUP4 DUP3 GT DUP2 DUP4 LT OR ISZERO PUSH3 0x594 JUMPI PUSH3 0x594 PUSH3 0x4CE JUMP JUMPDEST DUP2 PUSH1 0x40 MSTORE DUP3 DUP2 MSTORE DUP15 DUP7 DUP5 DUP8 ADD ADD GT ISZERO PUSH3 0x5AD JUMPI PUSH1 0x0 DUP1 REVERT JUMPDEST PUSH1 0x0 SWAP4 POP JUMPDEST DUP3 DUP5 LT ISZERO PUSH3 0x5D1 JUMPI DUP5 DUP5 ADD DUP7 ADD MLOAD DUP2 DUP6 ADD DUP8 ADD MSTORE SWAP3 DUP6 ADD SWAP3 PUSH3 0x5B2 JUMP JUMPDEST PUSH1 0x0 DUP7 DUP5 DUP4 ADD ADD MSTORE DUP1 SWAP12 POP POP POP POP POP POP POP PUSH1 0x40 DUP9 ADD MLOAD SWAP5 POP PUSH3 0x5F7 PUSH1 0x60 DUP10 ADD PUSH3 0x4E4 JUMP JUMPDEST SWAP4 POP PUSH1 0x80 DUP9 ADD MLOAD SWAP3 POP PUSH1 0xA0 DUP9 ADD MLOAD SWAP2 POP PUSH1 0xC0 DUP9 ADD MLOAD SWAP1 POP SWAP3 SWAP6 SWAP9 SWAP2 SWAP5 SWAP8 POP SWAP3 SWAP6 POP JUMP JUMPDEST PUSH1 0x1 DUP2 DUP2 SHR SWAP1 DUP3 AND DUP1 PUSH3 0x62F JUMPI PUSH1 0x7F DUP3 AND SWAP2 POP JUMPDEST PUSH1 0x20 DUP3 LT DUP2 SUB PUSH3 0x650 JUMPI PUSH4 0x4E487B71 PUSH1 0xE0 SHL PUSH1 0x0 MSTORE PUSH1 0x22 PUSH1 0x4 MSTORE PUSH1 0x24 PUSH1 0x0 REVERT JUMPDEST POP SWAP2 SWAP1 POP JUMP JUMPDEST PUSH1 0x1F DUP3 GT ISZERO PUSH3 0x6A4 JUMPI PUSH1 0x0 DUP2 DUP2 MSTORE PUSH1 0x20 DUP2 KECCAK256 PUSH1 0x1F DUP6 ADD PUSH1 0x5 SHR DUP2 ADD PUSH1 0x20 DUP7 LT ISZERO PUSH3 0x67F JUMPI POP DUP1 JUMPDEST PUSH1 0x1F DUP6 ADD PUSH1 0x5 SHR DUP3 ADD SWAP2 POP JUMPDEST DUP2 DUP2 LT ISZERO PUSH3 0x6A0 JUMPI DUP3 DUP2 SSTORE PUSH1 0x1 ADD PUSH3 0x68B JUMP JUMPDEST POP POP POP JUMPDEST POP POP POP JUMP JUMPDEST DUP2 MLOAD PUSH1 0x1 PUSH1 0x1 PUSH1 0x40 SHL SUB DUP2 GT ISZERO PUSH3 0x6C5 JUMPI PUSH3 0x6C5 PUSH3 0x4CE JUMP JUMPDEST PUSH3 0x6DD DUP2 PUSH3 0x6D6 DUP5 SLOAD PUSH3 0x61A JUMP JUMPDEST DUP5 PUSH3 0x656 JUMP JUMPDEST PUSH1 0x20 DUP1 PUSH1 0x1F DUP4 GT PUSH1 0x1 DUP2 EQ PUSH3 0x715 JUMPI PUSH1 0x0 DUP5 ISZERO PUSH3 0x6FC JUMPI POP DUP6 DUP4 ADD MLOAD JUMPDEST PUSH1 0x0 NOT PUSH1 0x3 DUP7 SWAP1 SHL SHR NOT AND PUSH1 0x1 DUP6 SWAP1 SHL OR DUP6 SSTORE PUSH3 0x6A0 JUMP JUMPDEST PUSH1 0x0 DUP6 DUP2 MSTORE PUSH1 0x20 DUP2 KECCAK256 PUSH1 0x1F NOT DUP7 AND SWAP2 JUMPDEST DUP3 DUP2 LT ISZERO PUSH3 0x746 JUMPI DUP9 DUP7 ADD MLOAD DUP3 SSTORE SWAP5 DUP5 ADD SWAP5 PUSH1 0x1 SWAP1 SWAP2 ADD SWAP1 DUP5 ADD PUSH3 0x725 JUMP JUMPDEST POP DUP6 DUP3 LT ISZERO PUSH3 0x765 JUMPI DUP8 DUP6 ADD MLOAD PUSH1 0x0 NOT PUSH1 0x3 DUP9 SWAP1 SHL PUSH1 0xF8 AND SHR NOT AND DUP2 SSTORE JUMPDEST POP POP POP POP POP PUSH1 0x1 SWAP1 DUP2 SHL ADD SWAP1 SSTORE POP JUMP JUMPDEST PUSH2 0x1AA8 DUP1 PUSH3 0x785 PUSH1 0x0 CODECOPY PUSH1 0x0 RETURN INVALID PUSH1 0x80 PUSH1 0x40 MSTORE PUSH1 0x4 CALLDATASIZE LT PUSH2 0x208 JUMPI PUSH1 0x0 CALLDATALOAD PUSH1 0xE0 SHR DUP1 PUSH4 0x6641DA80 GT PUSH2 0x118 JUMPI DUP1 PUSH4 0xB3F05B97 GT PUSH2 0xA0 JUMPI DUP1 PUSH4 0xCB743840 GT PUSH2 0x6F JUMPI DUP1 PUSH4 0xCB743840 EQ PUSH2 0x74E JUMPI DUP1 PUSH4 0xCF9B3C8D EQ PUSH2 0x764 JUMPI DUP1 PUSH4 0xDFBF53AE EQ PUSH2 0x784 JUMPI DUP1 PUSH4 0xEC6F6EA4 EQ PUSH2 0x7A4 JUMPI DUP1 PUSH4 0xF5738BCD EQ PUSH2 0x7D1 JUMPI PUSH1 0x0 DUP1 REVERT JUMPDEST DUP1 PUSH4 0xB3F05B97 EQ PUSH2 0x6EC JUMPI DUP1 PUSH4 0xB7DC5C11 EQ PUSH2 0x70D JUMPI DUP1 PUSH4 0xC628DDC3 EQ PUSH2 0x723 JUMPI DUP1 PUSH4 0xC6EEEB04 EQ PUSH2 0x738 JUMPI PUSH1 0x0 DUP1 REVERT JUMPDEST DUP1 PUSH4 0x8DA5CB5B GT PUSH2 0xE7 JUMPI DUP1 PUSH4 0x8DA5CB5B EQ PUSH2 0x660 JUMPI DUP1 PUSH4 0x90C3F38F EQ PUSH2 0x680 JUMPI DUP1 PUSH4 0xA035B1FE EQ PUSH2 0x6A0 JUMPI DUP1 PUSH4 0xA9D49F62 EQ PUSH2 0x6B6 JUMPI DUP1 PUSH4 0xAF8214EF EQ PUSH2 0x6D6 JUMPI PUSH1 0x0 DUP1 REVERT JUMPDEST DUP1 PUSH4 0x6641DA80 EQ PUSH2 0x600 JUMPI DUP1 PUSH4 0x66AEF95B EQ PUSH2 0x620 JUMPI DUP1 PUSH4 0x7284E416 EQ PUSH2 0x636 JUMPI DUP1 PUSH4 0x7398AB18 EQ PUSH2 0x64B JUMPI PUSH1 0x0 DUP1 REVERT JUMPDEST DUP1 PUSH4 0x30BBB55E GT PUSH2 0x19B JUMPI DUP1 PUSH4 0x56C7F461 GT PUSH2 0x16A JUMPI DUP1 PUSH4 0x56C7F461 EQ PUSH2 0x57D JUMPI DUP1 PUSH4 0x57F196FA EQ PUSH2 0x592 JUMPI DUP1 PUSH4 0x590E1AE3 EQ PUSH2 0x5A8 JUMPI DUP1 PUSH4 0x62AB8CC1 EQ PUSH2 0x5BD JUMPI DUP1 PUSH4 0x62EA82DB EQ PUSH2 0x5D3 JUMPI PUSH1 0x0 DUP1 REVERT JUMPDEST DUP1 PUSH4 0x30BBB55E EQ PUSH2 0x4EE JUMPI DUP1 PUSH4 0x38AF3EED EQ PUSH2 0x510 JUMPI DUP1 PUSH4 0x4BB278F3 EQ PUSH2 0x548 JUMPI DUP1 PUSH4 0x5104CB5C EQ PUSH2 0x55D JUMPI PUSH1 0x0 DUP1 REVERT JUMPDEST DUP1 PUSH4 0x1998AEEF GT PUSH2 0x1D7 JUMPI DUP1 PUSH4 0x1998AEEF EQ PUSH2 0x398 JUMPI DUP1 PUSH4 0x1A701609 EQ PUSH2 0x478 JUMPI DUP1 PUSH4 0x1D0806AE EQ PUSH2 0x497 JUMPI DUP1 PUSH4 0x1F6D4942 EQ PUSH2 0x4C1 JUMPI PUSH1 0x0 DUP1 REVERT JUMPDEST DUP1 PUSH4 0x41ABD9F EQ PUSH2 0x3A5 JUMPI DUP1 PUSH4 0x114B4F1C EQ PUSH2 0x3CE JUMPI DUP1 PUSH4 0x14A4E4D6 EQ PUSH2 0x3E4 JUMPI DUP1 PUSH4 0x16C19739 EQ PUSH2 0x458 JUMPI PUSH1 0x0 DUP1 REVERT JUMPDEST CALLDATASIZE PUSH2 0x3A0 JUMPI CALLVALUE PUSH1 0x0 SUB PUSH2 0x21F JUMPI PUSH2 0x21D PUSH2 0x7F1 JUMP JUMPDEST STOP JUMPDEST PUSH1 0x4 SLOAD TIMESTAMP LT PUSH2 0x249 JUMPI PUSH1 0x40 MLOAD PUSH3 0x461BCD PUSH1 0xE5 SHL DUP2 MSTORE PUSH1 0x4 ADD PUSH2 0x240 SWAP1 PUSH2 0x16AF JUMP JUMPDEST PUSH1 0x40 MLOAD DUP1 SWAP2 SUB SWAP1 REVERT JUMPDEST CALLER PUSH1 0x0 SWAP1 DUP2 MSTORE PUSH1 0x15 PUSH1 0x20 MSTORE PUSH1 0x40 SWAP1 KECCAK256 SLOAD ISZERO PUSH2 0x2CC JUMPI PUSH1 0x40 MLOAD PUSH3 0x461BCD PUSH1 0xE5 SHL DUP2 MSTORE PUSH1 0x20 PUSH1 0x4 DUP3 ADD MSTORE PUSH1 0x37 PUSH1 0x24 DUP3 ADD MSTORE PUSH32 0x616C726561647920612067756172616E7465656420636F6E7472696275746F72 PUSH1 0x44 DUP3 ADD MSTORE PUSH32 0x2C2063616E6E6F74206D6F7265207468616E206F6E6365000000000000000000 PUSH1 0x64 DUP3 ADD MSTORE PUSH1 0x84 ADD PUSH2 0x240 JUMP JUMPDEST PUSH1 0x13 SLOAD CALLVALUE LT ISZERO DUP1 ISZERO PUSH2 0x2E0 JUMPI POP PUSH1 0x0 PUSH1 0x12 SLOAD GT JUMPDEST ISZERO PUSH2 0x398 JUMPI PUSH1 0x14 DUP1 SLOAD PUSH1 0x1 DUP2 ADD SWAP1 SWAP2 SSTORE PUSH32 0xCE6D7B5282BD9A3661AE061FEED1DBDA4E52AB073B1F9285BE6E155D9C38D4EC ADD DUP1 SLOAD PUSH1 0x1 PUSH1 0x1 PUSH1 0xA0 SHL SUB NOT AND CALLER SWAP1 DUP2 OR SWAP1 SWAP2 SSTORE PUSH1 0x0 SWAP1 DUP2 MSTORE PUSH1 0x15 PUSH1 0x20 MSTORE PUSH1 0x40 DUP2 KECCAK256 CALLVALUE SWAP1 SSTORE PUSH1 0x12 DUP1 SLOAD SWAP2 PUSH2 0x344 DUP4 PUSH2 0x1706 JUMP JUMPDEST SWAP1 SWAP2 SSTORE POP POP PUSH1 0xE DUP1 SLOAD SWAP1 PUSH1 0x0 PUSH2 0x359 DUP4 PUSH2 0x1706 JUMP JUMPDEST SWAP1 SWAP2 SSTORE POP POP PUSH1 0x40 DUP1 MLOAD CALLER DUP2 MSTORE CALLVALUE PUSH1 0x20 DUP3 ADD MSTORE PUSH32 0xF2D599BB8CBFB83F7AAEFA6562A40C939D41ED0D64BA6E32A331FA174F9AA35F SWAP2 ADD PUSH1 0x40 MLOAD DUP1 SWAP2 SUB SWAP1 LOG1 STOP JUMPDEST PUSH2 0x21D PUSH2 0x7FC JUMP JUMPDEST PUSH1 0x0 DUP1 REVERT JUMPDEST CALLVALUE DUP1 ISZERO PUSH2 0x3B1 JUMPI PUSH1 0x0 DUP1 REVERT JUMPDEST POP PUSH2 0x3BB PUSH1 0x4 SLOAD DUP2 JUMP JUMPDEST PUSH1 0x40 MLOAD SWAP1 DUP2 MSTORE PUSH1 0x20 ADD JUMPDEST PUSH1 0x40 MLOAD DUP1 SWAP2 SUB SWAP1 RETURN JUMPDEST CALLVALUE DUP1 ISZERO PUSH2 0x3DA JUMPI PUSH1 0x0 DUP1 REVERT JUMPDEST POP PUSH2 0x3BB PUSH1 0x12 SLOAD DUP2 JUMP JUMPDEST CALLVALUE DUP1 ISZERO PUSH2 0x3F0 JUMPI PUSH1 0x0 DUP1 REVERT JUMPDEST POP PUSH2 0x42F PUSH2 0x3FF CALLDATASIZE PUSH1 0x4 PUSH2 0x171D JUMP JUMPDEST PUSH1 0x10 PUSH1 0x20 MSTORE PUSH1 0x0 SWAP1 DUP2 MSTORE PUSH1 0x40 SWAP1 KECCAK256 DUP1 SLOAD PUSH1 0x1 DUP3 ADD SLOAD PUSH1 0x2 DUP4 ADD SLOAD PUSH1 0x3 SWAP1 SWAP4 ADD SLOAD SWAP2 SWAP3 SWAP1 SWAP2 PUSH1 0x1 PUSH1 0x1 PUSH1 0xA0 SHL SUB AND DUP5 JUMP JUMPDEST PUSH1 0x40 DUP1 MLOAD SWAP5 DUP6 MSTORE PUSH1 0x20 DUP6 ADD SWAP4 SWAP1 SWAP4 MSTORE SWAP2 DUP4 ADD MSTORE PUSH1 0x1 PUSH1 0x1 PUSH1 0xA0 SHL SUB AND PUSH1 0x60 DUP3 ADD MSTORE PUSH1 0x80 ADD PUSH2 0x3C5 JUMP JUMPDEST CALLVALUE DUP1 ISZERO PUSH2 0x464 JUMPI PUSH1 0x0 DUP1 REVERT JUMPDEST POP PUSH2 0x3BB PUSH2 0x473 CALLDATASIZE PUSH1 0x4 PUSH2 0x1736 JUMP JUMPDEST PUSH2 0xABA JUMP JUMPDEST CALLVALUE DUP1 ISZERO PUSH2 0x484 JUMPI PUSH1 0x0 DUP1 REVERT JUMPDEST POP PUSH2 0x3BB PUSH11 0x6342FD08F00F6378000000 DUP2 JUMP JUMPDEST CALLVALUE DUP1 ISZERO PUSH2 0x4A3 JUMPI PUSH1 0x0 DUP1 REVERT JUMPDEST POP PUSH1 0x3 SLOAD PUSH2 0x4B1 SWAP1 PUSH1 0xFF AND DUP2 JUMP JUMPDEST PUSH1 0x40 MLOAD SWAP1 ISZERO ISZERO DUP2 MSTORE PUSH1 0x20 ADD PUSH2 0x3C5 JUMP JUMPDEST CALLVALUE DUP1 ISZERO PUSH2 0x4CD JUMPI PUSH1 0x0 DUP1 REVERT JUMPDEST POP PUSH2 0x3BB PUSH2 0x4DC CALLDATASIZE PUSH1 0x4 PUSH2 0x1736 JUMP JUMPDEST PUSH1 0x11 PUSH1 0x20 MSTORE PUSH1 0x0 SWAP1 DUP2 MSTORE PUSH1 0x40 SWAP1 KECCAK256 SLOAD DUP2 JUMP JUMPDEST CALLVALUE DUP1 ISZERO PUSH2 0x4FA JUMPI PUSH1 0x0 DUP1 REVERT JUMPDEST POP PUSH2 0x503 PUSH2 0xC7C JUMP JUMPDEST PUSH1 0x40 MLOAD PUSH2 0x3C5 SWAP2 SWAP1 PUSH2 0x1766 JUMP JUMPDEST CALLVALUE DUP1 ISZERO PUSH2 0x51C JUMPI PUSH1 0x0 DUP1 REVERT JUMPDEST POP PUSH1 0x5 SLOAD PUSH2 0x530 SWAP1 PUSH1 0x1 PUSH1 0x1 PUSH1 0xA0 SHL SUB AND DUP2 JUMP JUMPDEST PUSH1 0x40 MLOAD PUSH1 0x1 PUSH1 0x1 PUSH1 0xA0 SHL SUB SWAP1 SWAP2 AND DUP2 MSTORE PUSH1 0x20 ADD PUSH2 0x3C5 JUMP JUMPDEST CALLVALUE DUP1 ISZERO PUSH2 0x554 JUMPI PUSH1 0x0 DUP1 REVERT JUMPDEST POP PUSH2 0x21D PUSH2 0xD0A JUMP JUMPDEST CALLVALUE DUP1 ISZERO PUSH2 0x569 JUMPI PUSH1 0x0 DUP1 REVERT JUMPDEST POP PUSH2 0x21D PUSH2 0x578 CALLDATASIZE PUSH1 0x4 PUSH2 0x1736 JUMP JUMPDEST PUSH2 0x1023 JUMP JUMPDEST CALLVALUE DUP1 ISZERO PUSH2 0x589 JUMPI PUSH1 0x0 DUP1 REVERT JUMPDEST POP PUSH2 0x21D PUSH2 0x1059 JUMP JUMPDEST CALLVALUE DUP1 ISZERO PUSH2 0x59E JUMPI PUSH1 0x0 DUP1 REVERT JUMPDEST POP PUSH2 0x3BB PUSH1 0xC SLOAD DUP2 JUMP JUMPDEST CALLVALUE DUP1 ISZERO PUSH2 0x5B4 JUMPI PUSH1 0x0 DUP1 REVERT JUMPDEST POP PUSH2 0x21D PUSH2 0x7F1 JUMP JUMPDEST CALLVALUE DUP1 ISZERO PUSH2 0x5C9 JUMPI PUSH1 0x0 DUP1 REVERT JUMPDEST POP PUSH2 0x3BB PUSH1 0xE SLOAD DUP2 JUMP JUMPDEST CALLVALUE DUP1 ISZERO PUSH2 0x5DF JUMPI PUSH1 0x0 DUP1 REVERT JUMPDEST POP PUSH2 0x3BB PUSH2 0x5EE CALLDATASIZE PUSH1 0x4 PUSH2 0x1736 JUMP JUMPDEST PUSH1 0x8 PUSH1 0x20 MSTORE PUSH1 0x0 SWAP1 DUP2 MSTORE PUSH1 0x40 SWAP1 KECCAK256 SLOAD DUP2 JUMP JUMPDEST CALLVALUE DUP1 ISZERO PUSH2 0x60C JUMPI PUSH1 0x0 DUP1 REVERT JUMPDEST POP PUSH2 0x530 PUSH2 0x61B CALLDATASIZE PUSH1 0x4 PUSH2 0x171D JUMP JUMPDEST PUSH2 0x11F9 JUMP JUMPDEST CALLVALUE DUP1 ISZERO PUSH2 0x62C JUMPI PUSH1 0x0 DUP1 REVERT JUMPDEST POP PUSH2 0x3BB PUSH1 0xA SLOAD DUP2 JUMP JUMPDEST CALLVALUE DUP1 ISZERO PUSH2 0x642 JUMPI PUSH1 0x0 DUP1 REVERT JUMPDEST POP PUSH2 0x503 PUSH2 0x1223 JUMP JUMPDEST CALLVALUE DUP1 ISZERO PUSH2 0x657 JUMPI PUSH1 0x0 DUP1 REVERT JUMPDEST POP PUSH2 0x3BB PUSH2 0x1230 JUMP JUMPDEST CALLVALUE DUP1 ISZERO PUSH2 0x66C JUMPI PUSH1 0x0 DUP1 REVERT JUMPDEST POP PUSH1 0x6 SLOAD PUSH2 0x530 SWAP1 PUSH1 0x1 PUSH1 0x1 PUSH1 0xA0 SHL SUB AND DUP2 JUMP JUMPDEST CALLVALUE DUP1 ISZERO PUSH2 0x68C JUMPI PUSH1 0x0 DUP1 REVERT JUMPDEST POP PUSH2 0x21D PUSH2 0x69B CALLDATASIZE PUSH1 0x4 PUSH2 0x17CA JUMP JUMPDEST PUSH2 0x1240 JUMP JUMPDEST CALLVALUE DUP1 ISZERO PUSH2 0x6AC JUMPI PUSH1 0x0 DUP1 REVERT JUMPDEST POP PUSH2 0x3BB PUSH1 0x2 SLOAD DUP2 JUMP JUMPDEST CALLVALUE DUP1 ISZERO PUSH2 0x6C2 JUMPI PUSH1 0x0 DUP1 REVERT JUMPDEST POP PUSH2 0x3BB PUSH2 0x6D1 CALLDATASIZE PUSH1 0x4 PUSH2 0x187B JUMP JUMPDEST PUSH2 0x1276 JUMP JUMPDEST CALLVALUE DUP1 ISZERO PUSH2 0x6E2 JUMPI PUSH1 0x0 DUP1 REVERT JUMPDEST POP PUSH2 0x3BB PUSH2 0x7D0 DUP2 JUMP JUMPDEST CALLVALUE DUP1 ISZERO PUSH2 0x6F8 JUMPI PUSH1 0x0 DUP1 REVERT JUMPDEST POP PUSH1 0x5 SLOAD PUSH2 0x4B1 SWAP1 PUSH1 0x1 PUSH1 0xA0 SHL SWAP1 DIV PUSH1 0xFF AND DUP2 JUMP JUMPDEST CALLVALUE DUP1 ISZERO PUSH2 0x719 JUMPI PUSH1 0x0 DUP1 REVERT JUMPDEST POP PUSH2 0x3BB PUSH1 0x13 SLOAD DUP2 JUMP JUMPDEST CALLVALUE DUP1 ISZERO PUSH2 0x72F JUMPI PUSH1 0x0 DUP1 REVERT JUMPDEST POP PUSH2 0x3BB PUSH1 0x0 DUP2 JUMP JUMPDEST CALLVALUE DUP1 ISZERO PUSH2 0x744 JUMPI PUSH1 0x0 DUP1 REVERT JUMPDEST POP PUSH2 0x3BB PUSH1 0xB SLOAD DUP2 JUMP JUMPDEST CALLVALUE DUP1 ISZERO PUSH2 0x75A JUMPI PUSH1 0x0 DUP1 REVERT JUMPDEST POP PUSH2 0x3BB PUSH1 0xD SLOAD DUP2 JUMP JUMPDEST CALLVALUE DUP1 ISZERO PUSH2 0x770 JUMPI PUSH1 0x0 DUP1 REVERT JUMPDEST POP PUSH2 0x530 PUSH2 0x77F CALLDATASIZE PUSH1 0x4 PUSH2 0x171D JUMP JUMPDEST PUSH2 0x13F2 JUMP JUMPDEST CALLVALUE DUP1 ISZERO PUSH2 0x790 JUMPI PUSH1 0x0 DUP1 REVERT JUMPDEST POP PUSH1 0x7 SLOAD PUSH2 0x530 SWAP1 PUSH1 0x1 PUSH1 0x1 PUSH1 0xA0 SHL SUB AND DUP2 JUMP JUMPDEST CALLVALUE DUP1 ISZERO PUSH2 0x7B0 JUMPI PUSH1 0x0 DUP1 REVERT JUMPDEST POP PUSH2 0x3BB PUSH2 0x7BF CALLDATASIZE PUSH1 0x4 PUSH2 0x1736 JUMP JUMPDEST PUSH1 0x15 PUSH1 0x20 MSTORE PUSH1 0x0 SWAP1 DUP2 MSTORE PUSH1 0x40 SWAP1 KECCAK256 SLOAD DUP2 JUMP JUMPDEST CALLVALUE DUP1 ISZERO PUSH2 0x7DD JUMPI PUSH1 0x0 DUP1 REVERT JUMPDEST POP PUSH2 0x21D PUSH2 0x7EC CALLDATASIZE PUSH1 0x4 PUSH2 0x17CA JUMP JUMPDEST PUSH2 0x1402 JUMP JUMPDEST PUSH2 0x7FA CALLER PUSH2 0x1477 JUMP JUMPDEST JUMP JUMPDEST PUSH1 0x4 SLOAD TIMESTAMP LT PUSH2 0x81D JUMPI PUSH1 0x40 MLOAD PUSH3 0x461BCD PUSH1 0xE5 SHL DUP2 MSTORE PUSH1 0x4 ADD PUSH2 0x240 SWAP1 PUSH2 0x16AF JUMP JUMPDEST CALLER PUSH1 0x0 SWAP1 DUP2 MSTORE PUSH1 0x11 PUSH1 0x20 MSTORE PUSH1 0x40 DUP2 KECCAK256 SLOAD SWAP1 DUP2 ISZERO PUSH2 0x8E3 JUMPI PUSH1 0x0 DUP3 DUP2 MSTORE PUSH1 0x10 PUSH1 0x20 MSTORE PUSH1 0x40 DUP2 KECCAK256 PUSH1 0x2 DUP2 ADD DUP1 SLOAD SWAP2 SWAP3 CALLVALUE SWAP3 PUSH2 0x857 SWAP1 DUP5 SWAP1 PUSH2 0x189D JUMP JUMPDEST SWAP1 SWAP2 SSTORE POP POP PUSH1 0x1 DUP2 ADD SLOAD PUSH1 0x0 SWAP1 DUP2 MSTORE PUSH1 0x10 PUSH1 0x20 MSTORE PUSH1 0x40 SWAP1 KECCAK256 PUSH1 0x2 SWAP1 DUP2 ADD SLOAD SWAP1 DUP3 ADD SLOAD GT ISZERO PUSH2 0x8DE JUMPI PUSH2 0x891 DUP2 PUSH1 0x2 ADD SLOAD DUP3 PUSH1 0x1 ADD SLOAD PUSH2 0x1276 JUMP JUMPDEST PUSH1 0x1 DUP1 DUP4 ADD DUP1 SLOAD DUP5 SLOAD PUSH1 0x0 SWAP1 DUP2 MSTORE PUSH1 0x10 PUSH1 0x20 MSTORE PUSH1 0x40 DUP1 DUP3 KECCAK256 DUP6 ADD DUP4 SWAP1 SSTORE DUP7 SLOAD SWAP3 DUP3 MSTORE DUP1 DUP3 KECCAK256 SWAP3 SWAP1 SWAP3 SSTORE DUP5 DUP7 SSTORE DUP5 DUP2 MSTORE DUP2 DUP2 KECCAK256 SWAP1 SWAP4 ADD DUP1 SLOAD SWAP3 DUP4 SWAP1 SSTORE SWAP2 DUP4 MSTORE DUP3 KECCAK256 DUP7 SWAP1 SSTORE SWAP1 DUP3 SWAP1 MSTORE DUP5 SWAP1 SSTORE SWAP2 POP JUMPDEST POP POP POP JUMP JUMPDEST PUSH1 0x2 SLOAD CALLVALUE LT ISZERO PUSH2 0x95B JUMPI PUSH1 0x40 MLOAD PUSH3 0x461BCD PUSH1 0xE5 SHL DUP2 MSTORE PUSH1 0x20 PUSH1 0x4 DUP3 ADD MSTORE PUSH1 0x3B PUSH1 0x24 DUP3 ADD MSTORE PUSH32 0x4E6F74206D7563682073656E73652073656E64696E67206C657373207468616E PUSH1 0x44 DUP3 ADD MSTORE PUSH32 0x207468652070726963652C206C696B656C7920616E206572726F720000000000 PUSH1 0x64 DUP3 ADD MSTORE PUSH1 0x84 ADD PUSH2 0x240 JUMP JUMPDEST PUSH2 0x7D0 PUSH1 0xC SLOAD LT PUSH2 0x9E3 JUMPI PUSH1 0x40 MLOAD PUSH3 0x461BCD PUSH1 0xE5 SHL DUP2 MSTORE PUSH1 0x20 PUSH1 0x4 DUP3 ADD MSTORE PUSH1 0x46 PUSH1 0x24 DUP3 ADD MSTORE PUSH32 0x44756520746F20626C6F636B476173206C696D6974207765206C696D6974206E PUSH1 0x44 DUP3 ADD MSTORE PUSH32 0x756D626572206F662070656F706C6520696E207468652061756374696F6E2074 PUSH1 0x64 DUP3 ADD MSTORE PUSH6 0x6F203230303 PUSH1 0xD4 SHL PUSH1 0x84 DUP3 ADD MSTORE PUSH1 0xA4 ADD PUSH2 0x240 JUMP JUMPDEST PUSH1 0xC DUP1 SLOAD SWAP1 PUSH1 0x0 PUSH2 0x9F3 DUP4 PUSH2 0x18B0 JUMP JUMPDEST SWAP1 SWAP2 SSTORE POP POP PUSH1 0xD DUP1 SLOAD SWAP1 PUSH1 0x0 PUSH2 0xA08 DUP4 PUSH2 0x18B0 JUMP JUMPDEST SWAP2 SWAP1 POP SSTORE POP PUSH2 0xA18 CALLVALUE PUSH1 0x0 PUSH2 0x1276 JUMP JUMPDEST PUSH1 0xC DUP1 SLOAD CALLER PUSH1 0x0 DUP2 DUP2 MSTORE PUSH1 0x11 PUSH1 0x20 SWAP1 DUP2 MSTORE PUSH1 0x40 DUP1 DUP4 KECCAK256 DUP6 SWAP1 SSTORE DUP1 MLOAD PUSH1 0x80 DUP2 ADD DUP3 MSTORE DUP8 DUP2 MSTORE DUP8 DUP5 MSTORE PUSH1 0x10 DUP1 DUP5 MSTORE DUP3 DUP6 KECCAK256 PUSH1 0x1 SWAP1 DUP2 ADD DUP1 SLOAD DUP5 DUP8 ADD SWAP1 DUP2 MSTORE CALLVALUE DUP6 DUP8 ADD SWAP1 DUP2 MSTORE PUSH1 0x60 DUP7 ADD SWAP10 DUP11 MSTORE SWAP10 DUP9 MSTORE SWAP3 SWAP1 SWAP6 MSTORE DUP4 DUP7 KECCAK256 SWAP3 MLOAD DUP4 SSTORE SWAP1 MLOAD SWAP1 DUP3 ADD SSTORE SWAP5 MLOAD PUSH1 0x2 DUP7 ADD SSTORE SWAP3 MLOAD PUSH1 0x3 SWAP1 SWAP5 ADD DUP1 SLOAD PUSH1 0x1 PUSH1 0x1 PUSH1 0xA0 SHL SUB NOT AND PUSH1 0x1 PUSH1 0x1 PUSH1 0xA0 SHL SUB SWAP1 SWAP6 AND SWAP5 SWAP1 SWAP5 OR SWAP1 SWAP4 SSTORE SWAP3 SLOAD DUP3 SLOAD DUP5 MSTORE SWAP1 DUP4 KECCAK256 DUP2 SWAP1 SSTORE SWAP2 DUP4 SWAP1 MSTORE SSTORE SWAP1 POP JUMPDEST POP POP JUMP JUMPDEST PUSH1 0x1 PUSH1 0x1 PUSH1 0xA0 SHL SUB DUP2 AND PUSH1 0x0 SWAP1 DUP2 MSTORE PUSH1 0x11 PUSH1 0x20 MSTORE PUSH1 0x40 DUP2 KECCAK256 SLOAD DUP1 DUP3 SUB PUSH2 0xB48 JUMPI PUSH1 0x40 MLOAD PUSH3 0x461BCD PUSH1 0xE5 SHL DUP2 MSTORE PUSH1 0x20 PUSH1 0x4 DUP3 ADD MSTORE PUSH1 0x39 PUSH1 0x24 DUP3 ADD MSTORE PUSH32 0x63616E6E6F742061736B20666F72206120706F736974696F6E206F6620612067 PUSH1 0x44 DUP3 ADD MSTORE PUSH32 0x75792077686F206973206E6F74206F6E20746865206C69737400000000000000 PUSH1 0x64 DUP3 ADD MSTORE PUSH1 0x84 ADD PUSH2 0x240 JUMP JUMPDEST PUSH11 0x6342FD08F00F6378000000 PUSH1 0x0 MSTORE PUSH1 0x10 PUSH1 0x20 SWAP1 DUP2 MSTORE PUSH1 0x40 DUP1 MLOAD PUSH1 0x80 DUP2 ADD DUP3 MSTORE PUSH32 0x4193530F6C284E7B0A4B615C0DE01680C53039E6F8A59BDB9D7393E1B9EE7C14 SLOAD DUP2 MSTORE PUSH32 0x4193530F6C284E7B0A4B615C0DE01680C53039E6F8A59BDB9D7393E1B9EE7C15 SLOAD SWAP3 DUP2 ADD SWAP3 SWAP1 SWAP3 MSTORE PUSH32 0x4193530F6C284E7B0A4B615C0DE01680C53039E6F8A59BDB9D7393E1B9EE7C16 SLOAD SWAP1 DUP3 ADD MSTORE PUSH32 0x4193530F6C284E7B0A4B615C0DE01680C53039E6F8A59BDB9D7393E1B9EE7C17 SLOAD PUSH1 0x1 PUSH1 0x1 PUSH1 0xA0 SHL SUB AND PUSH1 0x60 DUP3 ADD MSTORE PUSH1 0x1 SWAP1 JUMPDEST DUP1 MLOAD DUP4 EQ PUSH2 0xC74 JUMPI MLOAD PUSH1 0x0 SWAP1 DUP2 MSTORE PUSH1 0x10 PUSH1 0x20 SWAP1 DUP2 MSTORE PUSH1 0x40 SWAP2 DUP3 SWAP1 KECCAK256 DUP3 MLOAD PUSH1 0x80 DUP2 ADD DUP5 MSTORE DUP2 SLOAD DUP2 MSTORE PUSH1 0x1 DUP3 ADD SLOAD SWAP3 DUP2 ADD SWAP3 SWAP1 SWAP3 MSTORE PUSH1 0x2 DUP2 ADD SLOAD SWAP3 DUP3 ADD SWAP3 SWAP1 SWAP3 MSTORE PUSH1 0x3 SWAP1 SWAP2 ADD SLOAD PUSH1 0x1 PUSH1 0x1 PUSH1 0xA0 SHL SUB AND PUSH1 0x60 DUP3 ADD MSTORE DUP2 PUSH2 0xC6C DUP2 PUSH2 0x18B0 JUMP JUMPDEST SWAP3 POP POP PUSH2 0xC0F JUMP JUMPDEST POP SWAP4 SWAP3 POP POP POP JUMP JUMPDEST PUSH1 0x1 DUP1 SLOAD PUSH2 0xC89 SWAP1 PUSH2 0x18C9 JUMP JUMPDEST DUP1 PUSH1 0x1F ADD PUSH1 0x20 DUP1 SWAP2 DIV MUL PUSH1 0x20 ADD PUSH1 0x40 MLOAD SWAP1 DUP2 ADD PUSH1 0x40 MSTORE DUP1 SWAP3 SWAP2 SWAP1 DUP2 DUP2 MSTORE PUSH1 0x20 ADD DUP3 DUP1 SLOAD PUSH2 0xCB5 SWAP1 PUSH2 0x18C9 JUMP JUMPDEST DUP1 ISZERO PUSH2 0xD02 JUMPI DUP1 PUSH1 0x1F LT PUSH2 0xCD7 JUMPI PUSH2 0x100 DUP1 DUP4 SLOAD DIV MUL DUP4 MSTORE SWAP2 PUSH1 0x20 ADD SWAP2 PUSH2 0xD02 JUMP JUMPDEST DUP3 ADD SWAP2 SWAP1 PUSH1 0x0 MSTORE PUSH1 0x20 PUSH1 0x0 KECCAK256 SWAP1 JUMPDEST DUP2 SLOAD DUP2 MSTORE SWAP1 PUSH1 0x1 ADD SWAP1 PUSH1 0x20 ADD DUP1 DUP4 GT PUSH2 0xCE5 JUMPI DUP3 SWAP1 SUB PUSH1 0x1F AND DUP3 ADD SWAP2 JUMPDEST POP POP POP POP POP DUP2 JUMP JUMPDEST PUSH1 0x4 SLOAD TIMESTAMP GT PUSH2 0xD2B JUMPI PUSH1 0x40 MLOAD PUSH3 0x461BCD PUSH1 0xE5 SHL DUP2 MSTORE PUSH1 0x4 ADD PUSH2 0x240 SWAP1 PUSH2 0x1903 JUMP JUMPDEST PUSH1 0x6 SLOAD PUSH1 0x1 PUSH1 0x1 PUSH1 0xA0 SHL SUB AND CALLER EQ PUSH2 0xD55 JUMPI PUSH1 0x40 MLOAD PUSH3 0x461BCD PUSH1 0xE5 SHL DUP2 MSTORE PUSH1 0x4 ADD PUSH2 0x240 SWAP1 PUSH2 0x192A JUMP JUMPDEST PUSH1 0x5 SLOAD PUSH1 0x1 PUSH1 0xA0 SHL SWAP1 DIV PUSH1 0xFF AND ISZERO PUSH2 0xDC9 JUMPI PUSH1 0x40 MLOAD PUSH3 0x461BCD PUSH1 0xE5 SHL DUP2 MSTORE PUSH1 0x20 PUSH1 0x4 DUP3 ADD MSTORE PUSH1 0x31 PUSH1 0x24 DUP3 ADD MSTORE PUSH32 0x61756374696F6E20616C72656164792066696E616C697A65642C2063616E2077 PUSH1 0x44 DUP3 ADD MSTORE PUSH17 0x69746864726177206F6E6C79206F6E6365 PUSH1 0x78 SHL PUSH1 0x64 DUP3 ADD MSTORE PUSH1 0x84 ADD PUSH2 0x240 JUMP JUMPDEST PUSH1 0x5 DUP1 SLOAD PUSH1 0xFF PUSH1 0xA0 SHL NOT AND PUSH1 0x1 PUSH1 0xA0 SHL OR SWAP1 SSTORE PUSH11 0x6342FD08F00F6378000000 PUSH1 0x0 SWAP1 DUP2 MSTORE PUSH1 0x10 PUSH1 0x20 SWAP1 DUP2 MSTORE PUSH1 0x40 DUP1 MLOAD PUSH1 0x80 DUP2 ADD DUP3 MSTORE PUSH32 0x4193530F6C284E7B0A4B615C0DE01680C53039E6F8A59BDB9D7393E1B9EE7C14 SLOAD DUP2 MSTORE PUSH32 0x4193530F6C284E7B0A4B615C0DE01680C53039E6F8A59BDB9D7393E1B9EE7C15 SLOAD SWAP3 DUP2 ADD SWAP3 SWAP1 SWAP3 MSTORE PUSH32 0x4193530F6C284E7B0A4B615C0DE01680C53039E6F8A59BDB9D7393E1B9EE7C16 SLOAD SWAP1 DUP3 ADD MSTORE PUSH32 0x4193530F6C284E7B0A4B615C0DE01680C53039E6F8A59BDB9D7393E1B9EE7C17 SLOAD PUSH1 0x1 PUSH1 0x1 PUSH1 0xA0 SHL SUB AND PUSH1 0x60 DUP3 ADD MSTORE DUP2 SWAP1 JUMPDEST PUSH1 0xE SLOAD DUP3 PUSH2 0xEB1 DUP2 PUSH2 0x18B0 JUMP JUMPDEST SWAP4 POP LT DUP1 ISZERO PUSH2 0xEC0 JUMPI POP DUP1 MLOAD ISZERO ISZERO JUMPDEST ISZERO PUSH2 0xF1F JUMPI MLOAD PUSH1 0x0 SWAP1 DUP2 MSTORE PUSH1 0x10 PUSH1 0x20 SWAP1 DUP2 MSTORE PUSH1 0x40 SWAP2 DUP3 SWAP1 KECCAK256 DUP3 MLOAD PUSH1 0x80 DUP2 ADD DUP5 MSTORE DUP2 SLOAD DUP2 MSTORE PUSH1 0x1 DUP3 ADD SLOAD SWAP3 DUP2 ADD SWAP3 SWAP1 SWAP3 MSTORE PUSH1 0x2 DUP2 ADD SLOAD SWAP3 DUP3 ADD DUP4 SWAP1 MSTORE PUSH1 0x3 ADD SLOAD PUSH1 0x1 PUSH1 0x1 PUSH1 0xA0 SHL SUB AND PUSH1 0x60 DUP3 ADD MSTORE SWAP1 PUSH2 0xF18 SWAP1 DUP5 PUSH2 0x189D JUMP JUMPDEST SWAP3 POP PUSH2 0xEA4 JUMP JUMPDEST PUSH1 0x0 JUMPDEST PUSH1 0x14 SLOAD DUP2 LT ISZERO PUSH2 0xF86 JUMPI PUSH1 0x15 PUSH1 0x0 PUSH1 0x14 DUP4 DUP2 SLOAD DUP2 LT PUSH2 0xF43 JUMPI PUSH2 0xF43 PUSH2 0x194E JUMP JUMPDEST PUSH1 0x0 SWAP2 DUP3 MSTORE PUSH1 0x20 DUP1 DUP4 KECCAK256 SWAP1 SWAP2 ADD SLOAD PUSH1 0x1 PUSH1 0x1 PUSH1 0xA0 SHL SUB AND DUP4 MSTORE DUP3 ADD SWAP3 SWAP1 SWAP3 MSTORE PUSH1 0x40 ADD SWAP1 KECCAK256 SLOAD PUSH2 0xF72 SWAP1 DUP6 PUSH2 0x189D JUMP JUMPDEST SWAP4 POP DUP1 PUSH2 0xF7E DUP2 PUSH2 0x18B0 JUMP JUMPDEST SWAP2 POP POP PUSH2 0xF22 JUMP JUMPDEST POP PUSH1 0x5 SLOAD PUSH1 0x40 MLOAD PUSH1 0x0 SWAP2 PUSH1 0x1 PUSH1 0x1 PUSH1 0xA0 SHL SUB AND SWAP1 DUP6 SWAP1 DUP4 DUP2 DUP2 DUP2 DUP6 DUP8 GAS CALL SWAP3 POP POP POP RETURNDATASIZE DUP1 PUSH1 0x0 DUP2 EQ PUSH2 0xFD4 JUMPI PUSH1 0x40 MLOAD SWAP2 POP PUSH1 0x1F NOT PUSH1 0x3F RETURNDATASIZE ADD AND DUP3 ADD PUSH1 0x40 MSTORE RETURNDATASIZE DUP3 MSTORE RETURNDATASIZE PUSH1 0x0 PUSH1 0x20 DUP5 ADD RETURNDATACOPY PUSH2 0xFD9 JUMP JUMPDEST PUSH1 0x60 SWAP2 POP JUMPDEST POP POP SWAP1 POP DUP1 PUSH2 0x101D JUMPI PUSH1 0x40 MLOAD PUSH3 0x461BCD PUSH1 0xE5 SHL DUP2 MSTORE PUSH1 0x20 PUSH1 0x4 DUP3 ADD MSTORE PUSH1 0x10 PUSH1 0x24 DUP3 ADD MSTORE PUSH16 0x2A3930B739B332B9103330B4B632B217 PUSH1 0x81 SHL PUSH1 0x44 DUP3 ADD MSTORE PUSH1 0x64 ADD PUSH2 0x240 JUMP JUMPDEST POP POP POP POP JUMP JUMPDEST PUSH1 0x6 SLOAD PUSH1 0x1 PUSH1 0x1 PUSH1 0xA0 SHL SUB AND CALLER EQ PUSH2 0x104D JUMPI PUSH1 0x40 MLOAD PUSH3 0x461BCD PUSH1 0xE5 SHL DUP2 MSTORE PUSH1 0x4 ADD PUSH2 0x240 SWAP1 PUSH2 0x192A JUMP JUMPDEST PUSH2 0x1056 DUP2 PUSH2 0x1477 JUMP JUMPDEST POP JUMP JUMPDEST PUSH1 0x4 SLOAD TIMESTAMP GT PUSH2 0x107A JUMPI PUSH1 0x40 MLOAD PUSH3 0x461BCD PUSH1 0xE5 SHL DUP2 MSTORE PUSH1 0x4 ADD PUSH2 0x240 SWAP1 PUSH2 0x1903 JUMP JUMPDEST PUSH1 0x6 SLOAD PUSH1 0x1 PUSH1 0x1 PUSH1 0xA0 SHL SUB AND CALLER EQ PUSH2 0x10A4 JUMPI PUSH1 0x40 MLOAD PUSH3 0x461BCD PUSH1 0xE5 SHL DUP2 MSTORE PUSH1 0x4 ADD PUSH2 0x240 SWAP1 PUSH2 0x192A JUMP JUMPDEST PUSH1 0x7 SLOAD PUSH1 0x1 PUSH1 0x1 PUSH1 0xA0 SHL SUB AND PUSH1 0x0 SWAP1 DUP2 MSTORE PUSH1 0x8 PUSH1 0x20 MSTORE PUSH1 0x40 DUP2 KECCAK256 DUP2 SWAP1 SSTORE JUMPDEST PUSH1 0x9 SLOAD DUP2 LT ISZERO PUSH2 0x1056 JUMPI PUSH1 0x0 PUSH1 0x8 PUSH1 0x0 PUSH1 0x9 DUP5 DUP2 SLOAD DUP2 LT PUSH2 0x10E5 JUMPI PUSH2 0x10E5 PUSH2 0x194E JUMP JUMPDEST PUSH1 0x0 SWAP2 DUP3 MSTORE PUSH1 0x20 DUP1 DUP4 KECCAK256 SWAP1 SWAP2 ADD SLOAD PUSH1 0x1 PUSH1 0x1 PUSH1 0xA0 SHL SUB AND DUP4 MSTORE DUP3 ADD SWAP3 SWAP1 SWAP3 MSTORE PUSH1 0x40 ADD SWAP1 KECCAK256 SLOAD GT ISZERO PUSH2 0x11E7 JUMPI PUSH1 0x0 PUSH1 0x8 PUSH1 0x0 PUSH1 0x9 DUP5 DUP2 SLOAD DUP2 LT PUSH2 0x1129 JUMPI PUSH2 0x1129 PUSH2 0x194E JUMP JUMPDEST PUSH1 0x0 SWAP2 DUP3 MSTORE PUSH1 0x20 DUP1 DUP4 KECCAK256 SWAP1 SWAP2 ADD SLOAD PUSH1 0x1 PUSH1 0x1 PUSH1 0xA0 SHL SUB AND DUP4 MSTORE DUP3 ADD SWAP3 SWAP1 SWAP3 MSTORE PUSH1 0x40 ADD DUP2 KECCAK256 SLOAD PUSH1 0x9 DUP1 SLOAD SWAP2 SWAP4 POP PUSH1 0x8 SWAP2 DUP4 SWAP2 SWAP1 DUP7 SWAP1 DUP2 LT PUSH2 0x116B JUMPI PUSH2 0x116B PUSH2 0x194E JUMP JUMPDEST PUSH1 0x0 SWAP2 DUP3 MSTORE PUSH1 0x20 DUP1 DUP4 KECCAK256 SWAP1 SWAP2 ADD SLOAD PUSH1 0x1 PUSH1 0x1 PUSH1 0xA0 SHL SUB AND DUP4 MSTORE DUP3 ADD SWAP3 SWAP1 SWAP3 MSTORE PUSH1 0x40 ADD SWAP1 KECCAK256 SSTORE PUSH1 0x9 DUP1 SLOAD DUP4 SWAP1 DUP2 LT PUSH2 0x11A4 JUMPI PUSH2 0x11A4 PUSH2 0x194E JUMP JUMPDEST PUSH1 0x0 SWAP2 DUP3 MSTORE PUSH1 0x20 DUP3 KECCAK256 ADD SLOAD PUSH1 0x40 MLOAD PUSH1 0x1 PUSH1 0x1 PUSH1 0xA0 SHL SUB SWAP1 SWAP2 AND SWAP2 DUP4 ISZERO PUSH2 0x8FC MUL SWAP2 DUP5 SWAP2 DUP2 DUP2 DUP2 DUP6 DUP9 DUP9 CALL SWAP4 POP POP POP POP ISZERO DUP1 ISZERO PUSH2 0x11E4 JUMPI RETURNDATASIZE PUSH1 0x0 DUP1 RETURNDATACOPY RETURNDATASIZE PUSH1 0x0 REVERT JUMPDEST POP POP JUMPDEST DUP1 PUSH2 0x11F1 DUP2 PUSH2 0x18B0 JUMP JUMPDEST SWAP2 POP POP PUSH2 0x10C2 JUMP JUMPDEST PUSH1 0x14 DUP2 DUP2 SLOAD DUP2 LT PUSH2 0x1209 JUMPI PUSH1 0x0 DUP1 REVERT JUMPDEST PUSH1 0x0 SWAP2 DUP3 MSTORE PUSH1 0x20 SWAP1 SWAP2 KECCAK256 ADD SLOAD PUSH1 0x1 PUSH1 0x1 PUSH1 0xA0 SHL SUB AND SWAP1 POP DUP2 JUMP JUMPDEST PUSH1 0x0 DUP1 SLOAD PUSH2 0xC89 SWAP1 PUSH2 0x18C9 JUMP JUMPDEST PUSH1 0x0 PUSH2 0x123B CALLER PUSH2 0xABA JUMP JUMPDEST SWAP1 POP SWAP1 JUMP JUMPDEST PUSH1 0x6 SLOAD PUSH1 0x1 PUSH1 0x1 PUSH1 0xA0 SHL SUB AND CALLER EQ PUSH2 0x126A JUMPI PUSH1 0x40 MLOAD PUSH3 0x461BCD PUSH1 0xE5 SHL DUP2 MSTORE PUSH1 0x4 ADD PUSH2 0x240 SWAP1 PUSH2 0x192A JUMP JUMPDEST PUSH1 0x0 PUSH2 0xAB6 DUP3 DUP3 PUSH2 0x19B2 JUMP JUMPDEST PUSH1 0x0 DUP2 DUP2 MSTORE PUSH1 0x10 PUSH1 0x20 MSTORE PUSH1 0x40 DUP2 KECCAK256 PUSH1 0x2 ADD SLOAD DUP4 GT PUSH2 0x1322 JUMPI PUSH1 0x40 MLOAD PUSH3 0x461BCD PUSH1 0xE5 SHL DUP2 MSTORE PUSH1 0x20 PUSH1 0x4 DUP3 ADD MSTORE PUSH1 0x5B PUSH1 0x24 DUP3 ADD MSTORE PUSH32 0x796F757220636F6E747269627574696F6E20616E64205F737461727453656172 PUSH1 0x44 DUP3 ADD MSTORE PUSH32 0x636820646F6573206E6F74206D616B652073656E73652C2069742077696C6C20 PUSH1 0x64 DUP3 ADD MSTORE PUSH32 0x73656172636820696E20612077726F6E6720646972656374696F6E0000000000 PUSH1 0x84 DUP3 ADD MSTORE PUSH1 0xA4 ADD PUSH2 0x240 JUMP JUMPDEST PUSH1 0x0 DUP3 DUP2 MSTORE PUSH1 0x10 PUSH1 0x20 SWAP1 DUP2 MSTORE PUSH1 0x40 DUP1 DUP4 KECCAK256 DUP2 MLOAD PUSH1 0x80 DUP1 DUP3 ADD DUP5 MSTORE DUP3 SLOAD DUP3 MSTORE PUSH1 0x1 DUP4 ADD SLOAD DUP3 DUP7 ADD MSTORE PUSH1 0x2 DUP4 ADD SLOAD DUP3 DUP6 ADD MSTORE PUSH1 0x3 SWAP1 SWAP3 ADD SLOAD PUSH1 0x1 PUSH1 0x1 PUSH1 0xA0 SHL SUB AND PUSH1 0x60 DUP1 DUP4 ADD SWAP2 SWAP1 SWAP2 MSTORE DUP4 MLOAD SWAP3 DUP4 ADD DUP5 MSTORE DUP6 DUP4 MSTORE SWAP4 DUP3 ADD DUP6 SWAP1 MSTORE SWAP2 DUP2 ADD DUP5 SWAP1 MSTORE SWAP2 DUP3 ADD SWAP3 SWAP1 SWAP3 MSTORE JUMPDEST POP PUSH1 0x20 DUP1 DUP3 ADD MLOAD PUSH1 0x0 SWAP1 DUP2 MSTORE PUSH1 0x10 DUP3 MSTORE PUSH1 0x40 SWAP1 DUP2 SWAP1 KECCAK256 DUP2 MLOAD PUSH1 0x80 DUP2 ADD DUP4 MSTORE DUP2 SLOAD DUP2 MSTORE PUSH1 0x1 DUP3 ADD SLOAD SWAP4 DUP2 ADD SWAP4 SWAP1 SWAP4 MSTORE PUSH1 0x2 DUP2 ADD SLOAD SWAP2 DUP4 ADD DUP3 SWAP1 MSTORE PUSH1 0x3 ADD SLOAD PUSH1 0x1 PUSH1 0x1 PUSH1 0xA0 SHL SUB AND PUSH1 0x60 DUP4 ADD MSTORE DUP6 LT ISZERO PUSH2 0x13E4 JUMPI MLOAD SWAP2 POP PUSH2 0x13EC SWAP1 POP JUMP JUMPDEST DUP1 SWAP2 POP PUSH2 0x1388 JUMP JUMPDEST SWAP3 SWAP2 POP POP JUMP JUMPDEST PUSH1 0x9 DUP2 DUP2 SLOAD DUP2 LT PUSH2 0x1209 JUMPI PUSH1 0x0 DUP1 REVERT JUMPDEST PUSH1 0x4 SLOAD TIMESTAMP GT PUSH2 0x1423 JUMPI PUSH1 0x40 MLOAD PUSH3 0x461BCD PUSH1 0xE5 SHL DUP2 MSTORE PUSH1 0x4 ADD PUSH2 0x240 SWAP1 PUSH2 0x1903 JUMP JUMPDEST PUSH1 0x7 SLOAD PUSH1 0x1 PUSH1 0x1 PUSH1 0xA0 SHL SUB AND CALLER EQ PUSH2 0x146B JUMPI PUSH1 0x40 MLOAD PUSH3 0x461BCD PUSH1 0xE5 SHL DUP2 MSTORE PUSH1 0x20 PUSH1 0x4 DUP3 ADD MSTORE PUSH1 0xB PUSH1 0x24 DUP3 ADD MSTORE PUSH11 0x37B7363C903BB4B73732B9 PUSH1 0xA9 SHL PUSH1 0x44 DUP3 ADD MSTORE PUSH1 0x64 ADD PUSH2 0x240 JUMP JUMPDEST PUSH1 0x1 PUSH2 0xAB6 DUP3 DUP3 PUSH2 0x19B2 JUMP JUMPDEST PUSH1 0x1 PUSH1 0x1 PUSH1 0xA0 SHL SUB DUP2 AND PUSH1 0x0 SWAP1 DUP2 MSTORE PUSH1 0x11 PUSH1 0x20 MSTORE PUSH1 0x40 SWAP1 KECCAK256 SLOAD DUP1 PUSH2 0x1511 JUMPI PUSH1 0x40 MLOAD PUSH3 0x461BCD PUSH1 0xE5 SHL DUP2 MSTORE PUSH1 0x20 PUSH1 0x4 DUP3 ADD MSTORE PUSH1 0x44 PUSH1 0x24 DUP3 ADD DUP2 SWAP1 MSTORE PUSH32 0x7468652067757920776974682074686973206164647265737320646F6573206E SWAP1 DUP3 ADD MSTORE PUSH32 0x6F742065786973742C206D616B6573206E6F2073656E736520746F2077697468 PUSH1 0x64 DUP3 ADD MSTORE PUSH4 0x64726177 PUSH1 0xE0 SHL PUSH1 0x84 DUP3 ADD MSTORE PUSH1 0xA4 ADD PUSH2 0x240 JUMP JUMPDEST PUSH1 0x0 PUSH2 0x151C DUP4 PUSH2 0xABA JUMP JUMPDEST SWAP1 POP PUSH1 0xE SLOAD DUP2 GT PUSH2 0x158A JUMPI PUSH1 0x40 MLOAD PUSH3 0x461BCD PUSH1 0xE5 SHL DUP2 MSTORE PUSH1 0x20 PUSH1 0x4 DUP3 ADD MSTORE PUSH1 0x32 PUSH1 0x24 DUP3 ADD MSTORE PUSH32 0x6F6E6C7920746865206E6F6E2D77696E6E696E67206D756C7469706C65426964 PUSH1 0x44 DUP3 ADD MSTORE PUSH18 0x399031B0B7103132903BB4BA34323930BBB7 PUSH1 0x71 SHL PUSH1 0x64 DUP3 ADD MSTORE PUSH1 0x84 ADD PUSH2 0x240 JUMP JUMPDEST PUSH1 0x0 DUP3 DUP2 MSTORE PUSH1 0x10 PUSH1 0x20 DUP2 DUP2 MSTORE PUSH1 0x40 DUP1 DUP5 KECCAK256 DUP2 MLOAD PUSH1 0x80 DUP2 ADD DUP4 MSTORE DUP2 SLOAD DUP1 DUP3 MSTORE PUSH1 0x1 DUP1 DUP5 ADD DUP1 SLOAD DUP5 DUP9 ADD DUP2 DUP2 MSTORE PUSH1 0x2 DUP8 ADD DUP1 SLOAD DUP8 DUP11 ADD MSTORE PUSH1 0x3 DUP9 ADD DUP1 SLOAD PUSH1 0x1 PUSH1 0x1 PUSH1 0xA0 SHL SUB AND PUSH1 0x60 DUP10 ADD MSTORE SWAP6 DUP13 MSTORE SWAP10 DUP10 MSTORE DUP8 DUP12 KECCAK256 SWAP1 SWAP4 ADD SSTORE DUP4 MLOAD SWAP2 MLOAD DUP10 MSTORE DUP6 DUP10 KECCAK256 SWAP2 SWAP1 SWAP2 SSTORE SWAP3 DUP8 SWAP1 SSTORE SWAP2 DUP7 SWAP1 SSTORE SWAP4 DUP6 SWAP1 SSTORE DUP1 SLOAD PUSH1 0x1 PUSH1 0x1 PUSH1 0xA0 SHL SUB NOT AND SWAP1 SSTORE CALLER DUP5 MSTORE PUSH1 0x11 SWAP1 SWAP2 MSTORE DUP3 KECCAK256 DUP3 SWAP1 SSTORE PUSH1 0xD DUP1 SLOAD SWAP2 SWAP3 PUSH2 0x1623 DUP4 PUSH2 0x1706 JUMP JUMPDEST SWAP1 SWAP2 SSTORE POP POP PUSH1 0x40 DUP1 DUP3 ADD MLOAD DUP2 MLOAD SWAP1 DUP2 MSTORE TIMESTAMP PUSH1 0x20 DUP3 ADD MSTORE PUSH1 0x1 PUSH1 0x1 PUSH1 0xA0 SHL SUB DUP7 AND SWAP2 PUSH32 0x73F04AF9DCC582A923EC15D3EEA990FE34ADABFFF2879E28D44572E01A54ABB6 SWAP2 ADD PUSH1 0x40 MLOAD DUP1 SWAP2 SUB SWAP1 LOG2 PUSH1 0x40 DUP1 DUP3 ADD MLOAD SWAP1 MLOAD PUSH1 0x1 PUSH1 0x1 PUSH1 0xA0 SHL SUB DUP7 AND SWAP2 DUP1 ISZERO PUSH2 0x8FC MUL SWAP2 PUSH1 0x0 DUP2 DUP2 DUP2 DUP6 DUP9 DUP9 CALL SWAP4 POP POP POP POP ISZERO DUP1 ISZERO PUSH2 0x16A8 JUMPI RETURNDATASIZE PUSH1 0x0 DUP1 RETURNDATACOPY RETURNDATASIZE PUSH1 0x0 REVERT JUMPDEST POP POP POP POP POP JUMP JUMPDEST PUSH1 0x20 DUP1 DUP3 MSTORE PUSH1 0x21 SWAP1 DUP3 ADD MSTORE PUSH32 0x63616E6E6F7420626964206166746572207468652061756374696F6E20656E64 PUSH1 0x40 DUP3 ADD MSTORE PUSH1 0x73 PUSH1 0xF8 SHL PUSH1 0x60 DUP3 ADD MSTORE PUSH1 0x80 ADD SWAP1 JUMP JUMPDEST PUSH4 0x4E487B71 PUSH1 0xE0 SHL PUSH1 0x0 MSTORE PUSH1 0x11 PUSH1 0x4 MSTORE PUSH1 0x24 PUSH1 0x0 REVERT JUMPDEST PUSH1 0x0 DUP2 PUSH2 0x1715 JUMPI PUSH2 0x1715 PUSH2 0x16F0 JUMP JUMPDEST POP PUSH1 0x0 NOT ADD SWAP1 JUMP JUMPDEST PUSH1 0x0 PUSH1 0x20 DUP3 DUP5 SUB SLT ISZERO PUSH2 0x172F JUMPI PUSH1 0x0 DUP1 REVERT JUMPDEST POP CALLDATALOAD SWAP2 SWAP1 POP JUMP JUMPDEST PUSH1 0x0 PUSH1 0x20 DUP3 DUP5 SUB SLT ISZERO PUSH2 0x1748 JUMPI PUSH1 0x0 DUP1 REVERT JUMPDEST DUP2 CALLDATALOAD PUSH1 0x1 PUSH1 0x1 PUSH1 0xA0 SHL SUB DUP2 AND DUP2 EQ PUSH2 0x175F JUMPI PUSH1 0x0 DUP1 REVERT JUMPDEST SWAP4 SWAP3 POP POP POP JUMP JUMPDEST PUSH1 0x0 PUSH1 0x20 DUP1 DUP4 MSTORE DUP4 MLOAD DUP1 DUP3 DUP6 ADD MSTORE PUSH1 0x0 JUMPDEST DUP2 DUP2 LT ISZERO PUSH2 0x1793 JUMPI DUP6 DUP2 ADD DUP4 ADD MLOAD DUP6 DUP3 ADD PUSH1 0x40 ADD MSTORE DUP3 ADD PUSH2 0x1777 JUMP JUMPDEST POP PUSH1 0x0 PUSH1 0x40 DUP3 DUP7 ADD ADD MSTORE PUSH1 0x40 PUSH1 0x1F NOT PUSH1 0x1F DUP4 ADD AND DUP6 ADD ADD SWAP3 POP POP POP SWAP3 SWAP2 POP POP JUMP JUMPDEST PUSH4 0x4E487B71 PUSH1 0xE0 SHL PUSH1 0x0 MSTORE PUSH1 0x41 PUSH1 0x4 MSTORE PUSH1 0x24 PUSH1 0x0 REVERT JUMPDEST PUSH1 0x0 PUSH1 0x20 DUP3 DUP5 SUB SLT ISZERO PUSH2 0x17DC JUMPI PUSH1 0x0 DUP1 REVERT JUMPDEST DUP2 CALLDATALOAD PUSH8 0xFFFFFFFFFFFFFFFF DUP1 DUP3 GT ISZERO PUSH2 0x17F4 JUMPI PUSH1 0x0 DUP1 REVERT JUMPDEST DUP2 DUP5 ADD SWAP2 POP DUP5 PUSH1 0x1F DUP4 ADD SLT PUSH2 0x1808 JUMPI PUSH1 0x0 DUP1 REVERT JUMPDEST DUP2 CALLDATALOAD DUP2 DUP2 GT ISZERO PUSH2 0x181A JUMPI PUSH2 0x181A PUSH2 0x17B4 JUMP JUMPDEST PUSH1 0x40 MLOAD PUSH1 0x1F DUP3 ADD PUSH1 0x1F NOT SWAP1 DUP2 AND PUSH1 0x3F ADD AND DUP2 ADD SWAP1 DUP4 DUP3 GT DUP2 DUP4 LT OR ISZERO PUSH2 0x1842 JUMPI PUSH2 0x1842 PUSH2 0x17B4 JUMP JUMPDEST DUP2 PUSH1 0x40 MSTORE DUP3 DUP2 MSTORE DUP8 PUSH1 0x20 DUP5 DUP8 ADD ADD GT ISZERO PUSH2 0x185B JUMPI PUSH1 0x0 DUP1 REVERT JUMPDEST DUP3 PUSH1 0x20 DUP7 ADD PUSH1 0x20 DUP4 ADD CALLDATACOPY PUSH1 0x0 SWAP3 DUP2 ADD PUSH1 0x20 ADD SWAP3 SWAP1 SWAP3 MSTORE POP SWAP6 SWAP5 POP POP POP POP POP JUMP JUMPDEST PUSH1 0x0 DUP1 PUSH1 0x40 DUP4 DUP6 SUB SLT ISZERO PUSH2 0x188E JUMPI PUSH1 0x0 DUP1 REVERT JUMPDEST POP POP DUP1 CALLDATALOAD SWAP3 PUSH1 0x20 SWAP1 SWAP2 ADD CALLDATALOAD SWAP2 POP JUMP JUMPDEST DUP1 DUP3 ADD DUP1 DUP3 GT ISZERO PUSH2 0x13EC JUMPI PUSH2 0x13EC PUSH2 0x16F0 JUMP JUMPDEST PUSH1 0x0 PUSH1 0x1 DUP3 ADD PUSH2 0x18C2 JUMPI PUSH2 0x18C2 PUSH2 0x16F0 JUMP JUMPDEST POP PUSH1 0x1 ADD SWAP1 JUMP JUMPDEST PUSH1 0x1 DUP2 DUP2 SHR SWAP1 DUP3 AND DUP1 PUSH2 0x18DD JUMPI PUSH1 0x7F DUP3 AND SWAP2 POP JUMPDEST PUSH1 0x20 DUP3 LT DUP2 SUB PUSH2 0x18FD JUMPI PUSH4 0x4E487B71 PUSH1 0xE0 SHL PUSH1 0x0 MSTORE PUSH1 0x22 PUSH1 0x4 MSTORE PUSH1 0x24 PUSH1 0x0 REVERT JUMPDEST POP SWAP2 SWAP1 POP JUMP JUMPDEST PUSH1 0x20 DUP1 DUP3 MSTORE PUSH1 0xD SWAP1 DUP3 ADD MSTORE PUSH13 0x1B9BDD08195B991959081E595D PUSH1 0x9A SHL PUSH1 0x40 DUP3 ADD MSTORE PUSH1 0x60 ADD SWAP1 JUMP JUMPDEST PUSH1 0x20 DUP1 DUP3 MSTORE PUSH1 0xA SWAP1 DUP3 ADD MSTORE PUSH10 0x37B7363C9037BBB732B9 PUSH1 0xB1 SHL PUSH1 0x40 DUP3 ADD MSTORE PUSH1 0x60 ADD SWAP1 JUMP JUMPDEST PUSH4 0x4E487B71 PUSH1 0xE0 SHL PUSH1 0x0 MSTORE PUSH1 0x32 PUSH1 0x4 MSTORE PUSH1 0x24 PUSH1 0x0 REVERT JUMPDEST PUSH1 0x1F DUP3 GT ISZERO PUSH2 0x8DE JUMPI PUSH1 0x0 DUP2 DUP2 MSTORE PUSH1 0x20 DUP2 KECCAK256 PUSH1 0x1F DUP6 ADD PUSH1 0x5 SHR DUP2 ADD PUSH1 0x20 DUP7 LT ISZERO PUSH2 0x198B JUMPI POP DUP1 JUMPDEST PUSH1 0x1F DUP6 ADD PUSH1 0x5 SHR DUP3 ADD SWAP2 POP JUMPDEST DUP2 DUP2 LT ISZERO PUSH2 0x19AA JUMPI DUP3 DUP2 SSTORE PUSH1 0x1 ADD PUSH2 0x1997 JUMP JUMPDEST POP POP POP POP POP POP JUMP JUMPDEST DUP2 MLOAD PUSH8 0xFFFFFFFFFFFFFFFF DUP2 GT ISZERO PUSH2 0x19CC JUMPI PUSH2 0x19CC PUSH2 0x17B4 JUMP JUMPDEST PUSH2 0x19E0 DUP2 PUSH2 0x19DA DUP5 SLOAD PUSH2 0x18C9 JUMP JUMPDEST DUP5 PUSH2 0x1964 JUMP JUMPDEST PUSH1 0x20 DUP1 PUSH1 0x1F DUP4 GT PUSH1 0x1 DUP2 EQ PUSH2 0x1A15 JUMPI PUSH1 0x0 DUP5 ISZERO PUSH2 0x19FD JUMPI POP DUP6 DUP4 ADD MLOAD JUMPDEST PUSH1 0x0 NOT PUSH1 0x3 DUP7 SWAP1 SHL SHR NOT AND PUSH1 0x1 DUP6 SWAP1 SHL OR DUP6 SSTORE PUSH2 0x19AA JUMP JUMPDEST PUSH1 0x0 DUP6 DUP2 MSTORE PUSH1 0x20 DUP2 KECCAK256 PUSH1 0x1F NOT DUP7 AND SWAP2 JUMPDEST DUP3 DUP2 LT ISZERO PUSH2 0x1A44 JUMPI DUP9 DUP7 ADD MLOAD DUP3 SSTORE SWAP5 DUP5 ADD SWAP5 PUSH1 0x1 SWAP1 SWAP2 ADD SWAP1 DUP5 ADD PUSH2 0x1A25 JUMP JUMPDEST POP DUP6 DUP3 LT ISZERO PUSH2 0x1A62 JUMPI DUP8 DUP6 ADD MLOAD PUSH1 0x0 NOT PUSH1 0x3 DUP9 SWAP1 SHL PUSH1 0xF8 AND SHR NOT AND DUP2 SSTORE JUMPDEST POP POP POP POP POP PUSH1 0x1 SWAP1 DUP2 SHL ADD SWAP1 SSTORE POP JUMP INVALID LOG2 PUSH5 0x6970667358 0x22 SLT KECCAK256 SWAP16 XOR 0xE7 PUSH14 0x2CC5E8D819208473DED76FA3C3F8 0xA6 PUSH30 0x3E6159B6E322C76ECF821C3064736F6C6343000812003300000000000000 "},"methodIdentifiers":{"HEAD()":"1a701609","LIMIT()":"af8214ef","TAIL()":"c628ddc3","acceptedBids()":"cb743840","accountsList(uint256)":"cf9b3c8d","beneficiary()":"38af3eed","bid()":"1998aeef","bids(address)":"62ea82db","contributors(address)":"1f6d4942","description()":"7284e416","finalize()":"4bb278f3","finalized()":"b3f05b97","getPosition()":"7398ab18","getPosition(address)":"16c19739","guaranteedContributions(address)":"ec6f6ea4","guaranteedContributors(uint256)":"6641da80","howMany()":"62ab8cc1","howManyGuaranteed()":"114b4f1c","increaseTimeBy()":"c6eeeb04","increaseTimeIfBidBeforeEnd()":"66aef95b","initialPrice()":"1d0806ae","instructions()":"30bbb55e","lastBidID()":"57f196fa","multipleBids(uint256)":"14a4e4d6","owner()":"8da5cb5b","price()":"a035b1fe","priceGuaranteed()":"b7dc5c11","refund()":"590e1ae3","refundContributors()":"56c7f461","refundOnBehalf(address)":"5104cb5c","searchInsertionPoint(uint256,uint256)":"a9d49f62","setDescription(string)":"90c3f38f","setInstructions(string)":"f5738bcd","timestampEnd()":"041abd9f","winner()":"dfbf53ae"}}}}}